:020000040800F2
:1000000050080020990100088D220008D521000821
:1000100089220008850B0008AD22000800000000BE
:100020000000000000000000000000009522000811
:10003000910C00080000000091220008992200089D
:10004000B3010008B3010008B3010008B3010008C0
:10005000B3010008B3010008B3010008B3010008B0
:10006000B3010008B3010008B3010008B3010008A0
:10007000B3010008B3010008B3010008B301000890
:10008000B3010008B3010008B3010008B301000880
:10009000A1220008B3010008B3010008B301000861
:1000A000B3010008B3010008B3010008B301000860
:1000B000B3010008B3010008B3010008B301000850
:1000C000B3010008B3010008B3010008B301000840
:1000D000B3010008B3010008B3010008B301000830
:1000E000B3010008B3010008B301000800F002F8F2
:1000F00000F042F80AA090E8000C82448344AAF180
:100100000107DA4501D100F037F8AFF2090EBAE87D
:100110000F0013F0010F18BFFB1A43F0010318473B
:10012000402F0000602F0000103A24BF78C878C12B
:10013000FAD8520724BF30C830C144BF04680C60ED
:10014000704700000023002400250026103A28BF35
:1001500078C1FBD8520728BF30C148BF0B60704739
:100160001FB59DE8030000F0D3FA00F089F81FBD29
:1001700010B500F0EEF810BD00F01EF91146FFF7C3
:10018000EFFF02F07DFA00F039FA03B4FFF7F0FF59
:1001900003BC00F03BFC00000948804709480047C9
:1001A000FEE7FEE7FEE7FEE7FEE7FEE7FEE7FEE727
:1001B000FEE7FEE704480549054A064B7047000084
:1001C0009D220008ED000008500200205008002089
:1001D00050040020500400200FB4044910B503AAB5
:1001E000029800F01FF810BC5DF814FB74000020AA
:1001F00010B5044603E002F033FA401C09D014F8AD
:10020000010B05490028F6D1BDE810400A2002F094
:1002100027BA4FF0FF3010BD7400002070477047C0
:1002200070470000074B70B50D467B4400F011F895
:100230000446284600F020F810B14FF0FF3070BDA2
:10024000204670BD3324000001694A1C0261087811
:10025000704700B58FB0CDE9013100210591054906
:100260007944CDE903101146684600F0F1F80FB06B
:1002700000BD0000E5FFFFFF007B00F0800070473D
:1002800010B54248542100F0C9F94148542100F00A
:10029000C5F94048542100F0C1F93F493B483C4A68
:1002A0003F4B08603D490A603A491960531C036599
:1002B000481C1065012008653B48344A39A1784440
:1002C00000F0FEF820B9384878440A3800F09FF969
:1002D00037482F4A35A1784400F0F2F820B9344865
:1002E00078440A3800F093F932482A4A2FA178441A
:1002F00000F0E6F820B92F4878440A3800F087F972
:1003000040232248DC000021224600F0B5F820B14D
:1003100025487844543800F07AF91D482246402395
:10032000002100F0A9F820B121487844543800F0A9
:100330006EF9184822461023002100F09DF800288D
:1003400006D01C487844BDE81040563800F05FB92C
:1003500010BD104870B5006D20F001040B4800F08E
:1003600027F90B4800F024F90A4800F021F909E0C8
:10037000206D20F00105204600F01AF9204600F01B
:1003800040F82C46002CF3D170BD00002000002066
:1003900074000020C800002000000020040000209D
:1003A0000800002072000000CE2C00007700000042
:1003B000BA2C0000A62C0000754600F089F9AE4664
:1003C00005006946534620F00700854618B020B561
:1003D000FFF7F0FEBDE820404FF000064FF00007A9
:1003E0004FF000084FF0000BAC46ACE8C009ACE899
:1003F000C009ACE8C009ACE8C00921F007018D468E
:10040000704770B50446051F00F066F90068002CBF
:1004100014BF446870BD002C18BFAC423CBF2046DE
:100420006468F8D301680A18AA4218BF456003D16E
:100430002A6805461144016028684119A1421CBF81
:100440006C6070BD6168696021680844286070BD97
:100450002DE9F04106460024D6E90170F568804692
:10046000304603E04146B847641C3046A8470028A0
:10047000F8D12046BDE8F08170B5C468A50713D057
:10048000650211D4B2F5807F09D0B2F5007F06D0A5
:10049000B2F5806F08D1012300F1240106E05D1E52
:1004A0006FF07F46B54201D3012070BD0161C36189
:1004B000416024F470611143C160002070BD0000F0
:1004C0002DE9F0410C461646070047D0104600F0D3
:1004D0006FF82078611C61280AD0722802D0772832
:1004E0003CD102E00125002405E00225042402E0BD
:1004F000082448F2020511F8010B2B2806D06228C7
:1005000009D011F8010C74280AD00BE045F003055E
:1005100044F00204EFE745F0040544F00104EAE783
:1005200044F010043846214600F09FF8411C15D0D5
:100530000021316171604FF40071F560F16170610B
:10054000200704D530460222002100F03FF9306D2B
:1005500040F0010030653046BDE8F0810020FBE747
:100560002DE9F0410D460646104C206DC10704D020
:10057000410804D020F00104F7E722460EE05420A1
:1005800000F0F5F807000ED0206D47F00101084398
:1005900054212065384600F041F83A462946304655
:1005A000BDE8F0418CE70020D6E7000020000020E5
:1005B0002DE9F04704464FF0FF380026C568D4E91E
:1005C0000497A80718D0204600F0BCF9384600F080
:1005D00056F8002800DA4646280502D54846FFF7B7
:1005E00010FF4C21204600F019F8206D20F001008A
:1005F00020653046BDE8F0874046FBE710B504466D
:10060000AFF300802046BDE81040FFF7BEBD10B537
:1006100000F0E2F9BDE8104000F0D8B94FF0000258
:1006200000B5134694469646203922BFA0E80C50E8
:10063000A0E80C50B1F12001BFF4F7AF090728BFC3
:10064000A0E80C5048BF0CC05DF804EB890028BF3F
:1006500040F8042B08BF704748BF20F8022B11F068
:10066000804F18BF00F8012B70470EB5CDE900018F
:1006700000F035FA029069460120ABBE0EBD08B508
:10068000694600900220ABBE08BD1FB58DE807008B
:1006900069460520ABBE04B010BD1FB58DE80F0044
:1006A00069460620ABBEF6E708B56946009009200A
:1006B000ABBE08BD1CB5CDE9000169460A20ABBE42
:1006C0001CBD704708B5694600900C20ABBE08BD44
:1006D000004870471C01002000487047240100209A
:1006E000704770477047704738B504460A46002087
:1006F0006946AFF30080002808BF38BD0246009964
:10070000204600F091F9012038BD012000F0E0B949
:10071000F8B5AFF30080054600200C46102000BF5E
:100720000646A819A0420DD9324669460020AFF30B
:100730000080070008BF00F0CBF90098A04218BF66
:100740000546C419FFF7C8FF05600746F01D20F0F5
:1007500007004619284600F060F9B44208BFF8BD0A
:10076000A21B31463868BDE8F84000F05DB970B5AD
:100770000646FFF7B1FF056806F10B0020F00704FD
:10078000B4429CBF002070BD2B466A68BAB11068A5
:10079000A04210D304F1080188423CBF5068586061
:1007A00007D35168101941601168091B0160586036
:1007B0001460101D70BD13465268002AE7D121460F
:1007C0002846FFF791FF0028DED170BD2DE9F041EA
:1007D000044616460D464769007B80072ED03846F2
:1007E000FFF762FF50BB3EB3012E02D0022E25D18F
:1007F00004E0204600F032F905441DE03846FFF7DA
:1008000061FFE168002841F01001E16005DA20464F
:1008100000F058F80120BDE8F081C9030BD56268EB
:10082000E16A914200D81146A26911442269891AED
:10083000814200DD08460544002D01DA0220EAE786
:10084000E16A6068E268814206D29103E06203D502
:1008500022F4003141F01002A6690027AE4213DCF9
:10086000E16A814201D90B4600E0034603EB060C26
:100870002369ACEB030CAC4506DD814201D98C4603
:1008800000E084469C4505D1A760276042F0200027
:10089000A5620DE0AD1BE669AE1B8142A66000D9E2
:1008A0000846C01A281A20605819606022F02000FB
:1008B00003490840E060002084F84870ABE700007E
:1008C000BFCFD7FFC16821F4001141F08001C160A2
:1008D00000218160016070472DE9F74F15460C46F5
:1008E0004FF0FF3B3848D768D2F814A0074209D030
:1008F0005046A969FFF7DEFE002819DB3248C043E5
:100900000740EF604FF000496FF000484C4501D3BD
:10091000464600E0264600993B4650463246FFF7E1
:10092000B4FEA96920F00042B21A1144A96128B1AD
:100930002846FFF7C7FF5846BDE8FE8FA41BE5D148
:100940000020F9E770B504460569C06A616888420D
:1009500000D80846E16821F42011E160C90312D5EE
:10096000A84208D02246411B2846FFF7B5FF10B128
:100970004FF0FF3070BD0020E562C4E90150E0682F
:1009800020F48030E060002070BD10B50446C068DF
:1009900020F02000E060A16AA06988420DD02046C6
:1009A000FFF7D0FFE06820F4405040F01000E06016
:1009B000A06AA0612069E062606044F24001E068E2
:1009C0008843E06010BD000010000200002801D044
:1009D00000F01CB87047000010B5014602A000F0FE
:1009E0005EF8012010BD000053494752545245445F
:1009F0003A2052656469726563743A2063616E27B8
:100A000074206F70656E3A200000000001491820C4
:100A1000ABBEFEE726000200704700210160C0E97E
:100A20000110704710207047034640688C4600282C
:100A300018BF88423CBF03464068F8D31868184482
:100A4000884207D00CF1030020F00700001D411A76
:100A5000521A0146081D0A60FFF7D3BC10B50146C3
:100A6000C268900703D0900607D5886A0AE000F0B4
:100A70005DF801210160881E10BD8B69486818442B
:100A80000B69C01A91F848301BB191F84910401A0F
:100A900010BD1103FCD50028FADD401E10BD70B555
:100AA00005460C460A2000E06D1C00F037F835B111
:100AB00028780028F8D102E0641C00F02FF814B167
:100AC00020780028F8D1BDE870400A2000F026B850
:100AD00010B500F02FF8BDE81040FFF777BF10B554
:100AE000431C02E010F8011B71B18107FAD14FF0ED
:100AF000013202C88C1A8C4314EAC211F9D0C01A10
:100B00000A0603D0C01E10BDC01A10BD0A0401D0D1
:100B1000801E10BD0902FCD0401E10BD08B56946FC
:100B20008DF800000320ABBE08BD000000487047F0
:100B30001C01002010B5012805D0002103A0FFF7FB
:100B4000AEFF012010BD09A1F8E70000534947524C
:100B5000544D454D3A204F7574206F66206865618D
:100B600070206D656D6F7279000000003A20486555
:100B70006170206D656D6F727920636F7272757030
:100B800074656400FEE7000080B58AB024A0FFF71A
:100B90002FFB0A200590002006900121CDE90000DE
:100BA000CDE902000490099040F2DC10CDE9071174
:100BB000C2F20000694600F0DFF838B142F6C670B4
:100BC000C0F60000FFF714FB00F064F842F6F9707D
:100BD000C0F60000FFF70CFB40F2DC10C2F2000090
:100BE00000F0FAFB20B116A0FFF702FB00F052F86C
:100BF00017A0FFF7FDFA40F2DC10C2F2000002215C
:100C000000F04EF820B117A0FFF7F2FA00F042F81A
:100C100043F23200C0F60000FFF7EAFA0AB080BDE6
:100C20002D2D2D2D2D2043414E20546573742042CF
:100C30006F617264202331202D2D2D2D2D0D00008C
:100C400043414E205374617274204661696C0D00FB
:100C500043414E205374617274205375636365730E
:100C6000730D000043414E5F49545F52585F46493F
:100C7000464F305F4D53475F50454E44494E4720E5
:100C8000456E61626C65204661696C0D0000000074
:100C900070470000EFF3108072B600BFFEE700005F
:100CA00090F82020013A012A08D8006800F11402C7
:100CB0000020136819431160704700BF00F124023F
:100CC00001204FF480211368194311607047000020
:100CD00010B590F820E0D0F800C0AEF1010EBEF1E2
:100CE000010FDCF808E011D81EF0E05F18D0CEF359
:100CF000016E012000FA0EF018608B68D3B14868CD
:100D0000CC6844EAC000034318E000BF00F12401AE
:100D100001204FF480220B681A430A6010BD00BF07
:100D200000F1240101204FF400120B681A430A60FD
:100D300010BD00BF0868CB6843EA40530CEB0E10AF
:100D4000C0F880310B69C0F88431097D012905D1D3
:100D500000F5C2710B6843F480730B605168C0F8F2
:100D60008C11126800F5C071C0F8882100200122A2
:100D70000B681A430A6010BDB0B5026890F82030C5
:100D8000013B012B28D8D2F80002012340F00100DA
:100D9000C2F80002D1F814E0CC690EF01F0003FA8B
:100DA00000F0D2F81C326FEA000C8343012CC2F829
:100DB0001C3217D06CBBD2F80C3203EA0C03C2F819
:100DC0000C32CB688C8844EA034302EBCE04C4F8AF
:100DD00040320B4615E000BF416A41F48021416278
:100DE0000120B0BDD2F80C320343C2F80C320B68BC
:100DF0008C8844EA034302EBCE04C4F8403201F18C
:100E00000C038C681B8843EA044302EBCE04C4F84D
:100E10004432D2F804328D6943EA0004D1F810E07C
:100E2000096A002D08BF03EA0C04C2F80442D2F894
:100E30001432BEF1000F43EA000408BF03EA0C04B9
:100E40000129C2F8144204D1D2F81C120843C2F896
:100E50001C02D2F8000220F00100C2F800020020BB
:100E6000B0BD00007047000010B590F82040013C74
:100E7000012C7BD8D0F800C0002900F08180DCF87C
:100E80001040A40700F081800CEB011CDCF8B0419D
:100E90000CF5D87E14F004049460DCF8B04119BF5E
:100EA000E4085460640D1460DEF800400CF5DA7E4E
:100EB00004F00204D460DCF8B44124075ABFDEF821
:100EC000004004F00F0408241461DEF800400029FB
:100ED000C4F307249461DEF800404FEA14445461DF
:100EE000DCF8B8211A70026802EB0112D2F8B821BE
:100EF0004FEA12225A70026802EB0112D2F8B821AE
:100F00004FEA12429A70026802EB0112D2F8B8213D
:100F10004FEA1262DA70026802EB0112D2F8BC21C9
:100F20001A71026802EB0112D2F8BC214FEA1222B8
:100F30005A71026802EB0112D2F8BC214FEA124248
:100F40009A71026802EB0112D2F8BC214FEA1262D8
:100F5000DA71006814BF00F1100100F10C010020EB
:100F600020220B681A430A6010BD00BF00F1240163
:100F700001204FF480220B681A430A6010BD00BFA5
:100F8000DCF80C40A4077FF47FAF00F124010120BE
:100F90004FF400120B681A430A6010BD2DE9F04FA0
:100FA00081B0044600684669D0F804908768D0F89C
:100FB0000CB0D0F810A0D0F81880F10704D10025AB
:100FC00030071DD424E000BFF90710D00121BA0773
:100FD000816009D4780700F1AF80380700F1B6804E
:100FE000204600F027FA02E0204600F025FA00250E
:100FF000F80500F18780F80300F1B180300707D5CC
:101000001BF0100004D0206845F400751021C16069
:10101000700708D51BF0080005D020680821C160C2
:10102000204600F0ABF9B00706D52068C0688007FD
:1010300002D0204600F0A4F9700607D51AF010007F
:1010400004D0206845F4806510210161B00608D500
:101050001AF0080005D0206808210161204600F040
:10106000B5F9F00606D520680069800702D0204651
:1010700000F0AEF9B00308D519F0100005D02068D3
:1010800010214160204600F0A5F9F00308D519F0C1
:10109000080005D0206808214160204600F0D6F9FC
:1010A000300440F19B805FEA497040F1948006F47F
:1010B000807008EA102028435FEA8871014648BF23
:1010C00041F00201B20558BF01465FEA48700D4683
:1010D00048BF45F00405700558BF0D46300540F186
:1010E0007A8018F0700000F076801038000905282A
:1010F0006CD8DFE800F003595D61656945F00805CB
:1011000064E000BF20684FF48071BA0581600BD4A1
:10111000780515D438051DD4204600F08FF9F80362
:101120007FF56CAF1BE000BF204600F089F9F803A3
:101130007FF564AF13E000BF4FF4006558E700BFD0
:1011400005F50055F8037FF559AF08E04FF48055D9
:101150004EE700BF05F58045F8037FF54FAF2068E7
:101160004FF48031BA0381600AD4780310D4380375
:1011700014D4204600F066F930073FF541AF47E749
:10118000204600F061F930073FF53AAF40E700BF75
:1011900005F5004530073FF533AF39E705F58035F4
:1011A00030073FF52DAF33E745F010050EE000BFE7
:1011B00045F020050AE000BF45F0400506E000BF0D
:1011C00045F0800502E000BF45F480752068816924
:1011D00021F07001816120680421416055B1606A8D
:1011E00040EA05012046616201B0BDE8F04FFFF71B
:1011F00039BE00BF01B0BDE8F08F0000B0B5C8B186
:10120000044690F8200010B9204600F071F82068DC
:10121000016841F00101016000F03CFA054600BFA1
:1012200020684168C90707D100F034FA401B0B2839
:10123000F6D312E00120B0BD016821F00201016087
:1012400000F028FA054600BF2068416889070DD5DF
:1012500000F020FA401B0B28F6D3606A052140F409
:1012600000306062012084F82010B0BD217E026849
:10127000012922F0800208BF80320260617E02688C
:10128000012922F0400208BF40320260A17E0268BC
:10129000012922F0200208BF20320260E17E0268AC
:1012A000012922F0100218BF10320260217F02686B
:1012B000012922F0080208BF08320260617F02683B
:1012C000012922F0040208BF04320260D4E901C2FD
:1012D000D4E9033561691A432A431143ACF1010291
:1012E0001143C16100200121606284F82010B0BD6B
:1012F000B0B586B040F60004C4F201040068A4F55D
:10130000244200219042059102D006B0B0BD00BF3A
:1013100041F21800C4F20200426802AD42F00072CD
:101320004260426802F000720192019A026842F043
:1013300004020260006800F00400019001984FF47C
:101340000060CDE9020104912046294600F094F89E
:101350004FF4805002900220039003200590204615
:10136000294600F089F814200021002200F014FA28
:10137000142000F0FDF906B0B0BD00007047000079
:1013800010B582B040F2DC11C2F20001884201D0F7
:1013900002B010BD40F27C14C2F2000440F2DC1036
:1013A00004F12002C2F200006B460021FFF75CFD51
:1013B0000028EDD1606A40F25511884204BF9DF8C3
:1013C000000060700120207002B010BD7047000066
:1013D0007047000070470000B0B5044690F8200048
:1013E00001281DD1022084F820002068016821F026
:1013F0000101016000F04EF9054600BF2068406819
:10140000C00713D000F046F9401B0B28F6D3606AE2
:1014100040F400306062052084F820000120B0BD57
:10142000606A40F4002060620120B0BD002060626C
:10143000B0BD00007047000070470000704700001A
:1014400070470000704700007047000070470000C0
:10145000B0B5044600F01EF9054640F20C00C2F299
:1014600000000078611C18BF044400BF00F012F9AE
:10147000401BA042FAD3B0BD2DE9F04F82B00E68F8
:10148000002E00F0038141F20042C4F20102042365
:1014900040F2004E904208BF03234FF6FF7CC4F297
:1014A000010E009300240123C1F2100C4FF0000A3A
:1014B0004FF0000949E000BF012704F00C030F22A0
:1014C0009A402BEA020207FA03F34FEA9A051A43FD
:1014D00046F82520D1F804B040F20C455FEACB2253
:1014E000DEF8082054BF22EA080242EA0802C4F2E9
:1014F0000105CEF808202A685FEA8B2354BF22EA50
:10150000080242EA08022A605FEA8B33DEF8042010
:1015100054BF22EA080242EA08025FEACB33CEF85F
:101520000420DEF800204FF0010354BF22EA080235
:1015300042EA0802CEF800200E680AF1010A36FAE3
:101540000AF204F1040400F0A18003FA0AF816EA92
:10155000080FF1D04E68664512DC122E56D8DFE82F
:1015600006F0350B45495555555555555555555565
:101570005555554D510000BFD1F80C9046E000BFC5
:101580004FF6FF72C1F2210296420FDC0022C1F237
:10159000110296421AD00022C1F21202964215D0D0
:1015A0000022C1F22102964210D02FE00022C1F2A7
:1015B000220296420AD00022C1F23102964205D0A0
:1015C0000022C1F23202964220D100BF8A684AB19D
:1015D000012A14BFC0F81480C0F810804FF0080929
:1015E00014E000BF4FF0040910E000BFCA6802F128
:1015F00008090BE04FF0000908E000BFCA6802F1DB
:10160000040903E0CA6802F10C0900BF224606463D
:10161000BAF1080F24BF203A043637680F259540E9
:1016200027EA050509FA02F22A433260CA79D2068E
:101630007FF582AF41F21803C4F202031A68AEF5D7
:101640007E7642F001021A601A6802F001020192ED
:10165000019A2AF0030256F802B040F60002C4F2E2
:101660000102904210D040F60042C4F201029042C2
:101670003FF422AF41F20002C4F20102009F904207
:1016800008BF022719E700BF002716E702B0BDE830
:10169000F08F000040F24C20C2F20000006870475A
:1016A00040F20C0040F24C21C2F20000C2F20001F4
:1016B00000780A68104408607047000080B542F264
:1016C0000000C4F20200016841F010010160032033
:1016D00000F08EF80F2000F005F800F027F8002049
:1016E00080BD000070B540F20C06C2F2000640F268
:1016F00018013278C2F200014FF47A730968B3FB23
:10170000F2F20446B1FBF2F1084600F063FB0F2C45
:101710004FF0010508D838B94FF0FF3021460022BC
:10172000002500F039F87460284670BD82B041F29F
:101730001800C4F202000168022241F001010160B8
:10174000016801F0010101910199416841F0805166
:101750004160406800F08050009000980420C4F27E
:101760000100016862F31A61016002B07047000075
:10177000002848BF7047C1B200F01F00012202FAE2
:1017800000F04EF20012CEF2000242EAD10121F046
:10179000030108607047000010B54EF60C5CCEF2F5
:1017A000000CDCF80030C3F3022E8EF00704042C8A
:1017B00028BF0424BEF103034FF0FF3E0EFA04F4E9
:1017C00038BF0023A14399400EFA03F39A43114313
:1017D00000F00F0200F160430901043A03F564438D
:1017E0006244002848BF02F10C03197010BD0000CC
:1017F0004EF60C51CEF200010A684FF6FF031A4074
:1018000060F30A2242F0806040F0FD70086070478B
:101810002DE9F04381B0002800F0858042F20008F5
:10182000C4F202080446D8F800000D4600F0070094
:1018300088420CD2D8F8000020F007002843C8F8EE
:101840000000D8F8000000F00700A8426BD1206823
:1018500041F204098107C4F2020917D5410705D5F1
:10186000D9F8001041F4E061C9F80010010705D56E
:10187000D9F8001041F46051C9F80010D9F80010EF
:10188000A26821F0F0011143C9F80010C00741D14E
:10189000D8F8000000F00700A8420CD9D8F80000E2
:1018A00020F007002843C8F80000D8F8000000F036
:1018B0000700A84237D12068410707D5D9F80010A2
:1018C000E26821F4E0611143C9F80010000708D56F
:1018D000D9F80000216920F4605040EAC100C9F83D
:1018E0000000D9F8002002F00C00082841F2002086
:1018F000C0F27A0050D142F6B673C2F38341C0F60B
:101900000003595CD2033BD440F60010C0F23D0006
:10191000484341E0606802280AD001282AD159F8DA
:10192000041C890308D4012001B0BDE8F08300BF86
:1019300059F8041C8901F6D5D9F8001021F00301EB
:101940000843C9F80000FFF7A5FE064641F28837B4
:10195000D9F80000616800F00C00B0EB810F97D05F
:10196000FFF798FE801BB842F2D9032001B0BDE812
:10197000F08300BF59F8041C8907D4D5DCE700BF09
:10198000D9F8002042F6B473C2F34042C0F6000317
:101990009A5C4843B0FBF2F0D9F8001042F69C7212
:1019A000C1F30311C0F60002515C40F2180220FAA4
:1019B00001F140F21000C2F200000068C2F2000221
:1019C0001160FFF78FFE002001B0BDE8F08300003A
:1019D00040F2180041F20401C2F20000C4F2020118
:1019E0000068096842F6AC72C1F30221C0F6000239
:1019F000515CC8407047000040F2180041F20401F9
:101A0000C2F20000C4F202010068096842F6AC723A
:101A1000C1F3C221C0F60002515CC840704700000B
:101A20002DE9F04182B0002868D00446007841F2E8
:101A30000006C007C4F2020625D0706800F00C0052
:101A400004281BD0706800F00C00082802D17068D0
:101A5000C00313D46068002800F06881B0F5A02F9F
:101A600000F07C81B0F5803F00F07C81306820F48C
:101A700080303060306820F4802076E13068800368
:101A800001D56068D0B32078800718D5706810F051
:101A90000C0F07D0706800F00C0008286ED1706839
:101AA000C0036BD43068800702D52069012825D196
:101AB0003068616920F0F80040EAC10030602078A9
:101AC00000071FD42078400732D4E56995B17068CB
:101AD00000F00C00082840F08F80012D0ED07068B7
:101AE000216A00F480328A4208D1616A00F47010E1
:101AF000884203D1002002B0BDE8F081012002B08D
:101B0000BDE8F081A069002862D00020C4F2422024
:101B10000121C0F88014FFF7BDFD0546706A8007FB
:101B200000F18C80FFF7B6FD401B0228F6D92AE1B0
:101B3000F06910F0805808D1F06940F08050F061F1
:101B4000F06900F080500090009847F20007C4F25E
:101B500000073868C00529D4386840F480703860C0
:101B6000FFF798FD054600BF3868C0051ED4FFF793
:101B700091FD401B6428F7D905E100BF20690028CA
:101B800040F20000C4F2422000F082800121016096
:101B9000FFF780FD054600BF306880073FF588AF3E
:101BA000FFF778FD401B0228F6D9ECE0E06800283A
:101BB00000F08080052800F09780012800F09880D0
:101BC000306A20F001003062306A20F0040092E0B8
:101BD0000020C4F242200021C0F88014FFF75AFD13
:101BE000054600BF706A80077FF56CAFFFF752FDB6
:101BF000401B0228F6D9C6E00027C4F24227002085
:101C00003866FFF747FD022D05460BD1306880018D
:101C100040F1BE80FFF73EFD401B02284FF003005D
:101C2000F4D968E7306880017FF564AFFFF732FDD3
:101C3000401B02284FF00300F4D95CE740F2180083
:101C4000C2F20000006844F6D351C1F26201A0FB69
:101C50000101480A019000BF00BF0198411E002801
:101C600001913FF42FAF00BF0198411E0028019160
:101C70003FF428AF00BF0198411E002801913FF4B6
:101C800021AF00BF0198411E00280191E4D119E75E
:101C900000210160FFF7FEFC054600BF30688007A9
:101CA0007FF50DAFFFF7F6FC401B02284FF0030055
:101CB000F4D920E7306A20F001003062306A20F069
:101CC00004003062FFF7E6FC054641F2883700BFAA
:101CD000306A800720D5FFF7DDFC401BB8424FF08B
:101CE0000300F5D907E700BF306A40F00400306216
:101CF000306A40F001003062FFF7CCFC054641F24B
:101D0000883700BF306A800706D4FFF7C3FC401B4A
:101D1000B842F7D937E000BFB8F1000F7FF4D5AE75
:101D2000F06920F08050F061CFE600BF306820F409
:101D300080303060306820F480203060FFF7AAFCEB
:101D4000054600BF306880037FF59DAEFFF7A2FC1B
:101D5000401B64284FF00300F4D9CCE6306840F40F
:101D600080203060306840F480303060FFF792FCB3
:101D7000054600BF306880033FF585AEFFF78AFC5B
:101D8000401B6428F6D9032002B0BDE8F08100BFF3
:101D9000206AB0F5803F05D17168A26821F4003156
:101DA000114371607168626A21F474111143084330
:101DB000706001203866FFF76DFC044630688001D2
:101DC0003FF598AEFFF766FC001B02284FF00300BA
:101DD000F4D990E6411E0020B0EB116F1CBF01202A
:101DE00070474EF21002CEF2000251604EF62351BF
:101DF000CEF20001F0230B70072190601160704754
:101E0000002804BF0120704710B5044690F8410037
:101E100028B9002084F84000204600F063F8242010
:101E200084F841002068D4E90212C36823F4005307
:101E3000C360036923F440531A430261D4E90423C5
:101E40001143C268194341F20C639A431143C160C4
:101E50004169A26921F44071114343F60002C4F2C2
:101E600001029042416103D0FFF7B2FD02E000BFE2
:101E7000FFF7C2FD6268192148439100B0FBF1F001
:101E800048F21F51C5F2EB11A0FB01235A094FF68E
:101E90009C73C0F6FF7302FB0300322303EB0010B8
:101EA000A0FB0101F02303EA5113206803EB0212A7
:101EB000C1F3431111448160016921F49041016132
:101EC000416921F02A014161C16841F40051C160BA
:101ED00000202021606484F8411084F8421060637F
:101EE00010BD000070B586B040F60004C4F20104D5
:101EF0000068A4F5444100268842049602D006B04A
:101F000070BD00BF41F21800C4F20200416802AD8A
:101F100041F400314160416801F4003101910199BF
:101F2000016841F0040101600068294600F00400E6
:101F30000190019804200290022003900320059054
:101F40002046FFF799FA0820CDE9020620462946E7
:101F50000496FFF791FA06B070BD00002DE9F0433A
:101F600081B0044690F84100202840F0B1808846B6
:101F700000294FF0010000F0D6801646002A00F03C
:101F8000D2800020606421201D4684F84100FFF7C4
:101F900081FBA684E684A1680646B1F5805F03D183
:101FA0002069002800F0988047464FF00008E18C37
:101FB0002068002900F0968005F101090BE000BFC0
:101FC00047B317F8011B4160E18C0139E184E18CD2
:101FD000002900F0878001680906F1D4B9F1000FEB
:101FE0000AD0EDB1FFF756FB801BA84218D8206835
:101FF00001680906F6D5E3E701680906E0D401683F
:1020000009065CBF01685FEA0161D9D4016809066D
:10201000F2D5D5E738F8021B00276FF35F21D2E72E
:10202000206850E8030F216820F4D07041E80302D3
:10203000BAB3206850E8030F216820F4D07041E85B
:10204000030272B3206850E8030F216820F4D070B7
:1020500041E803022AB3206850E8030F216820F406
:10206000D07041E80302002ADAD11AE0206850E873
:10207000050F216820F0010041E80502DAB120686F
:1020800050E8050F216820F0010041E8050292B1F7
:10209000206850E8050F216820F0010041E80502A2
:1020A0004AB1206850E8050F216820F0010041E89E
:1020B0000502002ADAD1202084F8410084F8420089
:1020C000002084F84000032001B0BDE8F08300BF89
:1020D000022001B0BDE8F0830027E18C20680029D0
:1020E0007FF46AAF0168490619D4FDB1691C0DD1AE
:1020F0000168490613D4016849065CBF01685FEABC
:1021000041610CD401684906F2D508E0FFF7C2FA34
:10211000801BA8420AD8206800684006F6D5202017
:1021200084F84100002001B0BDE8F083206850E849
:10213000030F216820F4D07041E80302002A3ED04A
:10214000206850E8030F216820F4D07041E80302B2
:10215000AAB3206850E8030F216820F4D07041E84A
:10216000030262B3206850E8030F216820F4D070A6
:1021700041E80302002AD9D121E000BF206850E8DD
:10218000050F216820F0010041E80502002A3FF414
:1021900092AF206850E8050F216820F0010041E867
:1021A0000502002A3FF487AF206850E8050F216838
:1021B00020F0010041E80502002A3FF47CAF2068CE
:1021C00050E8050F216820F0010041E80502002ACF
:1021D000D4D170E7FEE7000080B540F2DC1046F293
:1021E0000041C2F20000C4F200011222002380E884
:1021F0000E0000F10C014FF4403C4FF4001E81E84A
:10220000085083618383FEF7F9FF002808BF80BD73
:10221000BDE88040FEF73EBD82B041F21800C4F236
:102220000200016841F020010160016801F0200115
:1022300001910199016841F004010160006800F01A
:1022400004000090009802B07047000080B540F292
:10225000042044F20041C2F20000C4F20001002355
:102260004FF00C0C4FF4E13280E80E00C0E903336C
:10227000C0E905C3C361FFF7C3FD002808BF80BDE7
:10228000BDE88040FEF706BDFEE70000FEE7000067
:102290007047000070470000FFF702BA7047000067
:1022A00040F2DC10C2F20000FEF778BEFEE700004C
:1022B0002DE9F04383B040F27C16C2F20006B6F876
:1022C0004E00202101EB40028DF8002044F62062F0
:1022D00002EB4000B6F85230000A8DF8010001EB25
:1022E00043008DF8040002EB4300000A8DF805005E
:1022F00096F8500096F8511096F85420323096F81F
:1023000055308DF8020001F132008DF8030002F122
:1023100032008DF8060003F132008DF807004FF00F
:10232000040840F2122006F10804C6E90308351D2E
:1023300040F2DC1000274FF00809C2F200006A46A4
:1023400021462B46C6E90579FEF7C2FC38B142F6B4
:10235000DF70C0F60000FDF74BFFFEF79BFC43F279
:102360001500C0F60000FDF743FF96F8440096F80C
:1023700045108DF8000001F128008DF80100B6F835
:102380004B00B6F84810ADF8060001EB81004100A3
:10239000C00996F8462096F84A308DF8030040F2BE
:1023A0001320C6E9030840F2DC108DF802208DF8F6
:1023B00005308DF80410C2F200006A4621462B4613
:1023C000C6E90579FEF784FC38B142F6DF70C0F645
:1023D0000000FDF70DFFFEF75DFC43F21500C0F6AF
:1023E0000000FDF705FFD6E90F014FF00408CDE925
:1023F000000140F21120C6E9030840F2DC1000277A
:102400004FF00809C2F200006A4621462B46C6E991
:102410000579FEF75DFC38B142F6DF70C0F60000CA
:10242000FDF7E6FEFEF736FC43F21500C0F60000AD
:10243000FDF7DEFEC820CDE90077FFF709F8B6F812
:10244000560096F85C10ADF80000B06D8DF80610DF
:10245000CDF802004FF40570C6E9030840F2DC1025
:10246000C2F200006A4621462B46C6E90579FEF70E
:102470002FFC38B142F6DF70C0F60000FDF7B8FE61
:10248000FEF708FC43F21500C0F60000FDF7B0FEB1
:1024900003B0BDE8F083000070B540F27C1440F258
:1024A0001405C2F200040220C2F2000584F84B00B9
:1024B0004FF4E1702E78A4F84800B4F84E004FF4C1
:1024C0002051A4F844108EB194F85C20643004329A
:1024D00081B284F85C2041F27C5291424FF00001BD
:1024E000A4F84E0010D141F27C5010E094F85C103A
:1024F0006438043984F85C1001044FF00101A4F839
:102500004E0003D0012606E0002604E00020002E45
:1025100018BF01262970A4F8520080B2800800F08C
:1025200038FB48F21F5241F6B863C5F2EB12C4F211
:10253000090300F041FB02460B4600F0F9F84CF6A7
:10254000FB3244F2C323CCF6EE12C3F6CD7300F097
:1025500033FB4CF6CD424CF6CC43CCF6CC42C4F225
:102560000C0300F029FB0023C4F24E03002200F00C
:1025700087F900F0DFFA84F83C004FF47A706421A8
:102580003246002E18BF00201CBF0021282284F8EC
:102590003D106978A4F84000A4F8420094F8460081
:1025A00084F83E2084F84C6041B10130C1B2592911
:1025B00084F846000AD9002007E000BF0138C1B204
:1025C0000A2984F8460001D801206870A978B4F877
:1025D000560099B1B4F8581010301031A4F85600D4
:1025E000A4F85810B4F85A1080B2000B10310A2821
:1025F000A4F85A1018D9002015E000BF103881B295
:1026000041F288329142B4F85810A4F85600A1F172
:102610001000B4F85A10A4F85800A1F11000A4F862
:102620005A0001D80120A8706078022808D194F8D7
:102630004A000130C1B2053918BF014684F84A107A
:1026400094F83F00053084F83F0042F62800A4F8D3
:102650005000A4F85400BDE87040FFF729BE000008
:1026600080B582B0019040F20420C2F2000001A9BE
:1026700001224FF6FF73FFF771FC019802B080BD95
:1026800090B0FFF71BF800240120CDE90B44CDE901
:10269000094406900A904FF4E0104FF4803102256F
:1026A0000F9006A8CDE90714CDE90D51FFF7B8F951
:1026B00020B1EFF3108072B6FEE700BF0F20CDE926
:1026C00001054FF48060CDE9040401A802210394C0
:1026D000FFF79EF820B1EFF3108072B6FEE700BF5F
:1026E000FFF79AFDFFF778FDFFF7B0FDFEF74CFA14
:1026F00040F27C15C2F2000508A4002604E000BFE9
:102700004FF4C870FEF7A4FEFFF7C6FE2878002835
:10271000F6D02046FDF760FD2E70F1E75265636943
:10272000657665207375636365737321000000002F
:1027300010B591EA030F48BF83F0004300F14283D4
:10274000841A71EB030C05D2121943EB0C03001B26
:1027500061EB0C014FEA1154A4EB135CDFF81CE1B0
:102760001EEA430F18BF9EEA445F00F0748021EA1E
:10277000045123EA0E0343F48013DCF1200E32D31C
:1027800022FA0CFE10EB0E0023FA0CFE41EB0E01B8
:10279000CCF1200E03FA0EFE10EB0E00CCF1200E51
:1027A00051F10001B1F5801F32D201EB045112FA50
:1027B0000EF2BDE8104058BF7047401C38BF5FEABA
:1027C000420218BF7047002814BF20F0010041F1F9
:1027D00000014FEA410313F5001F38BF7047A1F114
:1027E000C04100F0E1BA012A43EB0302ACF1200C36
:1027F000DCF11F0E32BF4FF0000E23FA0CF310EB8A
:10280000030041EB0451B4EB115FD0D0A1EB0451B4
:1028100001F58011490801EB04515FEA30000ED345
:1028200050F1000038BF12FA0EFE08D1BDE810408A
:10283000C9E7401C38BF5FEA4202CAD1C3E7BDE81E
:1028400010404FEA410313F5001F38BF7047A1F154
:10285000C04100F0A9BA9EEA445F08D011EA5E0FB9
:10286000BDE8104004BF01F0004100207047BDE802
:10287000104070B500F04AFA64FBBE3E0000E0FF75
:102880002DE9C04130B4DFF8A4C23CEA111418BFEE
:102890003CEA131400F0ED801CEA111481EA0305F0
:1028A00044EAD57418BF1CEA131500F0C880A4EBE5
:1028B000050404F17F7404F500344FF0004545EA47
:1028C000C12145EAC32341EA505143EA52534FEA3A
:1028D000C0204FEAC222994208BF904200F09D807A
:1028E0004FEA13650FF24416765D4FEA134506FB77
:1028F00005F7C7F1807706FB07F74FEAD737A7FB45
:1029000003687642A7FB06CEC8F5803838BFA8F129
:10291000010807FB08E6A6FB028C4FF0000EE6FB61
:1029200003CEDCF1000CCEF1004E38BFAEF1010E4B
:10293000A6FB0C584FF00007E6FB0E87A1FB08C66C
:10294000A0FB07CE16EB0E064FF0000545F1000583
:10295000E1FB076515F1E04E7EBFA4F580345FEA28
:1029600046066D4116F1800745F100054FEA17272D
:1029700047EA05674FEA15254FEA0666A6F1DE46E7
:10298000B6F1805F20D9384605EBC47124F0010C04
:1029900001EB0C11BCF1FE6F02D8F0BCBDE8008168
:1029A00024425CBF01F5801E9EEAC47F02D4F0BCC5
:1029B000BDE80081244200F13980A1F1C041F0BCA2
:1029C000BDE8004100F0F0B94FEAD02040EA4150A4
:1029D0004FEAD1214FEAD22242EA43524FEAD323AF
:1029E000A7FB028607FB036605FB02661EEA0E0FC5
:1029F00058BFA6EB0056B6EB00564FEA520E4EEA11
:102A0000C37E18EB0E0E56EB530EBCD518EB020826
:102A10005E417F1C55F10005B5E74FF480154FF07E
:102A200000074FF000064FF00008ACE701F1C0418D
:102A300001F000414FF00000F0BCBDE800810CEA5D
:102A4000131511EA0C1F00D00CE013EA0C1F00F064
:102A500026804FF0000081EA030101F00041F0BC44
:102A6000BDE80081F0BCBDE8004181EA030100F04F
:102A70009BB9F0BCBDE8004170B500F047F900BF5C
:102A8000097EFC3E00F007B84FF0000081EA030128
:102A900001F00041704781EA030100F085B9F0BC04
:102AA000BDE8004122494FF000007047FFFDFBF9EF
:102AB000F7F5F4F2F0EEEDEBE9E8E6E4E3E1E0DE71
:102AC000DDDBDAD8D7D5D4D3D1D0CFCDCCCBCAC8E3
:102AD000C7C6C5C4C2C1C0BFBEBDBCBBBAB9B8B70A
:102AE000B6B5B4B3B2B1B0AFAEADACABAAA9A8A8FD
:102AF000A7A6A5A4A3A3A2A1A09F9F9E9D9C9C9BCB
:102B00009A99999897979695959493939291919075
:102B10008F8F8E8E8D8C8C8B8B8A89898888878706
:102B20008685858484838382828181800000FF077B
:102B30000000F87F4FEA41034FEA5353A3F5806347
:102B4000D3F11E03C8BFD3F1210C0CDD4FF00042BE
:102B500042EAC12242EA505232FA03FC8CEAE17C9A
:102B6000ACEBE1707047102BC4BF0020704703F539
:102B7000787CBCF1FF3F04D06FF0004282EA210074
:102B8000704770B500F0C2F8499224800020704769
:102B9000F2E7B0FA80F310FA03F10AD0C3F11D0393
:102BA00003F580634FEA03524FEA415002EBD12113
:102BB00070474FF00000704770B5DFF848C11CEA5D
:102BC000111E1EBF1CEA13159EEA0C0F95EA0C0F8E
:102BD00000F06F8081EA03044EEAD47EAE4421EA1D
:102BE0004C1123EA4C1341F4801143F48013AEF1ED
:102BF0007F7EA1FB024CA0FB0365361955EB0C054B
:102C0000A1FB034C4CF10003A0FB021C16EB0C06CD
:102C1000654153F10003094218BF46F0010613F461
:102C2000007F0BD14FEA03314FEA053041EA1551DD
:102C300040EA165034036FF003020AE04FEAC32162
:102C40004FEAC52041EA555140EA5650F4026FF070
:102C5000020202EB2E4201EB025585EACE710AD048
:102C60005FEA440C18BF24F0004450F1000041F129
:102C7000000120EAD47040F2FE7C624500D270BDB3
:102C8000A84214BF4FF080444FF04044002E08BFCC
:102C90000024BEF1806FA8BFA1F1C041BDE8704023
:102CA00080F2828001F1C04101F000414FF000004C
:102CB00070470CEA13159EEA0C0F18BF95EA0C0F2B
:102CC00006D081EA030E4FF000000EF0004170BD07
:102CD00000F01CF88900013E00F007B800F009B8C8
:102CE0004FEA430C5FEA5C5C08D081EA030100F024
:102CF0005BB84FEA410C5FEA5C5CF6D102494FF0E9
:102D0000000070470000FF070000F87F0EF1020E80
:102D10002EF0030E5EF8046B364205D4012A43EB15
:102D2000030515F5001F12D8012841EB010C1CF515
:102D3000001F0CD80ED14FEAD17C0CEB4C0C0CF1DF
:102D4000020C15F5001F08BF4CEBD37C04E04FF0DC
:102D5000080C01E04FEAD37C0CEB4C0526FA05F693
:102D600006F00706B6F1040C06D20EEB860CBDE8A1
:102D700070404CF0010C6047DFE80CF0090B0202D8
:102D80004FF00041A1F500214FF0000070BD194641
:102D90001046012851EB010418BFD4F5001484BF7C
:102DA000002001F0004170BD0808A0F500114FEAB5
:102DB0003101704710B591EA030F48BF83F000431B
:102DC0003FF5BEAC841A71EB030C07D28CF0004CBB
:102DD000121943EB0C03001B61EB0C014FEA115479
:102DE000A4EB135CDFF8A4E11EEA430F18BF9EEAD0
:102DF000445F00F0B48021EA045123EA6E0352429A
:102E0000C3EB6E0338BF5B1EDCF1200E25D322FA24
:102E10000CFE10EB0E0043FA0CFE41EB0E01CCF160
:102E2000200E03FA0EFE10EB0E00CCF1200E51F135
:102E3000000129D401EB045112FA0EF2BDE8104052
:102E400058BF7047401C1CBFB2F1004F70470028AC
:102E50000CBF491C20F00100704712EB020E43EB3F
:102E6000030218BF4FF0010E4EEA4202ACF1200CF3
:102E7000DCF11E0E56D943FA0CFE10EB0E00CCF11D
:102E80001E0E51F1FF31D5D50EF1010E12FA0EFED4
:102E9000404141EB010101EB445C5FEA5C5C10D90D
:102EA00001EB045110EBDE7038BFBEF1004FBDE8FE
:102EB000104018BF704700280CBF491C20F00100CB
:102EC000704734D24FEAD42C24F4006411F5001179
:102ED0001BD0B1FA81F20B3AA41AA41ED2F120033E
:102EE000914030FA03F31943904001EBCC7101EBB0
:102EF0000451002CBDE81040A8BF704701F1C0414B
:102F000001F000414FF000007047B0FA80F310FA72
:102F100003F102D1BDE810407047E41A173C4805A0
:102F2000C90AE2E701EB0451BDE8104070474910BF
:102F30004FEA300001EB0451BDE8104002E04FF0D1
:102F4000000170474A0008BF0042F8D0B2F5001FE8
:102F500028BF704701F000414FF0000070479EEA23
:102F6000445F07D011EA5E0FBDE8104004BF0021A6
:102F700000207047BDE8104070B5FFF7C7FE00BFE6
:102F800040DFF63E104683F0004170470000E0FF4E
:102F90003A7474003A7474003A74740000000000CB
:102FA00000000000010203040607080900000000F9
:102FB00001020304010202030405060708090A0BC3
:102FC0000C0D0E0F101043414E2046696C74657253
:102FD00020436F6E666967204661696C210D00436E
:102FE000414E2073656E642074657374206461744F
:102FF00061206661696C210D0043414E2046696C79
:1030000074657220436F6E666967205375636365EC
:103010007373210D0043414E2073656E6420746507
:1030200073742064617461207375636365737321C5
:103030000D0043414E5F49545F52585F4649464F29
:10304000305F4D53475F50454E44494E4720456ED3
:1030500061626C6520537563636573730D000000D6
:103060008030000800000020200000002801000837
:10307000A0300008200000203008000044010008B3
:10308000000000000000000000000000010000003F
:1030900010000000010101000024F4000000000005
:04000005080000ED02
:00000001FF
