:020000040800F2
:1000000040080020990100086B1C0008BD1B000877
:10001000691C0008150D00088D1D00080000000077
:100020000000000000000000000000006F1C00083D
:10003000FD0E0008000000006D1C0008711C000887
:10004000B3010008B3010008B3010008B3010008C0
:10005000B3010008B3010008B3010008B3010008B0
:10006000B3010008B3010008B3010008B3010008A0
:10007000B3010008B3010008B3010008B301000890
:10008000B3010008B3010008B3010008B301000880
:10009000B3010008B3010008B3010008B301000870
:1000A000B3010008B3010008B3010008B301000860
:1000B000B3010008B3010008B3010008B301000850
:1000C000B3010008B3010008B3010008B301000840
:1000D000B3010008B3010008B3010008B301000830
:1000E000B3010008B3010008B301000800F002F8F2
:1000F00000F042F80AA090E8000C82448344AAF180
:100100000107DA4501D100F037F8AFF2090EBAE87D
:100110000F0013F0010F18BFFB1A43F0010318473B
:10012000F424000014250000103A24BF78C878C1D8
:10013000FAD8520724BF30C830C144BF04680C60ED
:10014000704700000023002400250026103A28BF35
:1001500078C1FBD8520728BF30C148BF0B60704739
:100160001FB59DE8030000F0A7FB00F099F81FBD44
:1001700010B500F0FEF810BD00F061F91146FFF770
:10018000EFFF01F0FEFE00F065FB03B4FFF7F0FFA8
:1001900003BC00F023FD00000948804709480047E0
:1001A000FEE7FEE7FEE7FEE7FEE7FEE7FEE7FEE727
:1001B000FEE7FEE704480549054A064B7047000084
:1001C000D31C0008ED000008400200204008002079
:1001D00040040020400400200FB4044910B503AAD5
:1001E000029800F02FF810BC5DF814FB34010020D9
:1001F0004FF0000200B5134694469646203922BFC0
:10020000A0E80C50A0E80C50B1F12001BFF4F7AF0A
:10021000090728BFA0E80C5048BF0CC05DF804EBEC
:10022000890028BF40F8042B08BF704748BF20F85A
:10023000022B11F0804F18BF00F8012B7047704758
:1002400070477047074B70B50D467B4400F011F8BE
:100250000446284600F020F810B14FF0FF3070BD82
:10026000204670BD1B1D000001694A1C0261087810
:10027000704700B58FB0CDE90131002105910549E6
:100280007944CDE903101146684600F024F90FB017
:1002900000BD0000E5FFFFFF007B00F0800070471D
:1002A00010B542485421FFF7A3FF41485421FFF7FE
:1002B0009FFF40485421FFF79BFF3F493B483C4A82
:1002C0003F4B08603D490A603A491960531C036579
:1002D000481C1065012008653B48344A39A1784420
:1002E00000F01CFA20B9384878440A3800F0BBFA0C
:1002F00037482F4A35A1784400F010FA20B9344825
:1003000078440A3800F0AFFA32482A4A2FA17844DC
:1003100000F004FA20B92F4878440A3800F0A3FA14
:1003200040232248DC000021224600F0D3F920B10E
:1003300025487844543800F096FA1D482246402358
:10034000002100F0C7F920B121487844543800F06A
:100350008AFA184822461023002100F0BBF9002831
:1003600006D01C487844BDE81040563800F07BBAEF
:1003700010BD104870B5006D20F001040B4800F06E
:1003800043FA0B4800F040FA0A4800F03DFA09E051
:10039000206D20F00105204600F036FA204600F0DE
:1003A00073F82C46002CF3D170BD0000E000002053
:1003B0003401002088010020180000201C000020CB
:1003C00020000020720000002423000077000000BD
:1003D00010230000FC2200000EB5CDE9000100F062
:1003E000DDFB029069460120ABBE0EBD08B5694633
:1003F00000900220ABBE08BD1FB58DE8070069461E
:100400000520ABBE04B010BD1FB58DE80F006946D6
:100410000620ABBEF6E708B5694600900920ABBEE2
:1004200008BD1CB5CDE9000169460A20ABBE1CBD64
:10043000704708B5694600900C20ABBE08BD7546F4
:1004400000F018FAAE4605006946534620F0070052
:10045000854618B020B5FFF7ADFEBDE820404FF04F
:1004600000064FF000074FF000084FF0000B21F09E
:100470000701AC46ACE8C009ACE8C009ACE8C0096B
:10048000ACE8C0098D46704770B50446051F00F002
:10049000F7F90068002C14BF446870BD002C18BF29
:1004A000AC423CBF20466468F8D301680A18AA42EF
:1004B00018BF456003D12A680546114401602868C9
:1004C0004119A1421CBF6C6070BD61686960216800
:1004D0000844286070BD2DE9F04106460024D6E9A5
:1004E0000170F5688046304603E04146B847641C19
:1004F0003046A8470028F8D12046BDE8F0812DE914
:10050000F04705460C46C86820F4201040F48000EF
:10051000C860800602D5084600F0FFFAE06841F2A4
:1005200082014FF0FF390140022903D0204600F03C
:100530009DFAB5E000F42041B1F5004F0FD1C003A2
:1005400006D56168E06A884200D80846606006E027
:100550002069E06260606069FFF76BFFA061A068DE
:100560000022EEB200280DDAE1688B050AD4C04300
:10057000A06041F490302260E0606068411C6160DE
:100580000670A5E0E0689046226040F40050E0600C
:10059000206968BB6069FFF73EFF012704F124056D
:1005A000A0B1A08910F4407F08D0E06900F0B3F951
:1005B000206118B1E06840F4006016E0E761256151
:1005C000E06820F4407040F480600EE0E06900F0E4
:1005D000A2F900282061F1D0E06840F4006010F436
:1005E000407FE06002D140F48070E060206960608C
:1005F000E06825696FF0010AC1051FD56168E06AEE
:10060000884200D80846411B04D02246284600F004
:1006100037FAF0BBE068010203D5E562C4E901588E
:1006200054E0691CE1626160E16940F48030491E78
:10063000C4E9021030462E70BDE8F087010202D5F1
:1006400000F480320AE06068411C61600670E06876
:100650000A2E40F48030E06006D00022E16A606833
:10066000814203D90B4602E00122F7E70346A7893E
:100670005B1B7F0503D4E7699F4200DDE2B1814245
:1006800000D80146E5620F1AC4E90158002B09DDC4
:1006900000E005E022461946284600F0F1F908B1CD
:1006A0004846C9E747B1A069E5626560C01BA06123
:1006B000E06840F01000E060E068000208D5616882
:1006C000A069E562491B08446560A0615046B3E734
:1006D0003046B1E770B5C468A50713D0650211D4E0
:1006E000B2F5807F09D0B2F5007F06D0B2F5806FF9
:1006F00008D1012300F1240106E05D1E6FF07F4662
:10070000B54201D3012070BD0161C361416024F491
:1007100070611143C160002070BD00002DE9F041FF
:100720000C4607461646104600F06EF82078611C0D
:1007300061280AD0722802D077283CD102E0012536
:10074000002405E00225042402E0082448F2020502
:1007500011F8010B2B2806D0622809D011F8010CE2
:1007600074280AD00BE045F0030544F00204EFE7DB
:1007700045F0040544F00104EAE744F0100438466B
:100780002146FFF729FE411C15D00021316171601F
:100790004FF40071F560F1617061200704D53046B7
:1007A0000222002100F0E6F8306D40F001003065D3
:1007B0003046BDE8F0810020FBE72DE9F0410D4611
:1007C0000646104C206DC10704D0410804D020F02B
:1007D0000104F7E722460EE0542000F09CF80700E1
:1007E0000ED0206D47F001010843542120653846A2
:1007F000FFF7FEFC3A4629463046BDE8F0418DE75A
:100800000020D6E7E00000202DE9F04704464FF035
:1008100000094FF0FF37C568D4E90486A80707D060
:10082000204600F057F93046FFF7E0FD002802DAD5
:100830003846BDE8F087280502D54046FFF724FE7C
:100840004C212046FFF7D4FC206D20F001002065EC
:100850004846EEE710B50446AFF300802046BDE8F9
:100860001040FFF792BC10B500F07EF9BDE81040D3
:1008700000F074B900487047DC01002070470000A8
:1008800000487047E4010020704770477047704788
:1008900038B504460A4600206946AFF300800028B8
:1008A00008BF38BD02460099204600F0A4F9012097
:1008B00038BD012000F0F3B9F8B5AFF3008005466C
:1008C00000200C46102000BF0646A819A0420DD9F2
:1008D000324669460020AFF30080070008BF00F0F1
:1008E000DEF90098A04218BF0546C419FFF7C8FFFB
:1008F00005600746F01D20F007004619284600F065
:1009000073F9B44208BFF8BDA21B31463868BDE890
:10091000F84000F070B970B50646FFF7B1FF056802
:1009200006F10B0020F00704B4429CBF002070BD0C
:100930002B466A68BAB11068A04210D304F10801CE
:1009400088423CBF5068586007D351681019416015
:100950001168091B016058601460101D70BD1346BA
:100960005268002AE7D121462846FFF791FF002868
:10097000DED170BD2DE9F041044616460D464769AB
:10098000007B80072ED03846FFF745FD50BB3EB3B5
:10099000012E02D0022E25D104E0204600F045F9B8
:1009A00005441DE03846FFF744FDE168002841F0AA
:1009B0001001E16005DA204600F058F80120BDE89A
:1009C000F081C9030BD56268E16A914200D81146F3
:1009D000A26911442269891A814200DD0846054452
:1009E000002D01DA0220EAE7E16A6068E2688142EC
:1009F00006D29103E06203D522F4003141F01002E7
:100A0000A6690027AE4213DCE16A814201D90B4698
:100A100000E0034603EB060C2369ACEB030CAC458A
:100A200006DD814201D98C4600E084469C4505D113
:100A3000A760276042F02000A5620DE0AD1BE669CB
:100A4000AE1B8142A66000D90846C01A281A206051
:100A50005819606022F0200003490840E06000203F
:100A600084F84870ABE70000BFCFD7FFC16821F41E
:100A7000001141F08001C160002181600160704778
:100A80002DE9F047814614460E464FF0FF383248B4
:100A9000D5685769054209D03846A169FFF7C1FCFE
:100AA000002811DB2C48C0430540E5602B46324648
:100AB00049463846FFF7A0FCA16920F00042B21A6F
:100AC00011440028A16103D02046FFF7CFFF404624
:100AD000BDE8F08770B504460569C06A6168884260
:100AE00000D80846E16821F42011E160C90312D55D
:100AF000A84208D02246411B2846FFF7C1FF10B18B
:100B00004FF0FF3070BD0020E562C4E90150E0689D
:100B100020F48030E060002070BD10B50446C0684D
:100B200020F02000E060A16AA06988420DD0204634
:100B3000FFF7D0FFE06820F4405040F01000E06084
:100B4000A06AA0612069E062606044F24001E06850
:100B50008843E06010BD000010000200002801D0B2
:100B600000F03CB87047000010B5014602A000F04C
:100B70007DF8012010BD00005349475254524544AE
:100B80003A2052656469726563743A2063616E2726
:100B900074206F70656E3A200000000010B5431C91
:100BA00002E010F8011B71B18107FAD14FF0013258
:100BB00002C88C1A8C4314EAC211F9D0C01A0A0672
:100BC00003D0C01E10BDC01A10BD0A0401D0801E83
:100BD00010BD0902FCD0401E10BD000001491820C4
:100BE000ABBEFEE72600020000210160C0E9011053
:100BF000704710207047034640688C46002818BF95
:100C000088423CBF03464068F8D3186818448842BD
:100C100007D00CF1030020F00700001D411A521A02
:100C20000146081D0A60FFF72FBC10B50146C268D7
:100C3000900703D0900607D5886A0AE000F03EF8D6
:100C400001210160881E10BD8B69486818440B693A
:100C5000C01A91F848301BB191F84910401A10BDE4
:100C60001103FCD50028FADD401E10BD70B5054605
:100C70000C460A2000E06D1C00F018F835B1287809
:100C80000028F8D102E0641C00F010F814B12078BC
:100C90000028F8D1BDE870400A2000F007B810B570
:100CA00000F010F8BDE81040FFF758BF08B56946DE
:100CB0008DF800000320ABBE08BD0000004870475F
:100CC000DC01002010B5012805D0002103A0FFF7AA
:100CD000CDFF012010BD09A1F8E70000534947529C
:100CE000544D454D3A204F7574206F6620686561FC
:100CF00070206D656D6F7279000000003A204865C4
:100D00006170206D656D6F727920636F727275709E
:100D100074656400FEE700000C4B10B50422C3E9C3
:100D200001020020D860082018610A46084B0749D4
:100D3000084800F0F8F820B107A0FFF74DFA00F0DE
:100D4000DEF8BDE810400BA0FFF746BA9400002083
:100D5000140000202400002043414E2073656E647F
:100D600020746573742064617461206661696C210C
:100D70000D0A000043414E2073656E642074657354
:100D80007420646174612073756363657373210DEE
:100D90000A00000000B58BB00020012103900490F0
:100DA000CDE90601CDE90810059000900190029070
:100DB0006946074800F020F920B106A0FFF70CFAB9
:100DC00000F09DF80AA0FFF707FA0BB000BD000085
:100DD0002400002043414E2046696C746572204314
:100DE0006F6E666967204661696C210D0A0000001C
:100DF00043414E2046696C74657220436F6E66698C
:100E0000672053756363657373210D0A000000004A
:100E100010B510A0FFF7E0F9FFF7BCFF154800F090
:100E200025FA20B114A0FFF7D7F900F068F817A051
:100E3000FFF7D2F902210F4800F063F820B118A0A3
:100E4000FFF7CAF900F05BF8BDE810401FA0FFF7FC
:100E5000C3B900002D2D2D2D2D2043414E2054656A
:100E6000737420426F617264202331202D2D2D2D4B
:100E70002D0D0A002400002043414E20537461725E
:100E800074204661696C0D0A0000000043414E2049
:100E9000537461727420537563636573730D0A0034
:100EA00043414E5F49545F52585F4649464F305F59
:100EB0004D53475F50454E44494E4720456E616251
:100EC0006C65204661696C0D0A00000043414E5F6D
:100ED00049545F52585F4649464F305F4D53475F14
:100EE00050454E44494E4720456E61626C65205323
:100EF0007563636573730D0A00000000704772B676
:100F0000FEE790F82020012A07D0022A05D0416A86
:100F100041F48021416201207047006842690A4320
:100F2000426100207047F0B590F820500468A46832
:100F3000012D05D0022D03D0416A41F4802157E0F4
:100F400014F0406F01D1E5004FD5C4F301640125D1
:100F5000A5401D608D684FF4C0739DB1CE683543C8
:100F60004E6845EAC605066803EB0417F5514FF4D1
:100F7000C275076805EB04150E697E51097D0129CC
:100F800005D009E00E88CD6845EA4655EBE70168D3
:100F90004E5946F480764E511179D579567941EA09
:100FA000056195792D0445EA062529434FF4C67657
:100FB000056806EB0416A9511178D57841EA056158
:100FC000957852782D0445EA022211434FF4C475F6
:100FD000026805EB04155151006803EB04114258F7
:100FE00042F0010242500020F0BD416A41F400117C
:100FF00041620120F0BD000010B590F82030026879
:10100000012B07D0022B05D0416A41F480214162B7
:10101000012010BDD2F8000240F00100C2F8000229
:10102000087D00F01F0301209840D2F81C32834352
:10103000C2F81C32CB69B3B9D2F80C328343C2F880
:101040000C328C894B6864F31F434C6902EBC40477
:10105000C4F840320C890B6864F31F434C6902EBFF
:10106000C404C4F84432CB69012B16D1D2F80C3237
:101070000343C2F80C320C884B6864F31F434C697D
:1010800002EBC404C4F840320C89CB6864F31F43FC
:101090004C6902EBC404C4F844328B69002BD2F8CB
:1010A00004320FD053EA0003C2F804320B69002B5C
:1010B000D2F8143208D00343C2F81432096A012965
:1010C00004D008E08343EFE78343F5E7D2F81C122E
:1010D0000143C2F81C12D2F8000220F00100C2F84D
:1010E0000002002010BD70B5040003D094F8200069
:1010F00010B104E0012070BD204600F081F82068A6
:10110000016841F00101016000F0DEF905460526A5
:1011100004E000F0D9F9401B0A2811D82068406883
:10112000C007F6D02068016821F00201016000F0DC
:10113000CBF905460BE000F0C7F9401B0A2806D999
:10114000606A40F40030606284F82060D2E7206872
:1011500040688007EFD4207E0128206801683DD0D8
:1011600021F080010160607E01282068016838D08C
:1011700021F040010160A07E01282068016833D081
:1011800021F020010160E07E0128206801682ED056
:1011900041F010010160207F01282068016829D0FA
:1011A00021F008010160607F01282068016824D0D7
:1011B00021F004010160D4E902010843D4E90412DA
:1011C000114308436168491E08432168C861002033
:1011D0006062012084F82000002070BD41F0800191
:1011E000C0E741F04001C5E741F02001CAE721F026
:1011F0001001CFE741F00801D4E741F00401D9E73D
:1012000010B586B000210091019102910391006810
:101210001349884222D11348C16941F00071C1616C
:10122000C16901F000710491816941F0040181619B
:1012300080690D4C00F0040004904FF400600090B1
:101240006946204600F050F8A0140090022001905A
:10125000032003906946204600F046F806B010BD12
:1012600000640040001002400008014070B50446D0
:1012700090F82000012804D0606A40F400206062E9
:1012800018E0022084F820002068016821F00101A4
:10129000016000F019F905460EE000BF00F014F9F6
:1012A000401B0A2808D9606A40F4003060620520BB
:1012B00084F82000012070BD20684068C007EDD18F
:1012C000606270BD70B5044600F0FEF80546601C13
:1012D00002D004480078044400F0F6F8401BA04215
:1012E000FAD370BD000000202DE9F84FDFF8B89167
:1012F0000024A9F1040B23460F2709F1040AABF1DE
:10130000040EC9E00125A5402A40AA427DD1674EBE
:10131000D1F804C0ACEB0608B44532D014DCBCF103
:10132000030F3AD009DCBCF1000F2AD0BCF1010F49
:101330001CD0BCF1020F31D11DE0BCF1110F17D050
:10134000BCF1120F2AD119E0B8F5881F19D006DCBC
:10135000B8F5803F15D0B8F5801F1FD111E0B8F562
:10136000001F0ED0B8F5041F18D10AE0CB6815E0B5
:10137000CB681B1D12E0CB6808330FE0CB680C3341
:101380000CE08B682BB1012B4FF0080303D04561B3
:1013900004E0042302E0056100E00023FF2A01D8F5
:1013A000064601E000F104064FEA840501D9A5F1E3
:1013B0002005D6F8008007FA05FC28EA0C0803FA95
:1013C00005F548EA0508C6F800804D68ED0062D5CD
:1013D000374DAE6946F00106AE61AD6924F00306F3
:1013E00005F001050095334D06EB050CDCF80850BF
:1013F000A607360F07FA06F825EA0805DFF8B880D1
:10140000404503D14FF0000817E044E0DFF8AC801E
:10141000404502D14FF001080FE0DFF8A4804045BD
:1014200002D14FF0020808E0DFF89880404502D171
:101430004FF0030801E04FF0040808FA06F848EA04
:101440000508CCF808804D68D9F80060ED024D46DB
:1014500001D5164300E096432E604D68DAF800602F
:10146000AD02554601D5164300E096432E604D6807
:10147000DBF80060AD035D4601D5164300E09643FE
:101480002E604D68DEF80060ED03754601D5164309
:1014900000E096432E60641C0D682A46E5407FF408
:1014A00031AFBDE8F88F00000804014000001110C2
:1014B000001002400000014000080140000C014003
:1014C000001001400014014001488068704700008E
:1014D0000000002002488168027811448160704752
:1014E00000000020074810B5016841F010010160BC
:1014F000032000F067F80F2000F006F800F024F851
:10150000002010BD0020024070B50D4D04464FF480
:101510007A712878B1FBF0F00A490968B1FBF0F064
:1015200000F0CEFA48B9102C07D200222146501EF6
:1015300000F028F800206C6070BD012070BD000034
:10154000000000200C0000200C4808B5816941F023
:1015500001018161816901F001010091C16941F0DE
:101560008051C161C06900F080500090044841681A
:1015700021F0E06141F00071416008BD00100240BF
:1015800000000140F0B40E4B1B680C46C3F302236D
:10159000C3F10705042D00D90425191D072901D21F
:1015A000002300E0DB1E012606FA05F1491E21405A
:1015B00099409E40761E16403143F0BC00F0E7BBD8
:1015C0000CED00E0064900F0070208684FF6FF0343
:1015D000184040EA0220034A1043086070470000A8
:1015E0000CED00E00000FA052DE9F0470F4605007C
:1015F00061D0434E306800F00700B84209D230682D
:1016000020F0070038433060306800F00700B8422F
:1016100051D128683B4C810712D5400703D560683B
:1016200040F4E06060602878000703D5606840F40B
:10163000605060606068A96820F0F0000843606056
:101640002878C00728D06868012810D021680228AF
:1016500010D0890700292EDA616821F003010143C7
:101660006160FFF731FF804641F288390DE0216863
:101670008903EFE78901EDE7FFF726FFA0EB0801FB
:10168000494502D90320BDE8F0876068696800F029
:101690000C00B0EB810FEFD1306800F00700B842CA
:1016A0000BD9306820F0070038433060306800F014
:1016B0000700B84201D00120E5E72878400705D5AA
:1016C0006068E96820F4E0600843606028780007FB
:1016D00006D56068296920F4605040EAC100606066
:1016E00000F038F86168084AC1F30311515CC84042
:1016F0000649086006480068FFF706FF0020C2E7B9
:101700000020024000100240EE2500080C000020DE
:10171000040000200448054900684968044AC1F3F0
:101720000221515CC84070470C00002000100240AC
:10173000FE2500080448054900684968044AC1F3C9
:10174000C221515CC84070470C00002000100240CC
:10175000FE2500080E4A51680E4801F00C03042BC8
:1017600011D0082B0FD10C48C1F38343C903C05CCF
:101770000AD55168084AC1F34041921E515C054A9E
:101780005043B0FBF1F070470449484370470000F4
:101790000010024000127A00DE25000800093D001A
:1017A0002DE9F84F040070D02078C04DC00749D013
:1017B0006868C0F38100012807D06868C0F3810021
:1017C000022809D16868C00306D52868800339D586
:1017D00060680028E7D035E06068B0F5803F0BD046
:1017E00010B1B0F5A02F11D0286820F48030286007
:1017F000286820F4802002E0286840F480302860C7
:10180000606890B1FFF760FE06460AE0286840F481
:1018100080202860F0E700BFFFF756FE801B642899
:1018200073D828688003F7D50CE0FFF74DFE064615
:1018300005E000BFFFF748FE801B6428F0D8286849
:101840008003F7D420789A4E80074FF001094FF0BB
:10185000000839D5686810F00C0F07D06868C0F32D
:101860008100022809D16868C00306D4286880076F
:1018700014D52069012808D110E02069B0B1C6F85C
:101880000090FFF721FE074605E00AE1FFF71CFE86
:10189000C01B0228C4D828688007F7D5286861696A
:1018A00020F0F80040EAC10028600DE0C6F8008092
:1018B000FFF70AFE074604E0FFF706FEC01B0228FA
:1018C00023D828688007F7D4207800072CD57948DA
:1018D000A169D9B1C0F80090FFF7F6FD074604E012
:1018E000FFF7F2FDC01B02280FD8686A8007F7D502
:1018F00071484FF4FA510068B0FBF1F0009000BF5E
:101900000098411E0091FAD20EE080E0C0F80080FD
:10191000FFF7DAFD074604E0FFF7D6FDC01B0228FB
:1019200075D8686A8007F7D42078400760D5E869E1
:101930000027C00008D4E86940F08050E861E869F9
:10194000012700F0805000905C480168C90513D45D
:101950000168834641F480710160FFF7B5FD82465E
:1019600006E000BFFFF7B0FDA0EB0A0064284ED8E8
:10197000DBF80000C005F5D5E06801280AD008B101
:10198000052813D0286A20F001002862286A20F078
:10199000040002E0286A40F001002862E06841F299
:1019A000883B98B1FFF790FD82460BE0286A40F033
:1019B00004002862EEE700BFFFF786FDA0EB0A01F6
:1019C00059455AD8286A8007F6D50CE0FFF77CFD08
:1019D000824605E0FFF778FDA0EB0A0159454CD897
:1019E000286A8007F6D41FB1E86920F08050E861CA
:1019F000E06988B36968C1F38101022944D00228F3
:101A0000C6F8608004D0FFF75FFD044638E034E09C
:101A1000FFF75AFD074604E0FFF756FDC01B0228FA
:101A20002BD828688001F7D4206AB0F5803F05D113
:101A30006868A16820F4003008436860D4E90801B0
:101A40000843696821F4741108436860C6F860901F
:101A5000FFF73AFD044606E025E000BFFFF734FD3E
:101A6000001B022809D828688001F7D51BE000BFB9
:101A7000FFF72AFD001B022802D90320BDE8F88FDA
:101A800028688001F4D40EE00128F7D06868226A43
:101A900000F48031914204D1616A00F470108842F0
:101AA00001D00120EAE70020E8E700000010024032
:101AB00000004242800442420C00002000700040BE
:101AC00010B5401EB0F1807F01D3012010BD4FF052
:101AD000E02460610F21601700F059F90020A06137
:101AE00007202061002010BD70B5040004D094F8D8
:101AF0004100002510B106E0012070BD84F840507F
:101B0000204600F023F8242084F841002068C168B2
:101B100021F40051C160204600F0DCF82068016922
:101B200021F4904101612068416921F02A0141615D
:101B30002068C16841F40051C1606564202084F8C8
:101B4000410084F842006563002070BD30B585B067
:101B5000002400940194029403940068144988427C
:101B600023D11448C16941F40031C161C16901F454
:101B700000310491816941F00401816180690E4D59
:101B800000F0040004900420009002200190032043
:101B9000039069462846FFF7A7FB0820CDE900041B
:101BA000694628460294FFF79FFB05B030BD000050
:101BB000004400400010024000080140FEE7000021
:101BC0000F4810B50D4901601221416000214FF40A
:101BD00040328160C0E903124FF400124261017685
:101BE00041768176C17601774177FFF77CFA00284C
:101BF00003D0BDE81040FFF782B910BD006400407B
:101C000024000020094808B5816941F02001816164
:101C1000816901F020010091816941F00401816135
:101C2000806900F00400009008BD00000010024030
:101C30000C4810B50A4901604FF4E13141600021C0
:101C400081600C22C160C0E904128161C161FFF7AB
:101C50004BFF002803D0BDE81040FFF750B910BD7E
:101C6000004400404C000020FEE7FEE7704770474C
:101C7000FFF730BC30B58FB028216846FEF7B8FAC0
:101C800014210AA8FEF7B4FA01210804CDE90010D6
:101C90000024029402250491CDE907504FF4E0108E
:101CA00009906846FFF77CFD08B172B6FEE70F2089
:101CB000CDE90A054FF48060CDE90C4002210AA865
:101CC0000E94FFF791FC002801D072B6FEE70FB02A
:101CD00030BD704770B5044600680169E26821F4C0
:101CE0004051114301612169A068084361690843BB
:101CF0002168CA6841F20C639A430243CA602068B3
:101D00004169A26921F44071114341611E49206873
:101D1000884202D1FFF70EFD01E0FFF7FBFC00EB6C
:101D2000C00101EB0012606864218000B2FBF0F397
:101D3000B3FBF1F36FF018067343B2FBF0F5B2FB9F
:101D4000F0F605EB8305322303EB0515B5FBF1F542
:101D5000B6FBF1F605F0F00505EB0615B2FBF0F663
:101D6000B2FBF0F0B0FBF1F06FF01802504306EB5D
:101D7000800003EB0010B0FBF1F0216800F00F00D1
:101D80002844886070BD000000380140FEE7090764
:101D9000090E002804DB00F1E02080F800147047F1
:101DA00000F00F0000F1E02080F8141D70470000E3
:101DB0007CB5364C42F21070218A4A0002EB400298
:101DC00001448DF80020C9098DF80110A18A4A004C
:101DD00002EB400208448DF80420C0098DF805008C
:101DE000A07C694632308DF80200E07C32308DF8FC
:101DF0000300A07D32308DF80600E07D32308DF892
:101E0000070040F21220FEF787FF0025009501959C
:101E1000207A8DF80000607A694628308DF801003C
:101E2000A07A8DF80200A07B8DF80500E07B8DF88C
:101E30000600A08900EB800040008DF80400000A35
:101E40008DF8030040F21320FEF766FF0095019520
:101E500020788DF8000060788DF80100A0788DF86A
:101E60000200E0788DF80300A0888DF80400000AD5
:101E70008DF80500E0888DF80600000A8DF807004F
:101E8000694640F21120FEF747FF7CBDC8000020E4
:101E90002DE9F0412B4C02202826A073E0736672D6
:101EA0004FF0640884F80A804FF4E170A0810025A7
:101EB000254F257220463978008A41B1643080B2BE
:101EC000A0F5A85120827C3908D13D7006E0643825
:101ED0000004000C208201D101203870208AA082E9
:101EE000800800F0F2F9194A194B00F001FA0122BA
:101EF00000F02EFB174A184B00F0FAF9174A184B5E
:101F000000F0F6F90022174B00F058F800F0AEF997
:101F10002070387838B14FF47A70A080E08084F86F
:101F20000180A57003E0A580E5806570A670E0786B
:101F3000401DE070A674E674A675E675BDE8F04134
:101F4000FFF736BFC8000020100000201F85EB51AE
:101F5000B81E0940FBCBEEC9C342CD3FCDCCCCCCA3
:101F6000CCCC0C4000004E408A68002A01DCFEF711
:101F7000C6BA521E8A604A68C0B2531C4B601070C9
:101F80007047FFF7AFFAFFF775FEFFF73BFEFFF76D
:101F900017FEFFF74DFEFEF73BFF4FF4FA74FFF715
:101FA00077FF2046FFF78EF9F9E7000002494FF06E
:101FB000000000F09BBA00BF0000F87F2DE9C0418F
:101FC00030B4DFF8A0C23CEA111418BF3CEA131485
:101FD00000F0EC8081EA03051CEA111444EAD57490
:101FE00018BF1CEA131500F0C780A4EB05044FF0DE
:101FF000004545EAC12145EAC32341EA505143EA7D
:10200000525304F17F74994204F500344FEAC02022
:102010004FEAC22208BF904200F09C804FEA13654D
:102020000FF24016765D4FEA134506FB05F7C7F140
:10203000807706FB07F74FEAD737A7FB036876429E
:10204000C8F58038A7FB06CE38BFA8F1010807FB0A
:1020500008E64FF0000EA6FB028CE6FB03CEDCF197
:10206000000CCEF1004E38BFAEF1010EA6FB0C58AD
:102070004FF000074FF00005E6FB0E87A1FB08C6F6
:10208000A0FB07CE16EB0E0645F10005E1FB076548
:1020900015F1E04E7EBFA4F580345FEA46066D413F
:1020A00016F1800745F100054FEA17274FEA06664B
:1020B00047EA0567A6F1DE46B6F1805F4FEA1525CF
:1020C0001FD9384624F0010C05EBC471BCF1FE6F3A
:1020D00001EB0C1102D8F0BCBDE8008124425CBFCA
:1020E00001F5801E9EEAC47F02D4F0BCBDE80081E9
:1020F000244238D4F0BCA1F1C041BDE8004100F059
:10210000EFB94FEAD22242EA43524FEAD323A7FB68
:1021100002864FEAD02040EA415007FB03661EEAE0
:102120000E0F4FEAD12105FB026658BFA6EB005601
:10213000B6EB00564FEA520E4EEAC37E18EB0E0E77
:1021400056EB530EBDD518EB02085E417F1C55F1CE
:102150000005B6E74FF480154FF000074FF000067A
:102160004FF00008ADE7F0BC4FF0000001F1C041B6
:1021700001F00041BDE8008111EA0C1F0CEA1315C3
:1021800000D00CE013EA0C1F00F025804FF0000097
:10219000F0BC81EA030101F00041BDE80081F0BC20
:1021A000BDE8004181EA030100F09AB9F0BCBDE846
:1021B000004170B500F046F9097EFC3E00F007B81A
:1021C00081EA03014FF0000001F00041704781EA0D
:1021D000030100F085B9F0BCBDE800414FF00000FC
:1021E00021497047FFFDFBF9F7F5F4F2F0EEEDEB56
:1021F000E9E8E6E4E3E1E0DEDDDBDAD8D7D5D4D305
:10220000D1D0CFCDCCCBCAC8C7C6C5C4C2C1C0BF50
:10221000BEBDBCBBBAB9B8B7B6B5B4B3B2B1B0AF56
:10222000AEADACABAAA9A8A8A7A6A5A4A3A3A2A13A
:10223000A09F9F9E9D9C9C9B9A99999897979695F5
:1022400095949393929191908F8F8E8E8D8C8C8B91
:102250008B8A898988888787868585848483838219
:10226000828181800000FF070000F87F4FEA410370
:102270004FEA5353A3F58063D3F11E03C8BFD3F1D4
:10228000210C0CDD4FF0004242EAC12242EA5052DA
:1022900032FA03FC8CEAE17CACEBE1707047102B66
:1022A000C4BF0020704703F5787CBCF1FF3F04D029
:1022B0006FF0004282EA2100704770B500F0C2F86A
:1022C0004992248000207047F2E7B0FA80F310FAB8
:1022D00003F10AD0C3F11D0303F580634FEA4150B7
:1022E0004FEA035202EBD12170474FF000007047D4
:1022F000DFF848C170B51CEA111E1EBF1CEA131599
:102300009EEA0C0F95EA0C0F00F06F8081EA03043F
:1023100023EA4C134EEAD47E21EA4C1141F4801199
:1023200043F48013AE44A1FB024CA0FB0365AEF165
:102330007F7E361955EB0C05A1FB034C4CF10003D5
:10234000A0FB021C16EB0C06654153F10003094289
:1023500018BF46F0010613F4007F0BD14FEA03319A
:102360004FEA0530340341EA155140EA16506FF048
:1023700003020AE04FEAC3214FEAC520F40241EA12
:10238000555140EA56506FF0020202EB2E4201EB2B
:10239000025585EACE710AD05FEA440C18BF24F0DA
:1023A000004450F1000041F1000120EAD47040F2F5
:1023B000FE7C624500D270BDA84214BF4FF080443D
:1023C0004FF04044002E08BF0024BEF1806FA8BF2C
:1023D000A1F1C041BDE8704080F282804FF0000062
:1023E00001F1C04101F0004170479EEA0C0F0CEA78
:1023F000131518BF95EA0C0F06D04FF0000081EAC4
:10240000030E0EF0004170BD00F01CF88900013E83
:1024100000F007B800F009B84FEA430C5FEA5C5CD3
:1024200008D081EA030100F05BB84FEA410C5FEA93
:102430005C5CF6D14FF00000014970470000FF07D7
:102440000000F87F0EF1020E2EF0030E5EF8046B12
:10245000364205D4012A43EB030515F5001F12D8B7
:10246000012841EB010C1CF5001F0CD80ED14FEADE
:10247000D17C15F5001F0CEB4C0C0CF1020C08BFC5
:102480004CEBD37C04E04FF0080C01E04FEAD37C26
:102490000CEB4C0526FA05F606F00706B6F1040C1F
:1024A00006D20EEB860CBDE870404CF0010C604784
:1024B000DFE80CF0090B02024FF000414FF0000082
:1024C000A1F5002170BD19461046012851EB010409
:1024D00018BFD4F5001484BF002001F0004170BD86
:1024E0000808A0F500114FEA310170470CF00F0306
:1024F000092B08BF082000F059800A2B0BD0082BAD
:1025000018BF704708BF1CF0400F0AD04FF0000002
:102510004FF0000170471CF0400F18BF4FF0004013
:1025200070471CF0100F08D020F0704300F07F427D
:1025300042EAD3014FEA4370704700F0604021F057
:102540007F4242EA000201F07F4040EA7270704729
:102550004FF0FF0C4CF4E06C1CEA11531CBF9CEADA
:10256000030C9445C2BFDA4201EB02517047002BC5
:102570000DD0BCF1000F0FD0002A01F00041A4BF24
:1025800041F0E04141F07F614FF00000704701F001
:1025900000414FF00000704750EA01334FF09B0CB0
:1025A00018BF4CF0806C7FF401AD70471CF4801FA5
:1025B00011D01CF4E02F03D06FEACC3149007047F2
:1025C0004FF04050EFF3008222F0704242EA0002E6
:1025D00082F3008870474FF0000070470102020349
:1025E0000405060708090A0B0C0D0E0F1010000059
:1025F00000000000000001020304060708090000B3
:102600000000010203043A7474003A7474003A74CE
:1026100074000000342600080000002024000000A0
:102620002801000858260008240000201C0800008B
:10263000440100080100000010000000000000003C
:102640000024F40001000000000000000000000071
:08265000000000000000000082
:04000005080000ED02
:00000001FF
