:020000040800F2
:100000005850022085020008F73C0008AD36000871
:10001000F53C0008CD0900088944000800000000F4
:10002000000000000000000000000000C501000802
:100030004D0A000800000000210200087D3D000874
:100040009F0200089F0200089F0200089F0200080C
:100050009F0200089F0200089F0200089F020008FC
:100060009F0200089F0200089F0200089F020008EC
:100070009F0200089F0200089F0200089F020008DC
:100080009F0200089F0200089F0200089F020008CC
:100090009F0200089F0200089F0200089F020008BC
:1000A000B53E0008C13E00089F0200089F020008FC
:1000B0009F0200089F0200089F0200089F0200089C
:1000C0009F0200089F0200089F0200089F0200088C
:1000D0009F0200089F0200089F0200087D4400085C
:1000E0009F0200089F0200089F0200089F0200086C
:1000F0009F0200089F0200089F0200089F0200085C
:100100009F0200089F0200089F0200089F0200084B
:100110009F0200089F0200089F0200089F0200083B
:100120009F0200089F0200089F0200089F0200082B
:100130009F0200089F0200089F0200089F0200081B
:10014000D10900089F0200089F0200089F020008D2
:100150009F0200089F0200089F0200089F020008FB
:100160009F0200089F0200089F0200089F020008EB
:100170009F0200089F0200089F0200080000000084
:100180009F0200089F0200089F0200089F020008CB
:100190009F0200089F0200089F0200089F020008BB
:1001A0009F0200089F0200089F020008DFF810D09D
:1001B00000F00EFB00480047FD250208AFF3008069
:1001C000585002202C4B19680868B0E8F04F80F3B3
:1001D0000988BFF36F8F4FF0000080F311887047DC
:1001E0000000000008480068006880F308884FF0AD
:1001F000000080F3148862B661B6BFF34F8FBFF37F
:100200006F8F00DF00BF00BF08ED00E0DFF80C00DB
:10021000016841F470010160704700BF88ED00E0A3
:10022000EFF30980BFF36F8F134B1A681EF0100FA6
:1002300008BF20ED108A20E9F04F106009B44FF09C
:10024000500080F31188BFF34F8FBFF36F8F28F0FA
:1002500095FC4FF0000080F3118809BC196808680C
:10026000B0E8F04F1EF0100F08BFB0EC108A80F31A
:100270000988BFF36F8F70473C000020EFF30580C3
:10028000704700000648804706480047FEE7FEE743
:10029000FEE7FEE7FEE7FEE7FEE7FEE7FEE7FEE736
:1002A000353E0008AD0100082DE9F05F054600204D
:1002B00092469B4688460646814640241BE02846D7
:1002C00041464746224600F0BAF853465A46C01AFD
:1002D000914110D311461846224600F0A1F82D1A7C
:1002E00067EB01084F4622460120002100F098F8F4
:1002F00017EB00094E41201EA4F10104DFDC484643
:1003000031462A464346BDE8F09F10B5431A934252
:1003100009D28318881803E010F8011D03F8011DA5
:10032000521EF9D210BD40EA01039B0703D009E039
:1003300008C9121F08C0042AFAD203E011F8013BD1
:1003400000F8013B521EF9D210BDD2B201E000F814
:10035000012B491EFBD270470022F6E710B5134669
:100360000A4604461946FFF7F0FF204610BD30B597
:1003700005462A460B4612F8010B13F8014B08B14B
:10038000A042F8D01CB1002802D06D1CF1E728462D
:1003900030BD421C10F8011B0029FBD1801A7047A8
:1003A00010B5002200E0521C835C8C5CA34201D19A
:1003B000002BF8D1D8B2E1B2401A10BD034611F8B3
:1003C000012B00F8012B002AF9D11846704700F0E4
:1003D000004230F000400AD0C10D01F56071C0F359
:1003E000160042EA0151C20840071143704700203D
:1003F0000146704730B50B460146002020220124FB
:1004000009E021FA02F59D4205D303FA02F5491BE2
:1004100004FA02F52844151EA2F10102F1DC30BDF8
:10042000202A04DB203A00FA02F1002070479140B4
:10043000C2F1200320FA03F3194390407047202AA9
:1004400004DB203A21FA02F00021704721FA02F37E
:10045000D040C2F1200291400843194670472DE96F
:10046000FE4F804681EA0300C00F0C46009021F049
:10047000004123F00045B8EB0200A94105D24046F7
:10048000214690461C460B46024623F0004010438E
:1004900047D0270DC7F30A00C3F30A510290401A50
:1004A000019040286BDAC3F3130040F4801B0098DE
:1004B000924620B10023D2EB030A63EB0B0B0198A9
:1004C0005946C0F140025046FFF7AAFF06460D46C6
:1004D00050465946019A00F08DF910EB0800614131
:1004E000002487EA115284EAE7731A4340D0009A45
:1004F00062B3019A012A4FEA075215DC001B61EB37
:1005000002014FF0004202EA0752CDE90042001C0E
:1005100041F5801132462B4600F08DF903B0BDE85D
:10052000F08F40462146F9E7001B61EB0201001CF9
:1005300041F5801300185B412018A2F5001747EB26
:10054000030140EAD570B6196D4111E06D084FEA1C
:10055000360645EAC0754FEA0752001B61EB0201FF
:10056000001C41F5801149084FEA30000019514143
:1005700032462B4603B0BDE8F04F00F04DB900986D
:10058000012240000023D0EB020263EBE0730098ED
:1005900021464FEAE074B8EB000061EB0401E9E7A3
:1005A00083F000435BE781F0004158E72DE9FE4FFF
:1005B00081EA030404F0004421F0004100944FF06C
:1005C000000B23F0004350EA01045ED052EA03041A
:1005D0005BD0C3F30A54C1F30A552C44A4F2F3349C
:1005E0000194A0FB0254C1F3130141F48011C3F341
:1005F000130343F4801301FB024400FB034E840AFF
:10060000970A44EA815447EA8357A4FB0768029596
:100610008D0A05FB07854FEA932C04FB0C54270534
:10062000029D4FEA065847EA1637B5EB08056EEB10
:10063000070C870E920E47EA811742EA8312A7FB46
:100640000201B6EB0B0164EB00042B0D43EA0C3303
:100650005E1844EB1C50DA465146E7FB0201C5F335
:1006600013044FEA0B3343EA14534FEA0432019C5C
:1006700043EA0603A4F10C040294009CCDE900B403
:1006800000F0D9F803B0BDE8F08F00200146F9E78B
:100690002DE9F04D81EA030404F0004B21F0004500
:1006A00014464FF0000A23F0004150EA050220D022
:1006B00054EA01021DD0C5F30A570246C5F31303DD
:1006C000C1F31300C1F30A5640F4801543F48013BC
:1006D000A7EB0608101BD64608F2FD3873EB0500A1
:1006E00002D308F1010801E092185B41B8F1000F54
:1006F00003DA00200146BDE8F08D00204FF48011A0
:10070000064684460EE0171B73EB050705D3121B44
:1007100063EB050306434CEA010C49084FEA30003D
:1007200092185B4150EA0107EDD152EA030012D062
:1007300082EA040083EA0501084305D0101BAB419F
:1007400006D20122002306E000224FF0004302E01F
:100750006FF0010253101AEB06004CEB085110EB3E
:100760000A0041EB0B01BDE8F04D00F055B8C1F3B4
:100770000A52C1F3130140F2FF3341F480119A424F
:1007800002DA00200146704740F233439A42A2F257
:10079000334202DC5242FFF752BEFFF741BE000077
:1007A00030B5041E71F1000404DB4FF000444042F8
:1007B00064EB0101141E73F1000405DB1C464FF0CD
:1007C0000043524263EB0403994208BF904230BD9C
:1007D000064C074D06E0E06840F0010394E807008E
:1007E00098471034AC42F6D3FFF7E4FCC0220A0865
:1007F00000230A08202A06DBCB17203A41FA02F030
:1008000043EAE07306E041FA02F3D040C2F120026D
:10081000914008431946704710B5141E73F1000447
:1008200008DA401C41F1000192185B411A4301D1E2
:1008300020F0010010BD2DE9F04D92469B4611B10C
:10084000B1FA81F202E0B0FA80F220329046FFF76E
:10085000E7FD04460F4640EA0A0041EA0B01534611
:100860005A46084313D0114653EA010019D0C8F183
:1008700040025046FFF7E3FD05460E4650465946F6
:100880004246FFF7CDFD084305D0012004E0204695
:100890003946BDE8F08D0020054346EAE0762C435A
:1008A00037430A986305E40AA0EB08000022FD0A1A
:1008B00044EA47540A3002D500200146E9E7010521
:1008C00010196941DDE9084500196941BDE8F04D9D
:1008D000A2E770B58C1810F8015B15F0070301D181
:1008E00010F8013B2A1106D110F8012B03E010F893
:1008F000016B01F8016B5B1EF9D12B0705D40023B6
:10090000521E0DD401F8013BFAE710F8013BCB1A57
:10091000921C03E013F8015B01F8015B521EF9D54C
:10092000A142D8D3002070BD2DE9F04780464FF496
:10093000FA7689460024304622F0FAFA194D022050
:100940004146287018A003F0A1FD304622F0F0FACD
:10095000012712E0414614A003F098FD304622F032
:10096000E7FA641CE4B2052C07D32F70414610A0AF
:1009700003F08CFD0020BDE8F08749460F48FFF7E3
:10098000F6FC0028E6D02F7041460DA003F07EFD56
:1009900064210A48FFF7E0FC0B49002008700120A1
:1009A000E9E700000600002025730D0A00000000A2
:1009B0002F6E2573204661696C0A0000E801001063
:1009C0000A2573204F4B0A0000000020FEE70000BC
:1009D000014800F010BC00004C0200100A4B10B59A
:1009E0000422C3E901020020D860082018610A46E9
:1009F000064B0549064800F095FA002803D0BDE8EB
:100A0000104000F0C5B910BD203A0220E4010010EA
:100A10004C02001000B58BB00A2005900020012187
:100A200003900490CDE90601CDE9081000900190F3
:100A300002906946044800F0E3FA002801D000F073
:100A4000A7F90BB000BD00004C0200107047000079
:100A50002DE9F04101222E4ED502002429463046D0
:100A600001F01DF8012217033946304601F017F84E
:100A700040F6B83022F05CFA00222946304601F0F8
:100A80000EF800223946304601F009F801222149CA
:100A9000214802F0B7FC214D214E01202870307012
:100AA00020A003F0F3FC23A003F0F0FC4FF47A78CD
:100AB000244F0FE0404622F03BFA23A003F0E6FC6F
:100AC000641CA4B2142C05D920A003F0DFFC002084
:100AD000BDE8F08138780028ECD01FA003F0D6FCE8
:100AE00000203070022028701EA003F0CFFC1FA150
:100AF0001FA0FFF719FF04461FA120A0FFF714FF56
:100B0000044020A122A0FFF70FFF2040E0E70000F3
:100B1000000C024005000010340400100600002004
:100B2000000000100A656332303020BFAABBFA0A09
:100B3000000000002E2E2EB5C8B4FDBECDD0F72E7D
:100B40002E2E0A00010000102E000000D6D8C6F498
:100B5000CAA7B0DC000000000AD6D8C6F4B3C9B9F1
:100B6000A60A0000415445300D0A0000343630001A
:100B700041542B43494D49004353510041542B43A9
:100B8000535100002B43474154543A203100000098
:100B900041542B43474154543F0000002DE9F0419C
:100BA000FFF756FF88B12CA003F070FC2D480126FA
:100BB0002D4C0670022525702CA003F067FC2670D2
:100BC00034A003F063FC3C4F0BE03CA003F05EFC60
:100BD0000020BDE8F0813DA003F058FCC82022F0C1
:100BE000A7F938780028F6D039A003F04FFC39A0D7
:100BF00003F04CFC4FF4FA7022F09AF9257039A0FA
:100C000003F044FC267042A003F040FC4A4F05E08C
:100C10002EA003F03BFCC82022F08AF93878002887
:100C2000F6D02BA003F032FC44A003F02FFC25707B
:100C3000042147A003F02AFC0A2022F079F94CA1F4
:100C40004DA003F023FC0A2022F072F926704BA07D
:100C500003F01CFC0120BCE74543323030205265D4
:100C600061647900000000100600002041542B51FF
:100C70004D544F50454E3D302C226E61732E6C7991
:100C8000726163696E672E636E222C313838330DC2
:100C90000A0000000A2057616974696E6720666F58
:100CA0007220746865204D51545420636C69656EE0
:100CB00074204F70656E0000030000204543323001
:100CC00030204661696C6564000000002E00000061
:100CD0000D0A00000A514D544F50454E204F4B2EE7
:100CE0000D0A000041542B514D54434F4E4E3D30A0
:100CF0002C2268656C6C6F222C225261696E222C4A
:100D0000223230303331303130220D0A0000000001
:100D10000A2057616974696E6720666F7220746873
:100D200065204D51545420636C69656E7420436F87
:100D30006E6E636574000000030000104D51545442
:100D400020436F6E6E636574204F4B2E0D0A0000BA
:100D500041542B514D5450554245583D302C302C68
:100D6000302C302C226D717474222C25640D0A00F5
:100D70007465737400000000257300000A4D51541F
:100D80005420436C69656E742072656164790A0051
:100D900072B6FEE7F0B5D1E907354C6A0A68C2B110
:100DA00002682B4322F4F842144323430360D1E941
:100DB00001231A43D1E9033423431A434B69896958
:100DC0001A430A4341686FF30E010A434260002050
:100DD000F0BDD1E901263243D1E903673E433243F6
:100DE0004E69896932430A431A432A430168224300
:100DF0006FF30E010A430260E9E7426943F6FE73AE
:100E00009A4342EA410141610020704770B514469F
:100E10000546D1E9000210438A686FF01F03C968D4
:100E200003EB421242EA4121084329696FF315019D
:100E30000843286100F038FE064609E0601C07D030
:100E400024B100F031FE801BA04201D9032070BD07
:100E5000A8698006F2D4002070BD0000F0B56FF0E4
:100E60000F058C8A2E014FEA054ECB682F034FF0F9
:100E70007F4C0EEB04540AB31A03A2F58052836828
:100E800022431D4C23401A438260D1E9002305EB25
:100E90000313521E1A438B6806EB03231A430B8A73
:100EA000097E07EB03431A430CEB01610A43C16857
:100EB00001F070410A43C2600020F0BDD1E9002E6C
:100EC00005EB0E15521E2A438D6806EB05252A43B5
:100ED0000A4D05EB03331A430B8A097E07EB0343E4
:100EE0001A4322430CEB01610A43816801F070410F
:100EF0000A438260E0E70000FF0F0FFF00F0FFFFF2
:100F000090F82020012A07D0022A05D0416A41F436
:100F10008021416201207047006842690A434261B2
:100F200000207047F0B590F820500468A468012DA7
:100F300005D0022D03D0416A41F480215DE014F018
:100F4000406F01D1E50055D5C4F30164022C03D9EB
:100F5000416A41F4000150E00125A5401D608D6803
:100F60004FF4C0739DB1CE6835434E6845EAC6055F
:100F7000066803EB0417F5514FF4C275076805EBDB
:100F800004150E697E51097D012905D009E00E88FE
:100F9000CD6845EA4655EBE701684E5946F4807640
:100FA0004E511179D579567941EA056195792D042B
:100FB00045EA062529434FF4C676056806EB041674
:100FC000A9511178D57841EA0561957852782D04B8
:100FD00045EA022211434FF4C475026805EB04157B
:100FE0005151006803EB0411425842F00102425093
:100FF0000020F0BD416A41F4001141620120F0BDC2
:1010000010B590F82020012A07D0022A05D0416AA5
:1010100041F480214162012010BD3B48D0F80022FC
:1010200042F00102C0F80022D0F8002222F47C52E3
:10103000C0F80022D0F800224B6A42EA0322C0F82E
:1010400000220A7D02F01F0301229A40D0F81C32D0
:101050009343C0F81C32CB69B3B9D0F80C32934338
:10106000C0F80C328C894B6864F31F434C6900EB69
:10107000C404C4F840320C890B6864F31F434C6904
:1010800000EBC404C4F84432CB69012B16D1D0F86C
:101090000C321343C0F80C320C884B6864F31F43C6
:1010A0004C6900EBC404C4F840320C89CB6864F38B
:1010B0001F434C6900EBC404C4F844328B69002B15
:1010C000D0F804320ED01343C0F804320B69002B61
:1010D000D0F8143208D01343C0F81432096A012939
:1010E00004D008E09343EFE79343F5E7D0F81C12F0
:1010F0001143C0F81C12D0F8001221F00101C0F811
:101100000012002010BD000000640040704730B5A0
:1011100090F82040012C05D0022C03D0416A41F404
:1011200080215DE00468002955D02469A40754D0CB
:101130004FF4D874056804EB01142D5915F004051B
:10114000956005682D594ED0ED08556005682C59FD
:1011500004F00204D4604FF4DA74056804EB01145F
:101160002D5905F00F05156105682D59C5F30725A3
:10117000956105682C59240C54614FF4DC720468A5
:1011800002EB0112A4581C700468A458240A5C7075
:101190000468A458240C9C700468A258120EDA70DB
:1011A0004FF4DE72046802EB0112A4581C7104684B
:1011B000A458240A5C710468A458240C9C71046827
:1011C000A258120EDA71006881B1016941F0200164
:1011D0000161002030BDE468A8E7416A41F40011D4
:1011E0004162012030BD6D0D1560AFE7C16841F06F
:1011F0002001C160EDE72DE9F05F0546006800249D
:101200004669D0F804908768D0F80CB0D0F810A0E8
:10121000D0F81880F10748D0F90714D00121816077
:10122000B80703D5284600F006FA0CE0780702D587
:101230004FF4006407E0380702D54FF4805402E011
:10124000284600F0F7F9F80516D529684FF48070A4
:101250008860B80503D5284600F0EFF90CE0780562
:1012600002D544F4005407E0380502D544F4804424
:1012700002E0284600F0E0F9F80316D529684FF49B
:1012800080308860B80303D5284600F0D8F90CE018
:10129000780302D544F4004407E0380302D544F44F
:1012A000803402E0284600F0C9F9300707D55FEA2C
:1012B000CB6004D52968102044F40074C86070071E
:1012C0004FF0080707D55FEA0B7004D52868C760A0
:1012D000284600F061F9B00706D52868C068800785
:1012E00002D0284600F05AF9700607D55FEACA60B6
:1012F00004D52968102044F480640861B00607D53D
:101300005FEA0A7004D528680761284600F062F990
:10131000F00606D528680069800702D0284600F04C
:101320005AF9B00308D55FEAC96005D529681020CD
:101330004860284600F050F9F00307D55FEA0970CD
:1013400004D528684760284600F07AF9300446D56D
:101350005FEA497040D5F00504D55FEAC87001D056
:1013600044F00104B00504D55FEA887001D544F06B
:101370000204700504D55FEA487001D544F0040406
:10138000300529D518F0700F26D008F070004028DD
:1013900015D006DC102809D020280AD0302816D114
:1013A0000AE050280ED0602811D10EE044F0080465
:1013B0000DE044F010040AE044F0200407E044F09B
:1013C000400404E044F0800401E044F480742868A0
:1013D000816921F070018161296804204860002C36
:1013E00005D0686A204368622846FFF78FFEBDE893
:1013F000F09F70B5040003D094F8200010B104E011
:10140000012070BD204600F081F82068016841F09D
:101410000101016000F048FB0546052604E000F0EC
:1014200043FB401B0A2811D820684068C007F6D04B
:101430002068016821F00201016000F035FB0546DB
:101440000BE000F031FB401B0A2806D9606A40F42B
:101450000030606284F82060D2E72068406880072E
:10146000EFD4207E0128206801683DD021F0800162
:101470000160607E01282068016838D021F04001B9
:101480000160A07E01282068016833D021F020018E
:101490000160E07E0128206801682ED041F0100133
:1014A0000160207F01282068016829D021F008010F
:1014B0000160607F01282068016824D021F00401C8
:1014C0000160D4E902010843D4E90412114308433E
:1014D0006168491E08432168C861002060620120DC
:1014E00084F82000002070BD41F08001C0E741F089
:1014F0004001C5E741F02001CAE721F01001CFE724
:1015000041F00801D4E741F00401D9E710B586B0F5
:10151000044614216846FEF71FFF1C4920688842D4
:1015200031D11B480021026842F0806202600268EB
:1015300002F080620592026842F000720260006868
:1015400000F00070059012481038026842F0020264
:101550000260006800F0020005904FF440500090D7
:101560000220CDE90101032003900920049069467F
:10157000084800F075F900220521402000F0CEFC5B
:10158000402000F0BDFC06B010BD00000068004027
:101590004038024000040240704700001CB50A4970
:1015A000884210D16B46094A0021FFF7B0FD0028A0
:1015B00009D106486946406806F0C4FE04480F2178
:1015C000006821F0D9FC1CBD4C020010383A022002
:1015D00020000020704770477047000070B5044637
:1015E00090F82000012804D0606A40F40020606276
:1015F00018E0022084F820002068016821F0010131
:10160000016000F051FA05460EE000BF00F04CFA10
:10161000401B0A2808D9606A40F400306062052047
:1016200084F82000012070BD20684068C007EDD11B
:10163000606270BD70477047704770477047704771
:10164000704770B5040004D094F83900002510B13B
:1016500006E0012070BD84F83850204600F01EF8E6
:10166000022084F8390020680168626821F4403162
:10167000114301602068416BA26821F0070111430A
:1016800041632068016CE2686FF30D01114301644E
:10169000E563012084F83900002070BD08B50068BA
:1016A0000649884208D10648016841F400010160FA
:1016B000006800F40000009008BD000000B0024087
:1016C000303802402DE9F0410446876D00F0ECF916
:1016D000064694F835000025022806D08020606573
:1016E00084F834500120BDE8F0812068016821F0C1
:1016F000160101602068416921F080014161206C80
:1017000008B9A06C20B12068016821F008010160CF
:101710002068016821F0010101600CE000F0C4F9CB
:10172000801B052807D920206065032084F8350038
:1017300084F83450D7E720680068C007EED194F8E9
:101740005C103F208840B860012084F8350084F8A0
:1017500034500020C7E790F83510022903D08021CB
:10176000416501207047052180F835100068016847
:1017700021F00101016000207047000070B50446AF
:1017800000F092F90546601C02D004480078044439
:1017900000F08AF9401BA042FAD370BD2C00002053
:1017A000F0B587B014216846FEF7D6FD25480168DC
:1017B000002944D10121016023480024016841F03F
:1017C000010101600068022500F0010005904FF65C
:1017D0003F00CDE9000502AA03260C2782E8D000CD
:1017E00069461A4800F03CF80D20CDE9000502AA30
:1017F000694682E8D000164800F032F848F2371007
:10180000CDE9000502AA694682E8D000114800F03F
:1018100027F84FF68370CDE9000502AA694682E8F1
:10182000D0000D4800F01CF84CF20370CDE9000523
:1018300002AA694682E8D000084800F011F807B013
:10184000F0BD00002400002038380240001402409F
:10185000000802400018024000100240000C024044
:101860002DE9F84FDFF8F8A10022012403254FF0FD
:101870000F090AF1040BAAF1040E00BF0B6804FA69
:1018800002F63340B34270D10F7907F00307012FFE
:1018900001D0022F16D187684FEA420805FA08FCEA
:1018A00027EA0C07D1F80CC00CFA08FC4CEA070C2C
:1018B000C0F808C04768B7430E79C6F300169640D3
:1018C0003E4346600E79F643B6070AD0C7684FEA32
:1018D000420C05FA0CF6B7438E6806FA0CF63E4346
:1018E000C6600E7906F00306022E10D1D60800EB72
:1018F0008608D8F8206057074FEAD76C09FA0CF72A
:10190000BE430F6907FA0CF73743C8F82070066822
:101910004FEA420C05FA0CF7BE430F7907F00307B4
:1019200007FA0CF7374307604E6816F4403F1CD0A7
:101930004C4E376847F480473760366822F003071B
:1019400006F480460096484E07EB060CDCF8086863
:1019500097073F0F09FA07F826EA0806DFF80C8117
:10196000404503D14FF0000841E072E0DFF800810C
:10197000404502D14FF0010839E0DFF8F8804045DA
:1019800002D14FF0020832E0DFF8EC80404502D18E
:101990004FF003082BE0DFF8E480404502D14FF020
:1019A000040824E0DFF8D880404502D14FF0050854
:1019B0001DE0DFF8D080404502D14FF0060816E068
:1019C000DFF8C480404502D14FF007080FE0DFF890
:1019D000BC80404502D14FF0080808E0DFF8B08035
:1019E000404502D14FF0090801E04FF00A0808FA1B
:1019F00007F848EA0608CCF80888DAF80060574685
:101A0000D1F804C09E435FEACC2C00D51E433E6053
:101A1000DBF800605F46D1F804C09E435FEA8C2C7F
:101A200000D51E433E60DEF800607746D1F804C062
:101A30009E435FEA8C3C00D51E433E60084F083F42
:101A40003E68D1F804C09E435FEACC3C00D51E43FB
:101A50003E60521C102AFFF411AFBDE8F88F000061
:101A6000083C014044380240003001400000024080
:101A70000004024000080240000C02400010024036
:101A80000014024000180240001C024000200240E6
:101A9000002402400069084000D0012070470AB1CC
:101AA000816170470904FBE70148806870470000C6
:101AB0002C00002070B5040011D021684CF6CC40F9
:101AC0000860216845F255500860D4E90001416082
:101AD0002168A0688860FFF7E7FF05460DE0012058
:101AE00070BD00BFFFF7E0FF401B312805D920681B
:101AF000C068800701D0032070BD2068C0688007DF
:101B0000F0D121684AF6AA200860002070BD006864
:101B10004AF6AA210160002070470000024881684F
:101B200002781144816070472C0000200B4810B5EA
:101B3000016841F400710160016841F48061016055
:101B4000016841F480710160032000F007FA0F2062
:101B500000F006F800F0B8F9002010BD003C02408B
:101B600030B505461C4887B00024016841F00101EA
:101B70000160006806A900F00100009001A800F0D3
:101B8000FBFB00F029FC15494000B0FBF1F11548C2
:101B9000134A491E026040F2E732C0E90324C0E95B
:101BA0000114846100F00EFF040012D10D4800F012
:101BB00055FF04000DD1192000F0A2F9102D07D215
:101BC00000222946192000F0A9F90748056000E025
:101BD000012407B0204630BD4438024040420F0087
:101BE000000001400C020020300000202DE9F041EF
:101BF000044690F8A00016460F4601281DD0012586
:101C000084F8A050022084F8A10006EB860000EBC7
:101C1000C60004EB800034223830FEF776FB3246F3
:101C20003946204601F043FD2068456284F8A15002
:101C3000002084F8A000BDE8F0810220FBE700004E
:101C400070B5040004D094F8A100002510B106E09E
:101C5000012070BD84F8A050204600F06BF80220EF
:101C600084F8A1002068816921F070418161D4E984
:101C700001010843D4E903121143084321688A692A
:101C80001043886121688A68294802408A60A18AD5
:101C90000A0421688B68A669334313438B6021686B
:101CA000CA680240CA60A18B0B042168CA68266A10
:101CB00032431A43CA6021680A6902400A61A18C52
:101CC00022680B041169A66A314319431161216826
:101CD0004A6902404A61A08D010420684269236B71
:101CE0001A430A43426194F835002168020294F8CD
:101CF0003600CB6A03F07F43CB622168CB6A94F84D
:101D0000346042EA004033430343CB622068416BB6
:101D100041F0060141632068816941F00101816160
:101D2000C4F8A450012084F8A100002070BD000078
:101D300000F800F02DE9F04393B004461421684602
:101D4000FEF70AFB302105A8FEF706FB564920687E
:101D500088427CD1002432200E9408260225099066
:101D600005960B9505A800F043F908B1FFF710F8A8
:101D70004E48016841F080610160006800F08060B9
:101D800011904A481438016841F02001016001684F
:101D900001F020011191016841F001010160016829
:101DA00001F001011191016841F002010160016837
:101DB00001F002011191016841F0400101600168E8
:101DC00001F040011191016841F0040101600168D6
:101DD00001F004011191016841F0080101600068FF
:101DE0000E2700F0080011904FF480600090CDE9BC
:101DF0000154CDE9034769462D48FFF731FD41F60F
:101E000058000090CDE90154CDE9034769462948BF
:101E1000FFF726FD03200090CDE901544FF009089B
:101E2000DFF89490CDE9034869464846FFF718FD6E
:101E30004FF470600090CDE90154CDE90347694645
:101E40004846FFF70DFD4FF40C60009000E027E0DE
:101E5000CDE90154DFF86490CDE90347694648466F
:101E6000FFF7FEFCC0200090CDE90154CDE9034707
:101E700069461348FFF7F4FC0096CDE90154CDE91B
:101E8000034769460F48FFF7EBFC4FF4A050009062
:101E9000CDE90154CDE9034869464846FFF7E0FC27
:101EA00013B0BDE8F08300000068014044380240F0
:101EB00000140240000002400004024000180240EA
:101EC00000080240000C02400C4882B0016841F456
:101ED00080410160006800F4804000900748001FC6
:101EE000016841F0805101600068002200F08050DC
:101EF00000900F21901E02B000F010B8443802404C
:101F0000002809DB00F01F020121914040098000F8
:101F100000F1E020C0F8001170470000F0B40E4B53
:101F20001B680C46C3F30223C3F10705042D00D937
:101F30000425191D072901D2002300E0DB1E01261C
:101F400006FA05F1491E214099409E40761E164032
:101F50003143F0BC02F0BEBA0CED00E0064900F0DF
:101F6000070208684FF6FF03184040EA0220034AC0
:101F700010430860704700000CED00E00000FA0517
:101F80002DE9F8431748016841F08051016000686D
:101F9000154F00F08050012600903E64FFF784FD4D
:101FA00005464FF47A78114C05E000BFFFF77CFD41
:101FB000401B40450DD86068C003F7D57E64FFF72D
:101FC00073FD0546464607E0FFF76EFD401BB04235
:101FD00002D90320BDE8F88360688003F4D50020AF
:101FE000F8E700004038024000000E420070004058
:101FF0002DE9F84F04460068DFF824A2894F8A4D86
:10200000C1074FF001084FF0000603D1810701D44A
:10201000400648D5CAF86860FFF746FD814605E0EE
:10202000FFF742FDA0EB090002287DD828680001D7
:10203000F6D42078C1077D4805D06168227A8901ED
:1020400041EA027101602178890711D5016862684F
:10205000237B9201C1F3027142EA036242EA0171F9
:1020600001603968E26921F01F01521E1143396095
:102070002178490608D56168227B890141EA02611D
:10208000227A41EA02710160CAF86880FFF70CFD0C
:10209000814605E0FFF708FDA0EB0900022843D8C0
:1020A00028680001F6D52068410701D400074ED505
:1020B000CAF87060FFF7F8FC814605E0FFF7F4FC12
:1020C000A0EB090002282FD82868C0438000F5D56E
:1020D00020784107564814D501682269237D920172
:1020E000C1F3027142EA036242EA01710160396898
:1020F000226A6FF0FF0321F4F85103EB022211432F
:1021000039602178090712D501682269C1F303619A
:10211000920142EA0161227E41EA0271016038685F
:10212000616A20F4403000E051E008433860CAF8AA
:102130007080FFF7B9FC074605E000BFFFF7B4FC6D
:10214000C01B022843D82868C0438000F6D42078FA
:10215000800653D534484030016841F08051016019
:102160000068344D00F080500090286840F4807082
:102170002860FFF799FC074605E000BFFFF794FCD5
:10218000C01B022823D82868C005F7D5274D143D69
:10219000286810F4407020D0218D01F440718142F4
:1021A0001BD0286820F440712348C0F800800660E6
:1021B00029602868C00710D0FFF776FC064641F278
:1021C000883707E0FFF770FC801BB84202D9032074
:1021D000BDE8F88F28688007F4D5A16A1248C1F3DA
:1021E00001220830032A13D0016821F4F81101609C
:1021F0002868218DC1F30B01084328602078C006B0
:1022000004D50E4994F82C00C1F8E0010020DFE766
:1022100002680B4B22F4F81219400A430260E7E708
:10222000000047428C3802400038024084380240A7
:102230008838024000700040400E4742001047427C
:10224000FFFCFF0F2DE9F0470E46050065D0DFF8D3
:102250001481D8F80000F7B200F00F00B04207D2A6
:1022600088F80070D8F8000000F00F00B04254D198
:1022700028683D4C810712D5400703D5206840F4FB
:10228000E05020602878000703D5206840F46040C3
:1022900020602068A96820F0F000084320602878BA
:1022A000C0072DD0304968680839012812D00228AB
:1022B00013D0032811D00968890700292DDA216875
:1022C00021F0030101432160FFF7EEFB814641F25B
:1022D000883A0EE009688903EFE709688901ECE7AD
:1022E000FFF7E2FBA0EB0901514502D90320BDE84D
:1022F000F0872068696800F00C00B0EB810FEFD127
:10230000D8F80010404601F00F01B14207D907701C
:10231000006800F00F00B04201D00120E7E7287804
:10232000400705D52068E96820F4E05008432060A4
:102330002878000706D52068296920F4604040EA23
:10234000C100206000F058F82168084AC1F3031169
:10235000515CC8400649086006480068FFF700FC69
:102360000020C4E7003C0240083802400C9D0208EF
:1023700038000020300000200F2202600C4A136851
:1023800003F003034360136803F0F00383601368F2
:1023900003F4E053C36012684FF4E05303EAD2023F
:1023A00002610448006800F00F00086070470000F8
:1023B00008380240003C02400448054900680968AA
:1023C000044AC1F38221515CC840704738000020A4
:1023D000083802401C9D0208044805490068096845
:1023E000044AC1F34231515CC840704738000020B4
:1023F000083802401C9D0208154810B5006810F00E
:102400000C02144813D04110042A0FD0082A0ED110
:102410000F4C241F2268236802F03F025B0207D59D
:102420002068C0F38810A0FB010106E0084610BD3B
:102430002168C1F38811A1FB00010023FDF734FFDF
:102440002168C1F30141491C4900B0FBF1F010BD06
:10245000083802400024F4002DE9F84F04006ED043
:102460002078DFF84C93C007A9F104054AD009F1A0
:1024700004000168C1F38101012908D00068C0F39C
:10248000810002280AD1D9F80000400206D5286848
:10249000800337D560680028E1D033E06068B0F58C
:1024A000803F10D0B0F5A02F286810D020F48030E5
:1024B0002860286820F4802028606068A8B1FFF7B1
:1024C000F3FA06460DE0286840F48030F4E740F463
:1024D00080202860F7E700BFFFF7E6FA801B64283A
:1024E00073D828688003F7D50CE0FFF7DDFA0646BD
:1024F00005E000BFFFF7D8FA801B6428F0D82868F1
:102500008003F7D42078DFF8AC8280074FF0000A10
:102510003ED5A748001D016811F00C0F08D00068D7
:10252000C0F3810002280BD1D9F80000400207D483
:102530002868800716D5E068012800D112E033E151
:10254000E068B8B10120C8F80000FFF7ADFA064610
:1025500005E000BFFFF7A8FA801B0228C0D8286852
:102560008007F7D52868216920F0F80040EAC1000B
:1025700028600DE0C8F800A0FFF796FA064604E0D0
:10258000FFF792FA801B02281FD828688007F7D42B
:102590002078000722D5864F87486169703771B16E
:1025A00001210160FFF780FA064604E0FFF77CFA9C
:1025B000801B022809D838688007F7D50EE0C0F8DC
:1025C00000A0FFF771FA064605E082E0FFF76CFA1B
:1025D000801B02287DD838688007F7D42078400710
:1025E00068D5DFF8CCB100270BF13C0BDBF800001D
:1025F000C0000BD4DBF8001041F08051CBF8001084
:10260000DBF80000012700F0805000906B4E30682E
:10261000C00510D4306840F480703060FFF744FA91
:10262000009005E0FFF740FA0099401A022850D8C0
:102630003068C005F6D55E4EA0686C3601280FD014
:102640000528306810D020F001003060306820F09C
:1026500004003060A068B8B1FFF726FA00900FE0E0
:10266000306840F00100F4E740F004003060F7E724
:10267000FFF71AFA0099411A41F28830814266D870
:1026800030688007F4D50EE0FFF70EFA009007E0FF
:10269000FFF70AFA0099411A41F28830814256D870
:1026A00030688007F4D42FB1DBF8001021F080519E
:1026B000CBF80010A069C8B33D49091D0968C1F3F2
:1026C000810102294AD00228504607D0C8F860008C
:1026D00000E03CE0FFF7E8F904463BE04746C8F875
:1026E0006000FFF7E1F9064605E000BFFFF7DCF9FF
:1026F000801B02282BD828688001F7D4D4E9070171
:102700000843A16A2E4A490802EB0141626A41EA84
:102710008211084394F82C1040EA0161C9F80010B6
:1027200001203866FFF7C0F9044606E03EE000BF2E
:10273000FFF7BAF9001B022809D828688001F7D5ED
:1027400034E000BFFFF7B0F9001B022802D90320D4
:10275000BDE8F88F28688001F4D427E00128F7D07D
:10276000D9F80000E26900F4800191421CD1226A8C
:1027700000F03F01914217D147F6C071626A0140F3
:10278000B1EB821F10D1A26A4FF0FF3300F4403149
:1027900003EB5202B1EB024F06D194F82C1000F07B
:1027A0007060B0EB016F01D00120D1E70020CFE7CE
:1027B0000438024000004742800E4742007000404B
:1027C0000000FFFF70B50D46040003D094F82C0004
:1027D00010B107E0012070BD002084F82D002046D4
:1027E00000F011F8022084F82C00211D2068FEF76B
:1027F000D1FAD4E900022946FEF730FB012084F823
:102800002C00002070BDFEF7CBBF10B5044690F839
:102810002C00022804D094F82C00012801D00120BB
:1028200010BD022084F82C002068FEF7E6FA012093
:1028300084F82C00002010BD70B5044690F82C00E0
:102840000D46022804D0012803D0052801D001201C
:1028500070BD022084F82C002068FEF7D7FA2868A3
:10286000022805D05FF0010084F82C00002070BD24
:102870000520F9E770B5040009D0606A002540B171
:1028800025616561A56294F8510040B10CE001201A
:1028900070BD6068B0F5827FF4D0E561F2E784F83E
:1028A0005050204600F044F8022084F8510020687F
:1028B000016821F040010160A088218900F4827044
:1028C00001F404410843A18901F400610843217C1B
:1028D00001F002010843217D01F001010843218B31
:1028E00001F400710843217F01F03801084394F896
:1028F000201001F080010843218D01F400510843AC
:1029000021680860A069042101EA104094F82410AD
:1029100001F010010843216848602068C16921F472
:102920000061C1616565012084F85100002070BD1F
:10293000F0B587B0044614216846FDF70DFD1C492B
:102940002068884232D11B480024016841F480513C
:102950000160006800F48050059016481438016842
:1029600041F001010160016801F001010591016878
:1029700041F0020101600068022500F002000590AC
:10298000A020CDE9000502AA0326052782E8D00091
:1029900069460948FEF764FF1020CDE9000502AA48
:1029A000694682E8D0000548FEF75AFF07B0F0BD3F
:1029B0000030014044380240000002400004024060
:1029C0007047704710B5040003D094F83D0010B173
:1029D00007E0012010BD002084F83C00204600F0F4
:1029E0001FF8022084F83D00211D206801F06EFAD6
:1029F000012084F8460084F83E0084F83F0084F803
:102A0000400084F8410084F8420084F8430084F8D0
:102A1000440084F8450084F83D00002010BD00000B
:102A200008B500680B49884212D10B48016841F48F
:102A3000803101600068002200F4803000900521A0
:102A40001820FFF76BFABDE808401820FFF758BAC6
:102A500008BD0000004001404438024090F83D109D
:102A6000012901D001207047022180F83D10016842
:102A7000CA6842F00102CA6000681149884214D055
:102A8000B0F1804F11D00F4988420ED00E498842D4
:102A90000BD00E49884208D00D49884205D00D4917
:102AA000884202D00C49884204D1816801F00701B4
:102AB000062903D0016841F0010101600020704740
:102AC000000001400004004000080040000C0040ED
:102AD00000040140004001400018004070B5044669
:102AE00090F83C000025012817D0012684F83C60AE
:102AF000022084F83D002068826822F0770222F4E8
:102B00007F4282600868502838D00DDC20284FD0E2
:102B100005DC90B3102811D14AE0022070BD3028A6
:102B200046D040280AD13BE060282FD070280DD035
:102B3000B0F5805F03D0B0F5005F12D0012584F8B6
:102B40003D60002084F83C00284670BDCB68D1E988
:102B50000121206801F02BFA2068816841F077019B
:102B600009E0CB68D1E90121206801F020FA206852
:102B7000816841F480418160E1E719E0CA684968F1
:102B8000206801F0E9FA5021206806E0CA68496827
:102B9000206801F0F2FA6021206801F012FACEE715
:102BA000CA684968206801F0D7FA40212068F4E734
:102BB000226801461046F0E7704770B50446006889
:102BC00001694FF00005C943890715D4C168C9439D
:102BD000890711D4E91E01610120207720688069EE
:102BE0008007204602D0FFF7E7FF04E000F0C2F8BC
:102BF000204600F054F9257720680169C943490748
:102C000017D4C168C943490713D46FF004010161A7
:102C1000022020772068806910F4407F204602D08F
:102C2000FFF7CAFF04E000F0A5F8204600F037F9EE
:102C3000257720680169C943090716D4C168C943CB
:102C4000090712D46FF00801016104202077206881
:102C5000C0698007204602D0FFF7AEFF04E000F015
:102C600089F8204600F01BF9257720680169C943DF
:102C7000C90617D4C168C943C90613D46FF010013F
:102C80000161082020772068C06910F4407F204649
:102C900002D0FFF791FF04E000F06CF8204600F04E
:102CA000FEF8257720680169C943C90708D1C168C2
:102CB000C943C90704D1891E0161204600F0C8F943
:102CC00020680169C943090609D4C168C9430906D6
:102CD00005D46FF0800101612046FFF771FE206886
:102CE0000169C943490609D4C168C943490605D4E5
:102CF0006FF040010161204600F0B4F920680169DD
:102D0000C94389060BD4C168C943890607D46FF04B
:102D1000200101612046BDE87040FFF752BE70BD42
:102D200010B586B0044614216846FDF715FB0E4920
:102D30002068884215D10D480021026842F0100237
:102D40000260006800F01000059020200090022032
:102D5000CDE901010320CDE9031069460448FEF7DF
:102D60007FFD06B010BD0000004001403038024039
:102D700000100240704770B5044690F83C000026F1
:102D80000D4601280FD0012084F83C006AB1042AC6
:102D90001DD0082A2FD00C2A3FD00126002084F80D
:102DA0003C00304670BD022070BD206801F012F971
:102DB0002068816941F0080181612068816921F002
:102DC00004018161206881692A69114311E020684A
:102DD00001F030F92068816941F400618161206867
:102DE000816921F480618161206881692A6941EAF1
:102DF00002218161D2E7206801F052F92068C1699F
:102E000041F00801C1612068C16921F00401C1617C
:102E10002068C1692A69114311E0206801F074F942
:102E20002068C16941F40061C1612068C16921F471
:102E30008061C1612068C1692A6941EA0221C161DA
:102E4000ACE710B5040003D094F83D0010B107E0E2
:102E5000012010BD002084F83C00204600F01EF840
:102E6000022084F83D00211D206801F02FF8012088
:102E700084F8460084F83E0084F83F0084F840005F
:102E800084F8410084F8420084F8430084F8440048
:102E900084F8450084F83D00002010BD704770475D
:102EA00030B500250446022249B1042912D0082970
:102EB0004CD094F84100012853D0012030BD94F843
:102EC0003E000128F9D184F83E202068C26842F013
:102ED000020209E094F83F000128EED184F83F2077
:102EE0002068C26842F00402C2600122206801F03A
:102EF00051F821492068214A884201D0904203D1EB
:102F0000436C43F4004343642068884213D0B0F11B
:102F1000804F10D01A4988420DD01A4988420AD0F1
:102F20001949884207D0904205D01849884202D0FA
:102F30001749884204D1816801F00701062903D0AE
:102F4000016841F001010160284630BD94F840005D
:102F50000128B2D184F840202068C26842F00802FB
:102F6000C2E784F841200C2901D00125ECE7206854
:102F7000C26842F01002B7E70000014000040140BF
:102F80000004004000080040000C004000400140E8
:102F90000018004070B50D0004464FF0000607D041
:102FA000042D0AD0082D0DD00C2D10D001263FE0A5
:102FB0002068C16821F002010DE02068C16821F09D
:102FC000040108E02068C16821F0080103E02068DE
:102FD000C16821F01001C16000222946206800F07C
:102FE000D9FF194B41F2111120688A10984202D082
:102FF000164B984209D1036A0B4206D1036A134269
:1030000003D1436C23F4004343642068036A0B42FA
:1030100006D1016A114203D1016821F0010101606A
:1030200001203DB1042D08D0082D09D084F84100BD
:10303000304670BD84F83E00FAE784F83F00F7E7B9
:1030400084F84000F4E70000000001400004014063
:1030500000680349884201D1FEF760BD7047000057
:103060000000014070477047704710F83D1F4078DE
:1030700008437047F8B5016804460868CA684B6998
:1030800010F00F0F4FF0000559D003F0010602F4C5
:103090009077374365D0C10705D0D10503D5216CA2
:1030A00041F001012164410705D5D90703D0216C06
:1030B00041F002012164810705D5D90703D0216CB5
:1030C00041F004012164010707D502F020013143DA
:1030D00003D0216C41F008012164216C00293AD011
:1030E000800604D5900602D5204601F087F82068B6
:1030F0004069216CC0F38010090700D460B32046FA
:1031000001F055F820684069400621D52068143048
:1031100050E8001F21F0400140E80012002AF5D1DC
:10312000A06BA8B16C490165A06BFEF714FB0028E9
:1031300011D0A06B016D01B0BDE8F04008478306D7
:103140000FD593060DD52046BDE8F84001F056B8DE
:103150002046FFF789FFF8BD2046FFF785FF25646D
:10316000F8BD266B2023012E79D1C60677D5D60669
:1031700075D50868486800904869400640D5A16B3D
:10318000086840680004000CEAD0A28D8242E7D9AA
:10319000E085C869B0F5807F2DD020680C3050E8FC
:1031A000001F21F4807140E80012002AF5D1206848
:1031B000143050E8001F21F0010140E80012002AFD
:1031C000F5D12068143050E8001F21F0400140E89C
:1031D0000012002AF5D184F83E30256320680C30B7
:1031E00050E8001F21F0100140E80012002AF5D13C
:1031F000A06BFEF767FAA08DE18D401A81B229E03D
:10320000A08DE18D401A81B2E08D0028A8D0002960
:10321000A6D020680C3050E8002F22F4907240E8CD
:103220000026002EF5D12068143050E8002F22F03F
:10323000010240E80026002EF5D184F83E302563D7
:1032400020680C3050E8002F22F0100240E80023E4
:10325000002BF5D12046FFF706FFF8BDFFE7050676
:103260002BD5150629D594F83D002128F5D1A06865
:10327000B0F5805F01D12069B0B1206A411C2162A4
:10328000216800784860E08C401E0004000CE08457
:10329000E3D12068C16821F08001C1602068C16865
:1032A00041F04001C160D8E7206A0088C0F30800FF
:1032B0004860206A801C2062E5E74006CDD55006B4
:1032C000CBD5CA68204622F04002CA6084F83D305F
:1032D00000F0EBF9C1E700009F41000870B5040061
:1032E00004D094F83D00002510B106E0012070BD27
:1032F00084F83C50204600F023F8242084F83D0058
:103300002068C16821F40051C160204600F0D6FF5A
:103310002068016921F4904101612068416921F030
:103320002A0141612068C16841F40051C1602564EF
:10333000202084F83D0084F83E00002070BD00008D
:1033400070B586B0044614216846FDF705F8284E8E
:10335000226800212748022303240725B2421DD1F9
:10336000244A1432166846F010061660126802F0FD
:1033700010020592026842F001020260006802AA8F
:1033800000F00100059082E832006002CDE9000300
:1033900069461948FEF764FA06B070BD174EB2428E
:1033A000FAD1144A1032166846F480261660126864
:1033B00002F480220592026842F004020260006872
:1033C00002AA00F00400059082E832004FF4406049
:1033D000CDE9000369460A48FEF742FA00220521BA
:1033E0002720FEF79BFD2720FEF78AFDD4E700008B
:1033F0000010014030380240000002400048004008
:103400000008024090F83E30202B0ED159B152B145
:1034100090F83C30012B08D0012380F83C30002389
:10342000036300F0D1BF0120704702207047000005
:103430002DE9F0470068584988427DD1574800245B
:103440004FF6FF750178FF290BD3047064215448AF
:10345000FCF782FF2B460A2252A1554800F0CCF817
:1034600091E0544A13784E4A5354491CC9B20A4455
:10347000017012F8023C0D2BF2D112F8012C0A2A2D
:10348000EED102297FD04C4A1278002A7BD0491E07
:1034900082468AB22B464249454800F0ADF844487E
:1034A000FFF7E3FD2128FAD044A13D48FCF778FF5F
:1034B00018B13B48FCF76DFF40B964213848FCF770
:1034C0004BFF012236493E48FFF79CFF3DA134489F
:1034D000FCF74DFF3C4D012748B12F706421304867
:1034E000FCF73AFF01222E493548FFF78BFF37A141
:1034F0002B48FCF73CFF374E48B137706421284811
:10350000FCF72AFF012226492D48FFF77BFF32A155
:103510002348FCF72CFFDFF8C88050B188F8007012
:1035200064211F48FCF718FF01221D492448FFF7BA
:1035300069FF2CA11A4800E02CE0FCF718FFDFF827
:10354000AC9050B189F8007064211548FCF704FF75
:10355000012213491A48FFF755FF25A11048FCF72F
:1035600006FF70B12C70347088F8004089F8004074
:1035700064210B48FCF7F0FE012209491048FFF7CF
:1035800041FF8AF80040BDE8F047012209490C4894
:10359000FFF738BFBDE8F08700480040000000207A
:1035A000E80100106F766572666C6F7700000000AE
:1035B000F0030010050000100000001020000000C3
:1035C0003404001052445900010000104F50454E81
:1035D0000000000003000020434F4E4E000000009A
:1035E0000300001050554245580000000200001032
:1035F0004552524F520000002DE9F843044690F81E
:103600003D001F4616460D4620284CD1C5B1BEB11F
:1036100094F83C00012846D0012084F83C004FF08B
:103620000008C4F84080212084F83D00FEF73CFAF1
:10363000A6848146E684A068B0F5805F03D004E0EC
:103640000120BDE8F883206928B12E465FF000050F
:1036500084F83C800EE00026FAE78021204600F046
:10366000D0FEA0B9AEB116F8010B21684860E08C1D
:10367000401EE084E08C4B464FF00002009700288B
:10368000EBD14FF04001204600F0BBFE30B10320EB
:10369000D7E735F8020BC0F30800E6E7202084F8EE
:1036A0003D000020CDE70220CBE77047FEE7F0B5F4
:1036B00003688C88DD68C5F30B452C4425048824F9
:1036C00004EBC2141E5906F470461E5103680F68BD
:1036D000DE68C6F30B46761C3E442E431E5104683A
:1036E0008B89E568C5F30A052B441D048C2303EB85
:1036F000C213E65806F47046E65004688F68E66820
:10370000C6F30A06761C3E442E43E6509423046812
:1037100003EBC213E55825F00705E55005680C6971
:10372000EC5091F831300C7E1F0226069C2405686F
:1037300004EBC21491F8323055F804C04FF0000C7D
:1037400045F804C091F8305046EA03433D431D4319
:1037500003681D519823046803EBC213E55825F054
:10376000FF05E55005684C69EC50A023046803EBA5
:10377000C213E55840F20776B543E550D1E9074555
:103780002C430568EC50AC23046803EBC213E558E6
:1037900044F803C005684C6AEC500B698BB3012BED
:1037A00032D0042B32D0022B30D0032B2ED0072B5B
:1037B0002CD00123B024056804EBC2142E5906F066
:1037C000E0262E51D1E90065AD1B0E8D5D435E43B1
:1037D000ED1C45EA064305682B51B423046803EB4E
:1037E000C213E5586FF30A05E5500468C96AE15051
:1037F0000068842101EBC211425842F0010242509C
:10380000F0BDFFE70423D5E70323D3E70223D1E785
:1038100010B50A490446022008702046FCF7B9FD9D
:10382000014607A000F032FE0A201FF081FB21466E
:10383000BDE810400AA000F029BE000006000020EC
:1038400041542B514D5450554245583D302C302C4D
:10385000302C302C226D717474222C25640D0A00DA
:10386000257300000F4810B50D4901602421416007
:1038700000214FF480328160C0E9031212014261DD
:10388000017641768176C17601774177FDF7B1FD0A
:10389000002803D0BDE81040FDF77ABA10BD000043
:1038A000006800404C0200100A4810B50849016049
:1038B0004FF440314160022181600021C160FDF779
:1038C000C0FE002803D0BDE81040FDF761BA10BD6E
:1038D00000B00240CC01002000B587B01C21684632
:1038E000FCF73AFD16481549012201600021C0E9A4
:1038F000011208221023C0E90323402343614FF43F
:10390000C073C0E906311302C0E908319102816237
:10391000022006210090CDE9012107210391052114
:10392000CDE90410069069460548FEF74BFF0028D4
:1039300001D0FDF72DFA07B000BD0000400100A046
:103940007402001010B510481FF0C9FB0F4C0E4A4E
:1039500000212061903A0E481FF016FC0A4A2060B0
:103960006C3A00210B481FF00FFC074A6060483A90
:10397000002109481FF008FCA060034810301FF028
:10398000E4FA606110BD0000EC9C02080C0000200D
:1039900071F1000815F20008D1F100082DE9F04797
:1039A00086B014216846FCF7D7FC4948002401681A
:1039B00041F020010160016801F0200105910168DA
:1039C00041F080010160016801F08001059101680A
:1039D00041F004010160016801F0040105910168F2
:1039E00041F001010160016801F0010105910168E8
:1039F00041F002010160016801F0020105910168D6
:103A000041F040010160016801F040010591016849
:103A100041F010010160016801F010010591016899
:103A200041F0080101600068DFF8A88000F008009C
:103A30004FF400660590002231464046FEF72FF80D
:103A4000DFF894A0F710002239465046FEF727F819
:103A5000102000900125CDE90154DFF880906946DF
:103A600048460394FDF7FCFE0096CDE901546946F3
:103A700040460394FDF7F4FE40208DE8310069468E
:103A80004846FDF7EDFEC0208DE831006946144838
:103A9000FDF7E6FE0096CDE90154694640460394E1
:103AA000FDF7DEFE280300904FF48810CDE90104F5
:103AB00069464046FDF7D4FE0097CDE901546946BA
:103AC00050460394FDF7CCFE06B0BDE8F087000039
:103AD00030380240000C0240000802400010024052
:103AE00000140240094810B50749016003214160F4
:103AF0004FF47A718160FDF7DDFF002803D0BDE847
:103B00001040FDF745B910BD0030004078040010AA
:103B100010B58EB034216846FCF71EFC26482549B6
:103B20000024C0E9001484600321C460C0E904419A
:103B300081610B21C161016240F22B31416240F28F
:103B4000EB11816240F23331C16240F2F311016343
:103B500080F8344080F8354080F83640FEF770F841
:103B600008B1FDF715F94FF44870CDE900404FF466
:103B7000F07102220294CDE90312FF22CDE905245F
:103B80004FF480620792052208924A06CDE90A01A5
:103B90008DF8304009928DF831408DF83240002286
:103BA00069460548FEF722F8002801D0FDF7F0F835
:103BB0000EB010BD00680140A80200100F4810B5FB
:103BC0000D4901604FF48271416000218160C16044
:103BD0004FF400720161C0E90512C16101624162E6
:103BE00081620A21C162FEF745FE002803D0BDE8CC
:103BF0001040FDF7CDB810BD00300140500300105B
:103C000010B58CB000240794089409941C216846D0
:103C10000A94FCF7A1FB1A481849016040F20771A9
:103C2000C0E901146321C0E903148461FEF7CAFEF0
:103C300008B1FDF7ADF84FF48050079007A9104880
:103C4000FEF74CFF08B1FDF7A3F80D48FFF7F9F8B0
:103C500008B1FDF79DF8602000903220CDE9010405
:103C60000022694606480494FFF785F808B1FDF77D
:103C70008FF80348FFF754F80CB010BD0040014026
:103C8000A80300100C4810B50A4901604FF4E12167
:103C90004160002181600C22C160C0E90412816191
:103CA000C161FFF71BFB002803D0BDE81040FDF702
:103CB0006FB810BD00100140F00300100C4810B5A3
:103CC0000A4901604FF4E1214160002181600C222A
:103CD000C160C0E904128161C161FFF7FFFA0028E9
:103CE00003D0BDE81040FDF753B810BD00480040B8
:103CF00034040010FEE7FEE7012210B50023114650
:103D0000104600F01FF80120FDF738FD01220023C6
:103D10001146022000F016F800230822012103209A
:103D200000F010F801224FF40C731146042000F04B
:103D300009F8BDE8104040F2AB210148FEF765BD2F
:103D4000740200101FB5012902D0022902D002E03E
:103D5000102400E00824CDE90004CDE902234FF44B
:103D6000805269460448FEF767FD002801D04FF0F5
:103D7000FF3004B010BD00007402001010B54FF009
:103D8000E020006925F048FD012803D0BDE810407F
:103D900025F03EB910BD000030B593B03021684623
:103DA000FCF7DAFA14210CA8FCF7D6FA1F48002514
:103DB000016841F080510160006800F0805011906E
:103DC0001B48016841F4404101600068022400F48E
:103DD0004040119001200090000401908001CDE945
:103DE000064008AA0420B42182E813000B9068461C
:103DF000FEF732FB08B172B6FEE7FEF7C1F808B174
:103E000072B6FEE70CA90F2081E831004FF4A050F4
:103E10000F904FF48050109005210CA8FEF712FA75
:103E2000002801D072B6FEE713B030BD4038024022
:103E3000007000400248016841F470010160704761
:103E400088ED00E070B515480026154D0178012079
:103E5000144C082916D028702078012811D1124D51
:103E600000212878C0F1010028701048FFF792F86F
:103E700029780F4801290FD000221021FDF70FFEED
:103E8000267070BD207028780128FAD100210748DB
:103E9000FFF706F82E7070BD0122EEE70600001055
:103EA000050000200400001004000020A8030010FA
:103EB000001002400148FEF780BE0000A803001079
:103EC0000148FEF77ABE00000C020020F0B502683F
:103ED000254C264D264E274F274B4FF0804CA042B5
:103EE00009D0604507D0A84205D0B04203D0B842FF
:103EF00001D0984204D122F0700E4A6842EA0E02C4
:103F0000A0421BD0604519D0A84217D0B04215D0AE
:103F1000B84213D0984211D0184DA8420ED0184D77
:103F2000A8420BD0174DA84208D0174DA84205D083
:103F3000164DA84202D0164DA84203D122F4407576
:103F4000CA682A434D6922F080022A4302608A68C7
:103F5000C2620A688262A04201D0984201D1096916
:103F6000016301214161F0BD0000014000040040F7
:103F700000080040000C00400004014000400140E7
:103F8000004401400048014000180040001C00406F
:103F90000020004010B501F01F030121046A994080
:103FA0008C430462016A9A401143016210BD10B54E
:103FB000846842EA032224F47F440A432243826055
:103FC00010BD826822F070020A4342F0070181604E
:103FD00070470000F0B5026A22F001020262036A33
:103FE00042688469124E24F073050C682C4323F058
:103FF00002058B682B430D4DA84201D0B04205D17C
:1040000023F00807CB683B4323F00403A84201D008
:10401000B04205D14D6922F4407215438A692A43A2
:1040200042608461496841630362F0BD0000014061
:1040300000040140F0B5026A22F010020262026A36
:10404000436884690D6824F4E64444EA05248D68D5
:1040500022F0200242EA05120F4D104EA84201D074
:10406000B04206D1CF6822F0800242EA071222F065
:104070004002A84201D0B04207D14D6923F4406309
:1040800043EA85038D6943EA850343608461496897
:1040900081630262F0BD00000000014000040140A5
:1040A000F0B5026A22F480720262026A4368C4694F
:1040B00022F4007224F073050C68124E2C438D68B4
:1040C00042EA05220E4DA84201D0B04206D1CF6887
:1040D00022F4006242EA072222F48062A84201D060
:1040E000B04207D14D6923F4405343EA05138D696B
:1040F00043EA05134360C4614968C1630262F0BDCD
:10410000000001400004014030B5026A22F48052F0
:104110000262046A4268C3690D6823F4E64343EA15
:1041200005238D6824F4005444EA0534084DA84260
:1041300002D0084DA84204D14D6922F4804242EADF
:1041400085124260C36149680164046230BD0000A9
:10415000000001400004014010B5036A046A24F025
:1041600001040462846924F0F00444EA021423F098
:104170000A020A438461026210BD10B5036A23F08B
:10418000100303628369046A23F4704343EA023232
:1041900024F0A00343EA01118261016210BD10B551
:1041A000806B0021C185C184FEF75EFF10BD0168F0
:1041B0000C3151E8002F22F4907241E80023002BCB
:1041C000F5D10168143151E8002F22F0010241E8D5
:1041D0000023002BF5D1016B012909D101680C31B5
:1041E00051E8002F22F0100241E80023002BF5D106
:1041F000202180F83E1000210163704708B590F837
:104200003E10222901D0022008BD82684FF480535D
:104210009A4201D1016921B1816A9A421BD04AB107
:104220000AE00268816A5268C2F308020A80816A61
:10423000891C08E0026972B10268526802F07F02CC
:104240000A70816A491C8162C18D491E0904090CEA
:10425000C18503D019E002685268F1E70168CA68B5
:1042600022F02002CA600168CA6822F48072CA6023
:1042700001684A6922F001024A61202180F83E105B
:10428000016B012903D0FFF7D3F8002008BD0021FE
:10429000016301680C3151E8002F22F0100241E85F
:1042A0000023002BF5D101680A68D20602D50A68FE
:1042B00049680091818DFEF7D6FEE6E770B50446A9
:1042C00000680169E26821F44051114301612169EC
:1042D000A068E26908436169114308432168CA681C
:1042E00049F20C639A430243CA6020684169A2699B
:1042F00021F440711143416131492068884202D064
:104300003049884202D1FEF767F801E0FEF754F821
:10431000E2690023192164253226B2F5004F626854
:1043200028D0A0FB0101930F9200FBF7BDFF0146CF
:10433000B0FBF5F06FF01802504301EB800006EB84
:104340000010B0FBF5F000F0F002B1FBF5F002EB6D
:104350000012B1FBF5F06FF01803584301EB800039
:1043600006EB0010B0FBF5F000F00F0021681044E0
:10437000886070BDA0FB010192185B41FBF794FFC0
:104380000146B0FBF5F00201B1FBF5F06FF0180348
:10439000584301EB800006EBC000B0FBF5F000F0E5
:1043A000F80002EB4002B1FBF5F0584301EB80004E
:1043B00006EBC000B0FBF5F000F00700D6E7000008
:1043C000001001400014014081628285C2850021F5
:1043D0000164222280F83E2080F83C10016921B15E
:1043E0000168CA6842F48072CA6001684A6942F092
:1043F00001024A610068C16841F02001C1600020EB
:1044000070472DE9F041984617460E460446069D32
:1044100027E0681C25D02DB1FDF746FBA0EB080076
:10442000A8421ED920680C3050E8001F21F4D0713A
:1044300040E80012002AF5D12068143050E8001F2F
:1044400021F0010140E80012002AF5D1202084F873
:104450003D0084F83E00002084F83C000320BDE8C5
:10446000F0812068006836EA000004D00020B842DD
:10447000CFD00020F3E70120F9E700000148FEF764
:10448000F9BD000034040010FEE700000FB4054B36
:1044900010B503A9044A029801F0A4FD10BC5DF810
:1044A00014FB0000ED0001089C0100200FB4084B34
:1044B00010B504A902AA039801F094FD044602A9CC
:1044C000002002F012F9204610BC5DF814FB000039
:1044D000EB6600080907090E002804DB00F1E02064
:1044E00080F80014704700F00F0000F1E02080F821
:1044F000141D704702E008C8121F08C1002AFAD133
:1045000070477047002001E001C1121F002AFBD153
:10451000704770B5044600256FF02F0608E020684C
:10452000411C2160007805EB850106EB410145182F
:104530002068007800F0C6F80028F0D1284670BD49
:104540002DE9FF5F82B00021DDE90430020DDDF8C6
:1045500040B0034318D044F61050A2F2FF32424359
:104560001514119801281FD0A5EB0B00401C5FEA21
:10457000000A4FF000064E4FDFF83891B046504623
:1045800015D5CAF1000413E0119801244AA30128AB
:1045900001D16FEA0B010298119AC0E90031C0E91C
:1045A000024206B0BDE8F09FCBF10000DFE7044611
:1045B0000021404A491842EB0450CDE9001012E0B6
:1045C000E00707D032463B4640464946FBF7EEFF40
:1045D0008046894632463B4610461946FBF7E6FFC1
:1045E00006460F466410002CEAD1DDE90401DDE93E
:1045F0000023BAF1000F06DAFBF7D8FF42464B461C
:10460000FBF7D4FF05E0FCF743F842464B46FCF7C6
:104610003FF804460E460022284BFCF7C1F803D8A9
:104620004FF0FF30014607E00022254B204631467F
:10463000FBF715FFFCF79BF8102409E0002C0ADBC0
:104640000A220023FBF730FE039B30321A55641E0A
:1046500050EA0102F2D1641C039AC4F1110314441C
:10466000119A012A03D0012208430DD10AE0084320
:1046700004D000204FF0110B119072E7A3EB0B0553
:104680006D1E0DE05B4504DD4FF0000205F10105F4
:1046900004E003DA4FF00002A5F10105002AECD096
:1046A00002981199C0E90231C0E9004579E700009C
:1046B000000014400000F03F300000000000F04314
:1046C0000000E03F3038092801D801207047002061
:1046D0007047000010B54021074800F0B1FF0022EC
:1046E0001E2106481DF0C8FA054CA06002F0BAFB76
:1046F0000020207010BD0000884E00100D6F0008D3
:104700005001001070B5B1F90030B2F90040A34279
:1047100000DC23460380B1F90250B2F90240A54201
:1047200000DD2C464480B1F90460B2F90450AE4279
:1047300000DA35468580B1F90610B2F906209142BB
:1047400000DB1146C1800120AB4201DC8C4200DD60
:10475000002070BDF8B50D460446B0F90000B1F96F
:1047600000101646884247DBB4F90210B5F9022062
:10477000914241DBB4F90410B5F9042091423BDCCD
:10478000B4F90610B5F90620914235DC96B3ADF8C0
:1047900000006088ADF8020032466946284600F005
:1047A00099F8002827D0A088ADF800006088ADF8FF
:1047B000020032466946284600F08CF800281AD0DC
:1047C0002088ADF80000E088ADF802003246694666
:1047D000284600F07FF800280DD0A088ADF8000032
:1047E000E088ADF8020032466946284600F072F8CB
:1047F000002800D00120F8BD0020F8BDB0F900204D
:10480000B1F904309A4213DCB0F90420B1F9003058
:104810009A420DDBB0F90220B1F906309A4207DC6A
:10482000B0F90600B1F90210884201DB012070479F
:1048300000207047F8B50D460446B0F90400B1F900
:1048400000101646884243DBB4F90600B5F90210A1
:1048500088423DDBB4F90000B5F90410884237DC2A
:10486000B4F90210B5F90620914231DC76B3ADF807
:1048700000006088ADF8020032466946284600F024
:1048800029F818BBA088ADF800006088ADF80200D8
:1048900032466946284600F01DF8B8B92088ADF8C0
:1048A0000000E088ADF8020032466946284600F074
:1048B00011F858B9A088ADF80000E088ADF8020002
:1048C00032466946284600F005F808B10020F8BDD8
:1048D0000120F8BD2DE9FC4114460E46B1F9002037
:1048E000B0F9001005468A423ADBB5F9040082426D
:1048F00036DCB6F90270B5F90220974230DBB5F923
:1049000006309F422CDC002C75DD401A9A1A401CA0
:10491000521C00B212B200EBD07002EBD272401007
:104920005210904200DB1046844200DD0446ADF890
:104930000010288800222044ADF804006888ADF8F3
:104940000200688831462044ADF806006846FFF74B
:10495000C1FF40B1BDF804002044ADF804003FE0C1
:104960000020BDE8FC81E8880022001BADF80200B1
:10497000E888ADF8060031466846FFF7ABFF28B17E
:10498000BDF804002044ADF8040011E0A88800221E
:10499000001BADF80000A888ADF804003146684659
:1049A000FFF798FF50B1BDF80000001BADF8000004
:1049B000BDF80200001BADF8020016E06888ADF8F3
:1049C0000200688800222044ADF80600314668469F
:1049D000FFF780FF70B1BDF80000001BADF80000CC
:1049E000BDF806002044ADF80600314668461AF0CE
:1049F000ABFBB6E7FFE70120B3E710B5B1F9004024
:104A0000B2F900309C4200DA23460380B1F902403B
:104A1000B2F902309C4200DA23464380B1F90440E7
:104A2000B2F904309C4200DD23468380B1F90610C0
:104A3000B2F90620914200DC1146C18010BD000091
:104A40002DE9F0418AB005461DF0C4F80026A04CBF
:104A5000074600960DB1E86801E010F0BBF9606010
:104A600000691AF00DFB6068406908B11AF008FB94
:104A70006068C0691AF004FB6068006A1AF000FB05
:104A800060680169F1B31AF08BFD1AF007FD6068E8
:104A9000B0F8501199B30168097C890715D510F059
:104AA000F7F9401E05B2606810F0ACF9401E03B281
:104AB0000022114601A800950DF0FFFF606801A9D2
:104AC0000268926B516004F05DFD60684FF4807184
:104AD000303016F0E1F86068202100F5987016F08B
:104AE000DBF86068A0F8506138461DF06DF8009062
:104AF00060680068436A13B122680099984715F00E
:104B00000DFF00E007E000F02FF900F001F9714D12
:104B10006F692FB13FE0A0F850610AB0BDE8F081A5
:104B200015F0DBFC14F0F0FD074600227F211AF09F
:104B3000C9F90FF029FB0146002238461AF09AF90C
:104B40000FF0C1FD0146002238461AF024FA002277
:104B5000032138461AF00EFA0022032138461AF0D3
:104B6000F7F90022032138461AF0F8F90022032150
:104B700038461AF0F9F90022032138461AF005FAEE
:104B800055A1384615F02AFC00231A46062138465E
:104B900016F04AFC6F6128681DF016F84FF49678FD
:104BA00040450CD2206841F28831884231D968688A
:104BB000009908446860A868401CA86029E01DF0BE
:104BC00009F8286060684FF47A7140680068B1FBAA
:104BD000F0F0696809B901216960A968F1B14FF481
:104BE0007A7251436A68B1FBF2F46E60AE6084423F
:104BF00000D90446286920442861E868401CE86020
:104C00001DF06CF8C0F16403224634A1384615F05B
:104C10001CFC2F4D08356C6814B137E00446E4E7FE
:104C200015F05BFC14F070FD044600227F211AF0A1
:104C300049F90FF0A9FA0146002220461AF01AF9A4
:104C40000FF041FD0146002220461AF0A4F900228F
:104C5000032120461AF08EF90022032120461AF083
:104C600077F90022032120461AF078F90022032167
:104C700020461AF079F918A1204615F0AFFB002361
:104C80001A460421204616F0CFFB6C6028681CF001
:104C90009BFF40457FF641AF1CF09CFF286002A8B7
:104CA00015F0CCFE04990298401A820A514200EB9A
:104CB00081206621B0FBF1F39DF821109DF82000C2
:104CC000CDE9000109A1204615F0BFFB25E7000052
:104CD00058000010BC7901203F00000025752046D7
:104CE00050530A25752525204350550025752E253E
:104CF00075206B4220757365642028256420252566
:104D0000290A2564252520667261672E00000000AF
:104D100070B50A4D002400BFC4EBC40655F8260048
:104D200008B115F06FFE05EB86001C2115F0B4FFED
:104D3000641CE4B2042CEFD370BD0000644F00107B
:104D4000084949680AE04A68824202D00A688242F9
:104D500003D10A7E42F001020A7649690029F2D1A4
:104D60007047000044000010704700000421014813
:104D700000F066BC7C4E00101C21014800F060BCB5
:104D8000944E00102DE9FF5F0446DDE90E0613B9CD
:104D9000B0F5807F7ED0B6F900504FF0FF376D42FE
:104DA000454307EB25252DB22580B6F902C0CCF18D
:104DB000000C0CFB00FC07EB2C273FB26780B6F918
:104DC00000C0A1EB0C0141434FF0020C0CEB212180
:104DD00009B2A180B6F90280A2EB080242430CEBB3
:104DE000222000B2E080002B7ED04FF00A0A93FB15
:104DF000FAF5684200EB800003EB400705F101097A
:104E000028B21DF04DF900900FFA89F01DF048F915
:104E100083465A3528B21DF043F9804609F15A00FD
:104E200000B21DF03DF90146009AC7F10A0000FBEF
:104E300002F300FB08F00BFB073301FB070193FBB8
:104E4000FAF291FBFAF04FEA601AB4F90010B4F9E3
:104E500002000AFB01FCCDF80CC05511378805FB98
:104E600010C207EBA2220FFA82F905FB01F2BB4642
:104E7000029277880AFB002107EBA1210BB2B4F95B
:104E80000410BE460AFB01FC05FB10C20BEBA2227C
:104E900016B200E02FE005FB01F7CDE9007CB4F984
:104EA0000680DDF80CC00AFB007005FB18C1DDF8B8
:104EB00004C0009F05FB18C5029A0AFB087C0AFB88
:104EC00008220BEBA1210EEBAC270EEBA02009B2C0
:104ED0000EEBA2220BEBA5250FFA87FC00B212B253
:104EE0002DB24F46494500E00EE000DA0F46B542CC
:104EF00016DAA84615E000202080491E6080A180B7
:104F0000521EE280BDE8FF9F32882A4422807288C8
:104F10003A44628032881144A180718808444FE08D
:104F2000B046474504DA4F46494506DA0F4604E0E5
:104F3000B54201DA2F4600E0374627804F46494503
:104F400000DD0F46B54201DDA84600E0B04647450A
:104F500003DD4D46494505DC01E0B54201DD29464A
:104F600000E03146A1809A4201DA154600E01D4674
:104F7000844501DA614600E001468D4205DA9A4235
:104F800001DA114606E0194604E0844501DA61467B
:104F900000E0014661809A4201DD114600E01946B9
:104FA000844501DD654600E00546A94205DD9A42DB
:104FB00001DD104604E0184602E0844500DD60464D
:104FC000E0809FE72DE9FE4F0446D0F800B0B0F92D
:104FD0000800E589081AB4F90A10511AD4E909320F
:104FE000B5F5807F38D0A589ADB3A66B7043451168
:104FF0004E437011266BE16A06FB05F701FB107743
:10500000694306FB001003EBA72902EBA0208046B2
:105010000612B4F904004FEA2927B8424EDD002FEA
:105020004CDBB4F90610B14248DD002E46DB94F8A3
:1050300034104A0745D58A0704F1140322D400FB33
:10504000067045004FF0020A0BEB05015246184668
:1050500015F0D8FD27E00DE0256BE66A05FB00F7AB
:1050600006FB1177464305FB016003EBA70902EB42
:10507000A000CCE7A56B68434D4303EB601902EB3E
:105080006510C4E700FB067000EB40054FF0030A13
:105090000BEB05010222184615F0B4FDE81C58443C
:1050A00010F8010CA07594F83400C0071FD04FF41D
:1050B000FC60ADF80000A18A814218D10020BDE853
:1050C000FE8F32B204F118002369CDE901020025F8
:1050D00039B2AA468B4613F0BDF90090BDF8000026
:1050E000A082DDE90102594613F04CF9DAE7E07CD1
:1050F00078B1A4F83C90A4F83E80A4F84070A4F8DD
:105100004260656484F848A02046BDE8FE4F00F088
:1051100002B80120D3E72DE9F04F044690F83C1087
:10512000D0F8009090F83E0087B04FF0FF3670291D
:1051300007DAB4F940203546012A00D50025803130
:105140000DE0902916DDB4F94020B4F904300125B2
:10515000521C9A4200DB0025A1F27F114942C9B2DC
:105160008846702809DAB4F94210012900D50026D2
:10517000803010E00025FF21F2E790280DDDB4F922
:105180004210B4F906200126491C914200DB00269A
:10519000A0F27F104042C7B201E00026FF276069FD
:1051A0000090A07D0590002083468246049094F8EC
:1051B0003400400744D594F84810606C11FB050199
:1051C0004944022201A815F01DFDA08894F848105A
:1051D00010FB01F0616C022206FB0011494403A898
:1051E00015F010FDA18894F8480011FB00F1626CE5
:1051F00006FB012210FB05901118022202A815F0EF
:1052000001FD94F83400800761D594F84800626C81
:1052100010FB052300EB09010B4413F8013C049338
:10522000A38813FB00F306FB0322114411F801BC11
:1052300010FB0500111801EB090010F8010C45E006
:10524000B4F84000B4F94220284401B204F1180037
:105250008146236913F0FEF80190B4F84200B4F9D6
:105260004010304402B254F8103F484613F0F2F8B0
:105270000390608E2368304402B2208E284401B22D
:10528000484613F0E7F8029094F82400103C800799
:105290001DD5B4F9422034F8400F284401B24846E5
:1052A00013F070F804906088B4F90010304402B232
:1052B000484613F067F883466088304402B234F8F9
:1052C0004009284401B2484613F05CF8824694F83D
:1052D000340042464546800735D5059810FB08F353
:1052E0000499C8F1FF0011FB0031C1F307211BFB3A
:1052F00008F61AFB0060C0F3072011FB07F3C7F1A3
:10530000FF0610FB06331B0AA375022907D80228E3
:1053100003D8002007B0BDE8F08F002702E0022884
:1053200000D8FF270598022800D8002204980228F8
:1053300000D8FF22BBF1020F00D80025BAF1020FFE
:1053400003D8FF2501E0FF20A075EAB1FF2A04D0B1
:10535000DDE900010FF02CF90090BDB1FF2D17D051
:10536000DDE902102A460FF023F9049097B1FF2FD0
:1053700005D001463A4600980FF01AF90090BDF8A2
:105380000000A0820120C5E70198E5E70298ECE75C
:105390000398EAE7BDF81000F3E700002DE9F047B5
:1053A0000446B0F908000A2700026062B4F90A0056
:1053B0000002A062B4F90C1091FBF7F5684200EB13
:1053C000800001EB4006684205F1010800B21CF0C4
:1053D00067FE8246E84300B21CF062FE8146C5F1DA
:1053E0005A0000B21CF05CFE0546C8F15A0000B23B
:1053F0001CF056FEC6F10A0101FB0AF3024609FB46
:105400000630694390FBF7F002FB061191FBF7F1C0
:105410004011E06248112063A07C13F0C8F894F8B2
:10542000341060F3000184F83410A07C13F0AFF85E
:1054300094F8341060F3410184F83410A07C0428FF
:1054400024D0052822D0062820D021F0040100BF56
:1054500084F8341021682162A16921F0E00160F331
:105460000401A08860F39421E08860F35F51A1619A
:10547000E0894FF4001101EB5001B1FBF0F0A063A3
:10548000FF20A075208AA082BDE8F08741F00401CA
:10549000DEE700002DE9F04115460E460746114CA7
:1054A0001CF098FB80462B4632463946204613F0C6
:1054B000FFFB20B10020A062E06950B110E02C2178
:1054C000204615F0E9FB4FF00040A0620020BDE847
:1054D000F08140461CF078FBE06108B90120E061F2
:1054E0002046F4E7B84E001010B51421074800F02C
:1054F000A7F813F0A3FB40B10549016005494160DD
:10550000054981600549C16010BDFEE7A04E00104D
:1055100069860108E58901085D8B01083586010867
:105520007FB50E46040003D10FF054FC040023D0D5
:105530000025FEB1ADF80050ADF802500FF062FC4E
:10554000401EADF8040020460FF0A2FC401EADF84E
:1055500006006A46314602A8FFF7D4F800280BD0AF
:105560002068017C890708D5DDE90001C4E90C0148
:1055700001202AE0A0F850517FBD82690AB102A93A
:10558000904700260BE000BF04EBC601002202A8F2
:105590003031FFF7DFF80028EED1761CB6B2B4F850
:1055A0005001B042F0D880B2202804D204EBC000F1
:1055B00002A9303004E0A4F8505104F130006946EB
:1055C0000DF0D2F9B4F85001401CA4F85001606805
:1055D0000028D1D01CF030FC7FBD70B5054600F02E
:1055E00012F804460CE02146284600F01EF8064654
:1055F0002146284600F071F8204615F003FA34469B
:10560000002CF0D170BD002800D04068704700B574
:1056100003460022FFF7F7FF03E01846521C00F094
:1056200004F80100F9D1104600BD0068091D40587A
:105630007047006840587047002800D08068704765
:1056400000224260C91C21F00301826001607047A2
:1056500070B504460068083015F04AF9050013D00B
:105660000146002220461DF0CDFB294620466268F7
:105670001DF0C2FB616819B12A4620461DF0C2FB2D
:105680006560A06800B9A560284670BD70B5044685
:105690000068083015F02CF9050013D001460022EF
:1056A00020461DF0A9FB29462046A2681DF0AAFB52
:1056B000A16819B12A4620461DF09EFBA5606068CE
:1056C00000B96560284670BD28B1416809B9806895
:1056D00008B1002070470120704770B504000DD05C
:1056E000FFF791FF00228842204608D1FFF79DFF77
:1056F0006060011E01D000221EE0A26070BDFFF7B5
:105700009BFF8842206808440AD10168A16029B142
:105710002046BDE8704000221DF06EBB626070BD87
:1057200005682046FFF781FF0646024629462046C7
:105730001DF062FB2A4631462046BDE870401DF050
:1057400061BB10B50446006882680AB121469047E3
:1057500020680068002801D02060F5E710BD80684F
:10576000002801D0B0F91600704700002DE9F0477D
:10577000074690B0408C189E40F004007884904614
:105780003A8499468A463289384617F007FE05461C
:10579000A7F8209032895146384617F0FFFD04469D
:1057A000788CA54220F00400788403D12904B1EB61
:1057B000044F68D0A7F8208032895146384617F048
:1057C000EDFD05468046A7F82090514638460BF07F
:1057D000E9FA318900682A461BF072F9308960289D
:1057E00023D147F6FF794D4501D04C451DD13846B0
:1057F00017F01FFF00EBD0704510384617F019FF67
:1058000000EBD0704010C84506D1691C431C99427A
:1058100000DA00E0194688464C4506D1691C421C56
:10582000914201DA6C1C00E014461948FFF710FFA2
:1058300005002BD02F60C5E903843089A880684615
:10584000C5F808A00CF0A8FB1248FF21CDE90050D4
:10585000114802901148039000200790CDE90801FB
:1058600030880A9070889DF83E1040420B90F06896
:105870000690002060F300018DF83E10306905901D
:1058800068460CF0FDFB10B0BDE8F087FEE70000B5
:10589000AC4E0010317002081D72020879710208C6
:1058A00014210148FFF7CCBEAC4E00102DE9FC5F7F
:1058B000002592468B4606462C46042743F60F08E1
:1058C00043F60E0901E100BFF06807EBC401405840
:1058D00081017CD480B230EA0B0113D05FF000016B
:1058E00030EA0A0010D00020814270D0F06801AA8E
:1058F00041F6100150F8340000901AF0C7FE00285D
:1059000066D103E00121EBE70120EDE701AA41F6B2
:10591000110100981AF0BAFE002873D101AA41F6CD
:10592000120100981AF0B2FE00286BD101AA41F6CC
:10593000130100981AF0AAFE002863D101AA41F6CB
:10594000150100981AF0A2FE00285BD101AA41F6C9
:10595000140100981AF09AFED0BB01AA41F2690125
:1059600000981AF093FE98BB01AA43F20C0100982C
:105970001AF08CFE60BB01AA43F20D0100981AF0E8
:1059800085FE28BB01AA41F2010100981AF07EFEB3
:10599000F0B901AA41F2040100981AF077FEB8B9F3
:1059A00001AA41F2020100981AF070FE80B901AA22
:1059B00041F2030100981AF069FE48B901AA41F2C8
:1059C000050100981AF062FE10B901AA01E07BE01F
:1059D00018E041F2060100981AF058FE90B901AAA9
:1059E00041F2320100981AF051FE58B901AA41461D
:1059F00000981AF04BFE28B901AA494600981AF0FF
:105A000045FE10B10320BDE8FC9F01AA40F60A0143
:105A100000981AF03BFEE8BB01AA40F60B01009883
:105A20001AF034FEB0BB01AA414600981AF02EFECF
:105A300080BB01AA494600981AF028FE50BB01AA73
:105A400040F63C0100981AF021FE18BB01AA40F66E
:105A50003D0100981AF01AFEE0B901AA40F63A0199
:105A600000981AF013FEA8B901AA4FF40461009837
:105A70001AF00CFE70B901AA40F6450100981AF020
:105A800005FE38B901AA40F6410100981AF0FEFD62
:105A900000B900E014E001AA40F6420100981AF0B3
:105AA000F5FD68B901AA40F6430100981AF0EEFD31
:105AB00030B901AA40F6490100981AF0E7FD08B193
:105AC000022501E005B90125641C708CC0F3C500F6
:105AD000A0423FF6F9AE284695E70000014840682D
