:020000040800F2
:100000002850022085020008C73600084D3100083C
:10001000C5360008CD090008D53B000800000000E7
:10002000000000000000000000000000C501000802
:10003000150A000800000000210200084D370008E2
:100040009F0200089F0200089F0200089F0200080C
:100050009F0200089F0200089F0200089F020008FC
:100060009F0200089F0200089F0200089F020008EC
:100070009F0200089F0200089F0200089F020008DC
:100080009F0200089F0200089F0200089F020008CC
:100090009F0200089F0200089F0200089F020008BC
:1000A0009F020008153800089F0200089F02000800
:1000B0009F0200089F0200089F0200089F0200089C
:1000C0009F0200089F0200089F0200089F0200088C
:1000D0009F0200089F0200089F020008C93B000819
:1000E0009F0200089F0200089F0200089F0200086C
:1000F0009F0200089F0200089F0200089F0200085C
:100100009F0200089F0200089F0200089F0200084B
:100110009F0200089F0200089F0200089F0200083B
:100120009F0200089F0200089F0200089F0200082B
:100130009F0200089F0200089F0200089F0200081B
:10014000D10900089F0200089F0200089F020008D2
:100150009F0200089F0200089F0200089F020008FB
:100160009F0200089F0200089F0200089F020008EB
:100170009F0200089F0200089F0200080000000084
:100180009F0200089F0200089F0200089F020008CB
:100190009F0200089F0200089F0200089F020008BB
:1001A0009F0200089F0200089F020008DFF810D09D
:1001B00000F00EFB00480047511C0208AFF300801E
:1001C000285002202C4B19680868B0E8F04F80F3E3
:1001D0000988BFF36F8F4FF0000080F311887047DC
:1001E0000000000008480068006880F308884FF0AD
:1001F000000080F3148862B661B6BFF34F8FBFF37F
:100200006F8F00DF00BF00BF08ED00E0DFF80C00DB
:10021000016841F470010160704700BF88ED00E0A3
:10022000EFF30980BFF36F8F134B1A681EF0100FA6
:1002300008BF20ED108A20E9F04F106009B44FF09C
:10024000500080F31188BFF34F8FBFF36F8F27F0FB
:10025000BDFF4FF0000080F3118809BC19680868E1
:10026000B0E8F04F1EF0100F08BFB0EC108A80F31A
:100270000988BFF36F8F704710000010EFF30580FF
:10028000704700000648804706480047FEE7FEE743
:10029000FEE7FEE7FEE7FEE7FEE7FEE7FEE7FEE736
:1002A00005380008AD0100082DE9F05F0546002083
:1002B00092469B4688460646814640241BE02846D7
:1002C00041464746224600F0BAF853465A46C01AFD
:1002D000914110D311461846224600F0A1F82D1A7C
:1002E00067EB01084F4622460120002100F098F8F4
:1002F00017EB00094E41201EA4F10104DFDC484643
:1003000031462A464346BDE8F09F10B5431A934252
:1003100009D28318881803E010F8011D03F8011DA5
:10032000521EF9D210BD40EA01039B0703D009E039
:1003300008C9121F08C0042AFAD203E011F8013BD1
:1003400000F8013B521EF9D210BDD2B201E000F814
:10035000012B491EFBD270470022F6E710B5134669
:100360000A4604461946FFF7F0FF204610BD30B597
:1003700005462A460B4612F8010B13F8014B08B14B
:10038000A042F8D01CB1002802D06D1CF1E728462D
:1003900030BD421C10F8011B0029FBD1801A7047A8
:1003A00010B5002200E0521C835C8C5CA34201D19A
:1003B000002BF8D1D8B2E1B2401A10BD034611F8B3
:1003C000012B00F8012B002AF9D11846704700F0E4
:1003D000004230F000400AD0C10D01F56071C0F359
:1003E000160042EA0151C20840071143704700203D
:1003F0000146704730B50B460146002020220124FB
:1004000009E021FA02F59D4205D303FA02F5491BE2
:1004100004FA02F52844151EA2F10102F1DC30BDF8
:10042000202A04DB203A00FA02F1002070479140B4
:10043000C2F1200320FA03F3194390407047202AA9
:1004400004DB203A21FA02F00021704721FA02F37E
:10045000D040C2F1200291400843194670472DE96F
:10046000FE4F804681EA0300C00F0C46009021F049
:10047000004123F00045B8EB0200A94105D24046F7
:10048000214690461C460B46024623F0004010438E
:1004900047D0270DC7F30A00C3F30A510290401A50
:1004A000019040286BDAC3F3130040F4801B0098DE
:1004B000924620B10023D2EB030A63EB0B0B0198A9
:1004C0005946C0F140025046FFF7AAFF06460D46C6
:1004D00050465946019A00F08DF910EB0800614131
:1004E000002487EA115284EAE7731A4340D0009A45
:1004F00062B3019A012A4FEA075215DC001B61EB37
:1005000002014FF0004202EA0752CDE90042001C0E
:1005100041F5801132462B4600F08DF903B0BDE85D
:10052000F08F40462146F9E7001B61EB0201001CF9
:1005300041F5801300185B412018A2F5001747EB26
:10054000030140EAD570B6196D4111E06D084FEA1C
:10055000360645EAC0754FEA0752001B61EB0201FF
:10056000001C41F5801149084FEA30000019514143
:1005700032462B4603B0BDE8F04F00F04DB900986D
:10058000012240000023D0EB020263EBE0730098ED
:1005900021464FEAE074B8EB000061EB0401E9E7A3
:1005A00083F000435BE781F0004158E72DE9FE4FFF
:1005B00081EA030404F0004421F0004100944FF06C
:1005C000000B23F0004350EA01045ED052EA03041A
:1005D0005BD0C3F30A54C1F30A552C44A4F2F3349C
:1005E0000194A0FB0254C1F3130141F48011C3F341
:1005F000130343F4801301FB024400FB034E840AFF
:10060000970A44EA815447EA8357A4FB0768029596
:100610008D0A05FB07854FEA932C04FB0C54270534
:10062000029D4FEA065847EA1637B5EB08056EEB10
:10063000070C870E920E47EA811742EA8312A7FB46
:100640000201B6EB0B0164EB00042B0D43EA0C3303
:100650005E1844EB1C50DA465146E7FB0201C5F335
:1006600013044FEA0B3343EA14534FEA0432019C5C
:1006700043EA0603A4F10C040294009CCDE900B403
:1006800000F0D9F803B0BDE8F08F00200146F9E78B
:100690002DE9F04D81EA030404F0004B21F0004500
:1006A00014464FF0000A23F0004150EA050220D022
:1006B00054EA01021DD0C5F30A570246C5F31303DD
:1006C000C1F31300C1F30A5640F4801543F48013BC
:1006D000A7EB0608101BD64608F2FD3873EB0500A1
:1006E00002D308F1010801E092185B41B8F1000F54
:1006F00003DA00200146BDE8F08D00204FF48011A0
:10070000064684460EE0171B73EB050705D3121B44
:1007100063EB050306434CEA010C49084FEA30003D
:1007200092185B4150EA0107EDD152EA030012D062
:1007300082EA040083EA0501084305D0101BAB419F
:1007400006D20122002306E000224FF0004302E01F
:100750006FF0010253101AEB06004CEB085110EB3E
:100760000A0041EB0B01BDE8F04D00F055B8C1F3B4
:100770000A52C1F3130140F2FF3341F480119A424F
:1007800002DA00200146704740F233439A42A2F257
:10079000334202DC5242FFF752BEFFF741BE000077
:1007A00030B5041E71F1000404DB4FF000444042F8
:1007B00064EB0101141E73F1000405DB1C464FF0CD
:1007C0000043524263EB0403994208BF904230BD9C
:1007D000064C074D06E0E06840F0010394E807008E
:1007E00098471034AC42F6D3FFF7E4FC10190A081E
:1007F00050190A08202A06DBCB17203A41FA02F0EA
:1008000043EAE07306E041FA02F3D040C2F120026D
:10081000914008431946704710B5141E73F1000447
:1008200008DA401C41F1000192185B411A4301D1E2
:1008300020F0010010BD2DE9F04D92469B4611B10C
:10084000B1FA81F202E0B0FA80F220329046FFF76E
:10085000E7FD04460F4640EA0A0041EA0B01534611
:100860005A46084313D0114653EA010019D0C8F183
:1008700040025046FFF7E3FD05460E4650465946F6
:100880004246FFF7CDFD084305D0012004E0204695
:100890003946BDE8F08D0020054346EAE0762C435A
:1008A00037430A986305E40AA0EB08000022FD0A1A
:1008B00044EA47540A3002D500200146E9E7010521
:1008C00010196941DDE9084500196941BDE8F04D9D
:1008D000A2E770B58C1810F8015B15F0070301D181
:1008E00010F8013B2A1106D110F8012B03E010F893
:1008F000016B01F8016B5B1EF9D12B0705D40023B6
:10090000521E0DD401F8013BFAE710F8013BCB1A57
:10091000921C03E013F8015B01F8015B521EF9D54C
:10092000A142D8D3002070BD2DE9F04780464FF496
:10093000FA7689460024304621F022FE194D022025
:100940004146287018A003F047F9304621F018FE00
:10095000012712E0414614A003F03EF9304621F091
:100960000FFE641CE4B2052C07D32F70414610A083
:1009700003F032F90020BDE8F08749460F48FFF741
:10098000F6FC0028E6D02F7041460DA003F024F9B4
:1009900064210A48FFF7E0FC0B49002008700120A1
:1009A000E9E700000400002025730D0A00000000A4
:1009B0002F6E2573204661696C0A0000AC0100109F
:1009C0000A2573204F4B0A0000000020FEE70000BC
:1009D000014800F086BB0000CC01002000B58BB0C0
:1009E0000A2005900020012103900490CDE9060122
:1009F000CDE908100090019002906946044800F08B
:100A000075FA002801D000F0A7F90BB000BD000076
:100A1000CC010020704700002DE9F04101222E4E4C
:100A2000D50200242946304600F0AAFF0122170310
:100A30003946304600F0A4FF40F6B83021F0A0FD62
:100A400000222946304600F09BFF002239463046FE
:100A500000F096FF01222149214802F023FA214D9E
:100A6000214E01202870307020A003F0B5F823A09B
:100A700003F0B2F84FF47A78244F0FE0404621F0AB
:100A80007FFD23A003F0A8F8641CA4B2142C05D9A0
:100A900020A003F0A1F80020BDE8F08138780028FC
:100AA000ECD01FA003F098F80020307002202870CE
:100AB0001EA003F091F81FA11FA0FFF735FF044609
:100AC0001FA120A0FFF730FF044020A122A0FFF7C4
:100AD0002BFF2040E0E70000000C02400300001064
:100AE000C003001004000020000000100A656332FB
:100AF000303020BFAABBFA0A000000002E2E2EB50F
:100B0000C8B4FDBECDD0F72E2E2E0A000100002065
:100B10002E000000D6D8C6F4CAA7B0DC0000000042
:100B20000AD6D8C6F4B3C9B9A60A00004154453064
:100B30000D0A00003436300041542B43494D490022
:100B40004353510041542B43535100002B43474121
:100B500054543A203100000041542B43474154542F
:100B60003F0000002DE9F041FFF756FF88B12CA0AF
:100B700003F032F82D4801262D4C06700225257011
:100B80002CA003F029F8267034A003F025F83C4F80
:100B90000BE03CA003F020F80020BDE8F0813DA070
:100BA00003F01AF8C82021F0EBFC38780028F6D0C2
:100BB00039A003F011F839A003F00EF84FF4FA70E1
:100BC00021F0DEFC257039A003F006F8267042A063
:100BD00003F002F84A4F05E02EA002F0FDFFC82006
:100BE00021F0CEFC38780028F6D02BA002F0F4FFDC
:100BF00044A002F0F1FF2570042147A002F0ECFFB1
:100C00000A2021F0BDFC4CA14DA002F0E5FF0A2016
:100C100021F0B6FC26704BA002F0DEFF0120BCE7FD
:100C20004543323030205265616479000000001085
:100C30000400002041542B514D544F50454E3D303F
:100C40002C226E61732E6C79726163696E672E63FC
:100C50006E222C313838330D0A0000000A2057610B
:100C60006974696E6720666F7220746865204D51E3
:100C7000545420636C69656E74204F70656E00007B
:100C8000020000104543323030204661696C6564D3
:100C9000000000002E0000000D0A00000A514D5413
:100CA0004F50454E204F4B2E0D0A000041542B5102
:100CB0004D54434F4E4E3D302C2268656C6C6F2274
:100CC0002C225261696E222C223230303331303185
:100CD00030220D0A000000000A2057616974696E15
:100CE0006720666F7220746865204D5154542063EC
:100CF0006C69656E7420436F6E6E636574000000EE
:100D0000030000204D51545420436F6E6E63657490
:100D1000204F4B2E0D0A000041542B514D5450557D
:100D20004245583D302C302C302C302C226D7174C3
:100D300074222C25640D0A00746573740000000091
:100D4000257300000A4D51545420436C69656E743C
:100D50002072656164790A0072B6FEE7F0B5D1E9E8
:100D600007354C6A0A68C2B102682B4322F4F84284
:100D7000144323430360D1E901231A43D1E9033427
:100D800023431A434B6989691A430A4341686FF345
:100D90000E010A4342600020F0BDD1E90126324332
:100DA000D1E903673E4332434E69896932430A43BE
:100DB0001A432A43016822436FF30E010A4302607B
:100DC000E9E7426943F6FE739A4342EA4101416111
:100DD0000020704770B514460546D1E90002104363
:100DE0008A686FF01F03C96803EB421242EA41218F
:100DF000084329696FF315010843286100F0C6FD17
:100E0000064609E0601C07D024B100F0BFFD801B3E
:100E1000A04201D9032070BDA8698006F2D4002049
:100E200070BD0000F0B56FF00F058C8A2E014FEAFF
:100E3000054ECB682F034FF07F4C0EEB04540AB3E2
:100E40001A03A2F58052836822431D4C23401A43A3
:100E50008260D1E9002305EB0313521E1A438B680D
:100E600006EB03231A430B8A097E07EB03431A435D
:100E70000CEB01610A43C16801F070410A43C26092
:100E80000020F0BDD1E9002E05EB0E15521E2A43BD
:100E90008D6806EB05252A430A4D05EB03331A43FB
:100EA0000B8A097E07EB03431A4322430CEB0161D3
:100EB0000A43816801F070410A438260E0E7000064
:100EC000FF0F0FFF00F0FFFF90F82020012A07D04E
:100ED000022A05D0416A41F4802141620120704715
:100EE000006842690A4342610020704710B590F8DB
:100EF0002020012A07D0022A05D0416A41F480212E
:100F00004162012010BD3B48D0F8002242F00102AE
:100F1000C0F80022D0F8002222F47C52C0F800224F
:100F2000D0F800224B6A42EA0322C0F800220A7D70
:100F300002F01F0301229A40D0F81C329343C0F8FC
:100F40001C32CB69B3B9D0F80C329343C0F80C32E1
:100F50008C894B6864F31F434C6900EBC404C4F8EC
:100F600040320C890B6864F31F434C6900EBC404E6
:100F7000C4F84432CB69012B16D1D0F80C3213439C
:100F8000C0F80C320C884B6864F31F434C6900EBCB
:100F9000C404C4F840320C89CB6864F31F434C6925
:100FA00000EBC404C4F844328B69002BD0F804323F
:100FB0000ED01343C0F804320B69002BD0F8143262
:100FC00008D01343C0F81432096A012904D008E09C
:100FD0009343EFE79343F5E7D0F81C121143C0F8B1
:100FE0001C12D0F8001221F00101C0F800120020FC
:100FF00010BD000000640040704730B590F82040FC
:10100000012C05D0022C03D0416A41F480215DE01F
:101010000468002955D02469A40754D04FF4D8742B
:10102000056804EB01142D5915F004059560056859
:101030002D594ED0ED08556005682C5904F0020476
:10104000D4604FF4DA74056804EB01142D5905F0EF
:101050000F05156105682D59C5F3072595610568CC
:101060002C59240C54614FF4DC72046802EB011219
:10107000A4581C700468A458240A5C700468A4581E
:10108000240C9C700468A258120EDA704FF4DE72C1
:10109000046802EB0112A4581C710468A458240AC5
:1010A0005C710468A458240C9C710468A258120E48
:1010B000DA71006881B1016941F02001016100200D
:1010C00030BDE468A8E7416A41F4001141620120A3
:1010D00030BD6D0D1560AFE7C16841F02001C16002
:1010E000EDE72DE9F05F0546006800244669D0F879
:1010F00004908768D0F80CB0D0F810A0D0F8188011
:10110000F10748D0F90714D001218160B80703D551
:10111000284600F006FA0CE0780702D54FF4006488
:1011200007E0380702D54FF4805402E0284600F06B
:10113000F7F9F80516D529684FF480708860B8056E
:1011400003D5284600F0EFF90CE0780502D544F409
:10115000005407E0380502D544F4804402E02846F4
:1011600000F0E0F9F80316D529684FF48030886064
:10117000B80303D5284600F0D8F90CE0780302D56F
:1011800044F4004407E0380302D544F4803402E01C
:10119000284600F0C9F9300707D55FEACB6004D5CF
:1011A0002968102044F40074C86070074FF00807E5
:1011B00007D55FEA0B7004D52868C760284600F0A1
:1011C00061F9B00706D52868C068800702D02846B4
:1011D00000F05AF9700607D55FEACA6004D529689D
:1011E000102044F480640861B00607D55FEA0A70F5
:1011F00004D528680761284600F062F9F00606D594
:1012000028680069800702D0284600F05AF9B00328
:1012100008D55FEAC96005D52968102048602846CE
:1012200000F050F9F00307D55FEA097004D528688B
:101230004760284600F07AF9300446D55FEA4970E5
:1012400040D5F00504D55FEAC87001D044F0010430
:10125000B00504D55FEA887001D544F0020470053A
:1012600004D55FEA487001D544F00404300529D55F
:1012700018F0700F26D008F07000402815D006DC5A
:10128000102809D020280AD0302816D10AE050288A
:101290000ED0602811D10EE044F008040DE044F0B7
:1012A00010040AE044F0200407E044F0400404E0A5
:1012B00044F0800401E044F480742868816921F0DE
:1012C00070018161296804204860002C05D0686A9B
:1012D000204368622846FFF78FFEBDE8F09F70B597
:1012E000040003D094F8200010B104E0012070BD88
:1012F000204600F081F82068016841F0010101609A
:1013000000F044FB0546052604E000F03FFB401BCF
:101310000A2811D820684068C007F6D02068016804
:1013200021F00201016000F031FB05460BE000F006
:101330002DFB401B0A2806D9606A40F40030606229
:1013400084F82060D2E7206840688007EFD4207ED0
:101350000128206801683DD021F080010160607E95
:1013600001282068016838D021F040010160A07E8A
:1013700001282068016833D021F020010160E07E5F
:101380000128206801682ED041F010010160207F03
:1013900001282068016829D021F008010160607FE0
:1013A00001282068016824D021F004010160D4E9FB
:1013B00002010843D4E90412114308436168491E3D
:1013C00008432168C86100206062012084F8200081
:1013D000002070BD41F08001C0E741F04001C5E749
:1013E00041F02001CAE721F01001CFE741F00801E8
:1013F000D4E741F00401D9E710B586B004461421C2
:101400006846FEF7A9FF1C492068884231D11B4875
:101410000021026842F080620260026802F080628D
:101420000592026842F000720260006800F00070ED
:10143000059012481038026842F00202026000680B
:1014400000F0020005904FF4405000900220CDE9DA
:10145000010103200390092004906946084800F028
:1014600075F900220521402000F0CAFC402000F060
:10147000B9FC06B010BD00000068004040380240D2
:1014800000040240704700001CB50A49884210D190
:101490006B46094A0021FFF7B0FD002809D1064834
:1014A0006946406806F0EEFA04480F21006821F012
:1014B0008BF81CBDCC0100200C5000102000002037
:1014C000704770477047000070B5044690F82000E0
:1014D000012804D0606A40F40020606218E0022015
:1014E00084F820002068016821F00101016000F00B
:1014F0004DFA05460EE000BF00F048FA401B0A28EE
:1015000008D9606A40F400306062052084F8200049
:10151000012070BD20684068C007EDD1606270BDD9
:10152000704770477047704770477047704770B595
:10153000040004D094F83900002510B106E0012021
:1015400070BD84F83850204600F01EF8022084F860
:10155000390020680168626821F44031114301605C
:101560002068416BA26821F00701114341632068A4
:10157000016CE2686FF30D0111430164E563012022
:1015800084F83900002070BD08B50068064988421B
:1015900008D10648016841F400010160006800F4C8
:1015A0000000009008BD000000B00240303802404A
:1015B0002DE9F0410446876D00F0E8F9064694F8FD
:1015C00035000025022806D08020606584F834505C
:1015D0000120BDE8F0812068016821F0160101605A
:1015E0002068416921F080014161206C08B9A06C3C
:1015F00020B12068016821F00801016020680168BD
:1016000021F0010101600CE000F0C0F9801B052809
:1016100007D920206065032084F8350084F8345011
:10162000D7E720680068C007EED194F85C103F202F
:101630008840B860012084F8350084F834500020D8
:10164000C7E790F83510022903D0802141650120B9
:101650007047052180F835100068016821F001010C
:10166000016000207047000070B5044600F08EF95C
:101670000546601C02D004480078044400F086F956
:10168000401BA042FAD370BD24000020F0B587B003
:1016900014216846FEF760FE25480168002944D100
:1016A0000121016023480024016841F0010101602B
:1016B0000068022500F0010005904FF63F00CDE9DB
:1016C000000502AA03260C2782E8D00069461A48C2
:1016D00000F03CF80D20CDE9000502AA694682E839
:1016E000D000164800F032F848F23710CDE9000576
:1016F00002AA694682E8D000114800F027F84FF6A8
:101700008370CDE9000502AA694682E8D0000D4841
:1017100000F01CF84CF20370CDE9000502AA6946FE
:1017200082E8D000084800F011F807B0F0BD0000D2
:10173000080000103838024000140240000802403F
:101740000018024000100240000C02402DE9F84F42
:10175000DFF8F8A10022012403254FF00F090AF158
:10176000040BAAF1040E00BF0B6804FA02F6334022
:10177000B34270D10F7907F00307012F01D0022F78
:1017800016D187684FEA420805FA08FC27EA0C07D9
:10179000D1F80CC00CFA08FC4CEA070CC0F808C0E1
:1017A0004768B7430E79C6F3001696403E4346603D
:1017B0000E79F643B6070AD0C7684FEA420C05FA1D
:1017C0000CF6B7438E6806FA0CF63E43C6600E79F7
:1017D00006F00306022E10D1D60800EB8608D8F8D2
:1017E000206057074FEAD76C09FA0CF7BE430F6920
:1017F00007FA0CF73743C8F8207006684FEA420C26
:1018000005FA0CF7BE430F7907F0030707FA0CF748
:10181000374307604E6816F4403F1CD04C4E376883
:1018200047F480473760366822F0030706F48046A5
:101830000096484E07EB060CDCF8086897073F0F48
:1018400009FA07F826EA0806DFF80C81404503D1BB
:101850004FF0000841E072E0DFF80081404502D11E
:101860004FF0010839E0DFF8F880404502D14FF031
:10187000020832E0DFF8EC80404502D14FF0030867
:101880002BE0DFF8E480404502D14FF0040824E06B
:10189000DFF8D880404502D14FF005081DE0DFF8A1
:1018A000D080404502D14FF0060816E0DFF8C48032
:1018B000404502D14FF007080FE0DFF8BC804045FB
:1018C00002D14FF0080808E0DFF8B080404502D1AF
:1018D0004FF0090801E04FF00A0808FA07F848EA53
:1018E0000608CCF80888DAF800605746D1F804C03A
:1018F0009E435FEACC2C00D51E433E60DBF80060BF
:101900005F46D1F804C09E435FEA8C2C00D51E438D
:101910003E60DEF800607746D1F804C09E435FEA7F
:101920008C3C00D51E433E60084F083F3E68D1F80E
:1019300004C09E435FEACC3C00D51E433E60521C6F
:10194000102AFFF411AFBDE8F88F0000083C0140F9
:1019500044380240003001400000024000040240D0
:1019600000080240000C0240001002400014024037
:1019700000180240001C02400020024000240240E7
:101980000AB1816170470904FBE7000001488068E3
:10199000704700002400002070B5040011D02168B9
:1019A0004CF6CC400860216845F255500860D4E9F7
:1019B000000141602168A0688860FFF7E7FF0546E5
:1019C0000DE0012070BD00BFFFF7E0FF401B312894
:1019D00005D92068C068800701D0032070BD206849
:1019E000C0688007F0D121684AF6AA20086000206C
:1019F00070BD00684AF6AA2101600020704700000F
:101A000002488168027811448160704724000020F8
:101A10000B4810B5016841F400710160016841F4A0
:101A200080610160016841F480710160032000F071
:101A300007FA0F2000F006F800F0B8F9002010BDFA
:101A4000003C024030B505461C4887B000240168C0
:101A500041F001010160006806A900F0010000905A
:101A600001A800F0FBFB00F029FC15494000B0FB89
:101A7000F1F11548134A491E026040F2E732C0E90D
:101A80000324C0E90114846100F00EFF040012D1A8
:101A90000D4800F037FF04000DD1192000F0A2F925
:101AA000102D07D200222946192000F0A9F9074875
:101AB000056000E0012407B0204630BD44380240F4
:101AC00040420F00000001400404001028000020E4
:101AD0002DE9F041044690F8A00016460F46012873
:101AE0001DD0012584F8A050022084F8A10006EB47
:101AF000860000EBC60004EB800034223830FEF78D
:101B000004FC32463946204601F021FB206845623C
:101B100084F8A150002084F8A000BDE8F0810220E4
:101B2000FBE7000070B5040004D094F8A100002584
:101B300010B106E0012070BD84F8A050204600F0EE
:101B40006BF8022084F8A1002068816921F07041BF
:101B50008161D4E901010843D4E903121143084328
:101B600021688A691043886121688A68294802408F
:101B70008A60A18A0A0421688B68A66933431343EB
:101B80008B602168CA680240CA60A18B0B0421687F
:101B9000CA68266A32431A43CA6021680A69024049
:101BA0000A61A18C22680B041169A66A31431943AA
:101BB000116121684A6902404A61A08D01042068D0
:101BC0004269236B1A430A43426194F83500216845
:101BD000020294F83600CB6A03F07F43CB6221689F
:101BE000CB6A94F8346042EA004033430343CB624B
:101BF0002068416B41F0060141632068816941F032
:101C000001018161C4F8A450012084F8A1000020E2
:101C100070BD000000F800F02DE9F04393B00446D9
:101C200014216846FEF798FB302105A8FEF794FBC7
:101C30005649206888427CD1002432200E94082620
:101C40000225099005960B9505A800F043F908B107
:101C5000FFF782F84E48016841F08061016000683A
:101C600000F0806011904A481438016841F020016A
:101C70000160016801F020011191016841F001014A
:101C80000160016801F001011191016841F0020158
:101C90000160016801F002011191016841F0400109
:101CA0000160016801F040011191016841F00401F7
:101CB0000160016801F004011191016841F008011F
:101CC000016000680E2700F0080011904FF480605A
:101CD0000090CDE90154CDE9034769462D48FFF74F
:101CE00035FD41F658000090CDE90154CDE9034798
:101CF00069462948FFF72AFD03200090CDE90154E9
:101D00004FF00908DFF89490CDE90348694648464A
:101D1000FFF71CFD4FF470600090CDE90154CDE950
:101D2000034769464846FFF711FD4FF40C600090E9
:101D300000E027E0CDE90154DFF86490CDE90347E6
:101D400069464846FFF702FDC0200090CDE90154E6
:101D5000CDE9034769461348FFF7F8FC0096CDE943
:101D60000154CDE9034769460F48FFF7EFFC4FF4F4
:101D7000A0500090CDE90154CDE90348694648469A
:101D8000FFF7E4FC13B0BDE8F083000000680140F9
:101D900044380240001402400000024000040240A7
:101DA0000018024000080240000C02400C4882B0BB
:101DB000016841F480410160006800F480400090B7
:101DC0000748001F016841F080510160006800224F
:101DD00000F0805000900F21901E02B000F010B86B
:101DE00044380240002809DB00F01F020121914025
:101DF0004009800000F1E020C0F8001170470000A9
:101E0000F0B40E4B1B680C46C3F30223C3F1070565
:101E1000042D00D90425191D072901D2002300E053
:101E2000DB1E012606FA05F1491E214099409E401D
:101E3000761E16403143F0BC01F0F2BE0CED00E01E
:101E4000064900F0070208684FF6FF03184040EA11
:101E50000220034A10430860704700000CED00E0C8
:101E60000000FA052DE9F8431748016841F0805158
:101E700001600068154F00F08050012600903E641C
:101E8000FFF784FD05464FF47A78114C05E000BF5A
:101E9000FFF77CFD401B40450DD86068C003F7D5B7
:101EA0007E64FFF773FD0546464607E0FFF76EFDCB
:101EB000401BB04202D90320BDE8F883606880036C
:101EC000F4D50020F8E700004038024000000E4240
:101ED000007000402DE9F84F04460068DFF824A2A6
:101EE000894F8A4DC1074FF001084FF0000603D11A
:101EF000810701D4400648D5CAF86860FFF746FD5F
:101F0000814605E0FFF742FDA0EB090002287DD8DD
:101F100028680001F6D42078C1077D4805D06168A3
:101F2000227A890141EA027101602178890711D57D
:101F300001686268237B9201C1F3027142EA036285
:101F400042EA017101603968E26921F01F01521E05
:101F5000114339602178490608D56168227B8901DF
:101F600041EA0261227A41EA02710160CAF868809E
:101F7000FFF70CFD814605E0FFF708FDA0EB090027
:101F8000022843D828680001F6D52068410701D40B
:101F900000074ED5CAF87060FFF7F8FC814605E0EF
:101FA000FFF7F4FCA0EB090002282FD82868C043F3
:101FB0008000F5D520784107564814D5016822697C
:101FC000237D9201C1F3027142EA036242EA017188
:101FD00001603968226A6FF0FF0321F4F85103EBC6
:101FE0000222114339602178090712D5016822695C
:101FF000C1F30361920142EA0161227E41EA02716A
:1020000001603868616A20F4403000E051E0084324
:102010003860CAF87080FFF7B9FC074605E000BFDA
:10202000FFF7B4FCC01B022843D82868C0438000D7
:10203000F6D42078800653D534484030016841F00A
:10204000805101600068344D00F080500090286895
:1020500040F480702860FFF799FC074605E000BF58
:10206000FFF794FCC01B022823D82868C005F7D5C9
:10207000274D143D286810F4407020D0218D01F4C4
:10208000407181421BD0286820F440712348C0F879
:102090000080066029602868C00710D0FFF776FC32
:1020A000064641F2883707E0FFF770FC801BB84214
:1020B00002D90320BDE8F88F28688007F4D5A16A0B
:1020C0001248C1F301220830032A13D0016821F419
:1020D000F81101602868218DC1F30B0108432860C5
:1020E0002078C00604D50E4994F82C00C1F8E00110
:1020F0000020DFE702680B4B22F4F81219400A4374
:102100000260E7E7000047428C3802400038024096
:10211000843802408838024000700040400E474238
:1021200000104742FFFCFF0F2DE9F0470E46050067
:1021300065D0DFF81481D8F80000F7B200F00F0086
:10214000B04207D288F80070D8F8000000F00F0005
:10215000B04254D128683D4C810712D5400703D5C1
:10216000206840F4E05020602878000703D52068FC
:1021700040F4604020602068A96820F0F000084327
:1021800020602878C0072DD03049686808390128B8
:1021900012D0022813D0032811D00968890700291A
:1021A0002DDA216821F0030101432160FFF7EEFBE6
:1021B000814641F2883A0EE009688903EFE7096831
:1021C0008901ECE7FFF7E2FBA0EB0901514502D9D9
:1021D0000320BDE8F0872068696800F00C00B0EBD0
:1021E000810FEFD1D8F80010404601F00F01B14245
:1021F00007D90770006800F00F00B04201D001203D
:10220000E7E72878400705D52068E96820F4E05022
:10221000084320602878000706D52068296920F443
:10222000604040EAC100206000F058F82168084A88
:10223000C1F30311515CC8400649086006480068B4
:10224000FFF700FC0020C4E7003C024008380240D1
:102250005C93020830000020280000200F2202605A
:102260000C4A136803F003034360136803F0F003A0
:102270008360136803F4E053C36012684FF4E053C3
:1022800003EAD20202610448006800F00F0008600F
:102290007047000008380240003C024004480549ED
:1022A00000680968044AC1F38221515CC840704744
:1022B00030000020083802406C93020804480549A9
:1022C00000680968044AC1F34231515CC840704754
:1022D00030000020083802406C930208154810B501
:1022E000006810F00C02144813D04110042A0FD0DB
:1022F000082A0ED10F4C241F2268236802F03F02E7
:102300005B0207D52068C0F38810A0FB010106E03E
:10231000084610BD2168C1F38811A1FB000100230C
:10232000FDF7C2FF2168C1F30141491C4900B0FB20
:10233000F1F010BD083802400024F4002DE9F84FF8
:1023400004006ED02078DFF84C93C007A9F1040593
:102350004AD009F104000168C1F38101012908D0C4
:102360000068C0F3810002280AD1D9F800004002B9
:1023700006D52868800337D560680028E1D033E0AF
:102380006068B0F5803F10D0B0F5A02F286810D05D
:1023900020F480302860286820F48020286060685D
:1023A000A8B1FFF7F3FA06460DE0286840F4803044
:1023B000F4E740F480202860F7E700BFFFF7E6FA73
:1023C000801B642873D828688003F7D50CE0FFF7DA
:1023D000DDFA064605E000BFFFF7D8FA801B642847
:1023E000F0D828688003F7D42078DFF8AC82800723
:1023F0004FF0000A3ED5A748001D016811F00C0FF0
:1024000008D00068C0F3810002280BD1D9F8000081
:10241000400207D42868800716D5E068012800D15B
:1024200012E033E1E068B8B10120C8F80000FFF71E
:10243000ADFA064605E000BFFFF7A8FA801B0228A8
:10244000C0D828688007F7D52868216920F0F800EF
:1024500040EAC10028600DE0C8F800A0FFF796FA36
:10246000064604E0FFF792FA801B02281FD828686E
:102470008007F7D42078000722D5864F8748616906
:10248000703771B101210160FFF780FA064604E060
:10249000FFF77CFA801B022809D838688007F7D537
:1024A0000EE0C0F800A0FFF771FA064605E082E0F2
:1024B000FFF76CFA801B02287DD838688007F7D4B4
:1024C0002078400768D5DFF8CCB100270BF13C0B32
:1024D000DBF80000C0000BD4DBF8001041F08051A5
:1024E000CBF80010DBF80000012700F080500090CE
:1024F0006B4E3068C00510D4306840F48070306096
:10250000FFF744FA009005E0FFF740FA0099401AFF
:10251000022850D83068C005F6D55E4EA0686C36EB
:1025200001280FD00528306810D020F0010030605D
:10253000306820F004003060A068B8B1FFF726FAD8
:1025400000900FE0306840F00100F4E740F0040034
:102550003060F7E7FFF71AFA0099411A41F2883024
:10256000814266D830688007F4D50EE0FFF70EFA96
:10257000009007E0FFF70AFA0099411A41F288300B
:10258000814256D830688007F4D42FB1DBF80010B0
:1025900021F08051CBF80010A069C8B33D49091D56
:1025A0000968C1F3810102294AD00228504607D0A8
:1025B000C8F8600000E03CE0FFF7E8F904463BE0C3
:1025C0004746C8F86000FFF7E1F9064605E000BF9E
:1025D000FFF7DCF9801B02282BD828688001F7D48C
:1025E000D4E907010843A16A2E4A490802EB0141D8
:1025F000626A41EA8211084394F82C1040EA0161B2
:10260000C9F8001001203866FFF7C0F9044606E05B
:102610003EE000BFFFF7BAF9001B022809D828687E
:102620008001F7D534E000BFFFF7B0F9001B0228A6
:1026300002D90320BDE8F88F28688001F4D427E090
:102640000128F7D0D9F80000E26900F48001914236
:102650001CD1226A00F03F01914217D147F6C071A8
:10266000626A0140B1EB821F10D1A26A4FF0FF33C2
:1026700000F4403103EB5202B1EB024F06D194F863
:102680002C1000F07060B0EB016F01D00120D1E799
:102690000020CFE70438024000004742800E474246
:1026A000007000400000FFFF70B50D46040003D02D
:1026B00094F82C0010B107E0012070BD002084F8D0
:1026C0002D00204600F011F8022084F82C00211D76
:1026D0002068FEF743FBD4E900022946FEF7A2FB7F
:1026E000012084F82C00002070BDFEF7CFBF10B58C
:1026F000044690F82C00022804D094F82C000128FD
:1027000001D0012010BD022084F82C002068FEF7C3
:1027100058FB012084F82C00002010BD70B5044641
:1027200090F82C000D46022804D0012803D005287B
:1027300001D0012070BD022084F82C002068FEF733
:1027400049FB2868022805D05FF0010084F82C00BE
:10275000002070BD0520F9E770B5040009D0606A5B
:10276000002540B125616561A56294F8510040B132
:102770000CE0012070BD6068B0F5827FF4D0E561A7
:10278000F2E784F85050204600F044F8022084F824
:1027900051002068016821F040010160A088218972
:1027A00000F4827001F404410843A18901F400613E
:1027B0000843217C01F002010843217D01F0010161
:1027C0000843218B01F400710843217F01F0380197
:1027D000084394F8201001F080010843218D01F492
:1027E0000051084321680860A069042101EA1040F3
:1027F00094F8241001F01001084321684860206813
:10280000C16921F40061C1616565012084F851004E
:10281000002070BDF0B587B0044614216846FDF76E
:102820009BFD1C492068884232D11B480024016866
:1028300041F480510160006800F480500590164812
:102840001438016841F001010160016801F00101E3
:102850000591016841F0020101600068022500F065
:1028600002000590A020CDE9000502AA0326052755
:1028700082E8D00069460948FEF768FF1020CDE9DC
:10288000000502AA694682E8D0000548FEF75EFF0F
:1028900007B0F0BD00300140443802400000024063
:1028A000000402407047704710B5040003D094F84C
:1028B0003D0010B107E0012010BD002084F83C006D
:1028C000204600F01EF8022084F83D00211D2068FB
:1028D00000F0A6FF012084F8460084F83E0084F84A
:1028E0003F0084F8400084F8410084F8420084F8F6
:1028F000430084F8440084F8450084F83D0000203B
:1029000010BD704790F83D10012901D0012070479B
:10291000022180F83D100168CA6842F00102CA60D5
:1029200000681149884214D0B0F1804F11D00F498E
:1029300088420ED00E4988420BD00E49884208D0FA
:102940000D49884205D00D49884202D00C49884281
:1029500004D1816801F00701062903D0016841F024
:1029600001010160002070470000014000040040A8
:1029700000080040000C00400004014000400140FD
:1029800000180040704770B50446006801694FF0B8
:102990000005C943890715D4C168C943890711D403
:1029A000E91E0161012020772068806980072046A8
:1029B00002D0FFF7E7FF04E000F098F8204600F0AF
:1029C00096F8257720680169C943490717D4C1687B
:1029D000C943490713D46FF0040101610220207735
:1029E0002068806910F4407F204602D0FFF7CAFFBC
:1029F00004E000F07BF8204600F079F825772068A5
:102A00000169C943090716D4C168C943090712D42B
:102A10006FF008010161042020772068C0698007F9
:102A2000204602D0FFF7AEFF04E000F05FF820463A
:102A300000F05DF8257720680169C943C90617D4FD
:102A4000C168C943C90613D46FF0100101610820A1
:102A500020772068C06910F4407F204602D0FFF73D
:102A600091FF04E000F042F8204600F040F825779E
:102A700020680169C943C90708D1C168C943C907AA
:102A800004D1891E0161204600F032F820680169F6
:102A9000C943090609D4C168C943090605D46FF0C2
:102AA000800101612046FFF7FDFE20680169C943EE
:102AB000490609D4C168C943490605D46FF04001ED
:102AC0000161204600F01EF820680169C9438906AB
:102AD0000BD4C168C943890607D46FF02001016196
:102AE0002046BDE87040FFF7DEBE70BD70477047FE
:102AF00000680349884201D1FEF782BF7047000099
:102B00000000014070477047704710F83D1F407843
:102B100008437047F8B5016804460868CA684B69FD
:102B200010F00F0F4FF0000559D003F0010602F42A
:102B30009077374365D0C10705D0D10503D5216C07
:102B400041F001012164410705D5D90703D0216C6B
:102B500041F002012164810705D5D90703D0216C1A
:102B600041F004012164010707D502F0200131433F
:102B700003D0216C41F008012164216C00293AD076
:102B8000800604D5900602D5204600F0DCFE2068C1
:102B90004069216CC0F38010090700D460B320465F
:102BA00000F0AAFE20684069400621D52068143054
:102BB00050E8001F21F0400140E80012002AF5D142
:102BC000A06BA8B16C490165A06BFEF73AFD002827
:102BD00011D0A06B016D01B0BDE8F040084783063D
:102BE0000FD593060DD52046BDE8F84000F0ABBEEA
:102BF0002046FFF789FFF8BD2046FFF785FF2564D3
:102C0000F8BD266B2023012E79D1C60677D5D606CE
:102C100075D50868486800904869400640D5A16BA2
:102C2000086840680004000CEAD0A28D8242E7D90F
:102C3000E085C869B0F5807F2DD020680C3050E861
:102C4000001F21F4807140E80012002AF5D12068AD
:102C5000143050E8001F21F0010140E80012002A62
:102C6000F5D12068143050E8001F21F0400140E801
:102C70000012002AF5D184F83E30256320680C301C
:102C800050E8001F21F0100140E80012002AF5D1A1
:102C9000A06BFEF78DFCA08DE18D401A81B229E07A
:102CA000A08DE18D401A81B2E08D0028A8D00029C6
:102CB000A6D020680C3050E8002F22F4907240E833
:102CC0000026002EF5D12068143050E8002F22F0A5
:102CD000010240E80026002EF5D184F83E3025633D
:102CE00020680C3050E8002F22F0100240E800234A
:102CF000002BF5D12046FFF706FFF8BDFFE70506DC
:102D00002BD5150629D594F83D002128F5D1A068CA
:102D1000B0F5805F01D12069B0B1206A411C216209
:102D2000216800784860E08C401E0004000CE084BC
:102D3000E3D12068C16821F08001C1602068C168CA
:102D400041F04001C160D8E7206A0088C0F3080064
:102D50004860206A801C2062E5E74006CDD5500619
:102D6000CBD5CA68204622F04002CA6084F83D30C4
:102D700000F0EBF9C1E70000E938000870B5040085
:102D800004D094F83D00002510B106E0012070BD8C
:102D900084F83C50204600F023F8242084F83D00BD
:102DA0002068C16821F40051C160204600F02CFE6B
:102DB0002068016921F4904101612068416921F096
:102DC0002A0141612068C16841F40051C160256455
:102DD000202084F83D0084F83E00002070BD0000F3
:102DE00070B586B0044614216846FDF7B5FA284E42
:102DF000226800212748022303240725B2421DD15F
:102E0000244A1432166846F010061660126802F062
:102E100010020592026842F001020260006802AAF4
:102E200000F00100059082E832006002CDE9000365
:102E300069461948FEF78AFC06B070BD174EB242CB
:102E4000FAD1144A1032166846F4802616601268C9
:102E500002F480220592026842F0040202600068D7
:102E600002AA00F00400059082E832004FF44060AE
:102E7000CDE9000369460A48FEF768FC00220521F7
:102E80002720FEF7BDFF2720FEF7ACFFD4E70000A8
:102E9000001001403038024000000240004800406D
:102EA0000008024090F83E30202B0ED159B152B1AB
:102EB00090F83C30012B08D0012380F83C300023EF
:102EC000036300F027BE0120704702207047000016
:102ED0002DE9F0470068584988427DD157480024C1
:102EE0004FF6FF750178FF290BD304706421544815
:102EF000FDF732FA2B460A2252A1554800F0CCF8D1
:102F000091E0544A13784E4A5354491CC9B20A44BA
:102F1000017012F8023C0D2BF2D112F8012C0A2A92
:102F2000EED102297FD04C4A1278002A7BD0491E6C
:102F300082468AB22B464249454800F0ADF84448E3
:102F4000FFF7E3FD2128FAD044A13D48FDF728FA18
:102F500018B13B48FDF71DFA40B964213848FDF728
:102F6000FBF9012236493E48FFF79CFF3DA134485A
:102F7000FDF7FDF93C4D012748B12F706421304821
:102F8000FDF7EAF901222E493548FFF78BFF37A1FB
:102F90002B48FDF7ECF9374E48B1377064212848CB
:102FA000FDF7DAF9012226492D48FFF77BFF32A110
:102FB0002348FDF7DCF9DFF8C88050B188F80070CD
:102FC00064211F48FDF7C8F901221D492448FFF775
:102FD00069FF2CA11A4800E02CE0FDF7C8F9DFF8E2
:102FE000AC9050B189F8007064211548FDF7B4F930
:102FF000012213491A48FFF755FF25A11048FDF794
:10300000B6F970B12C70347088F8004089F800402F
:1030100064210B48FDF7A0F9012209491048FFF788
:1030200041FF8AF80040BDE8F047012209490C48F9
:10303000FFF738BFBDE8F0870048004000000020DF
:10304000AC0100106F766572666C6F77000000004F
:103050007C0300100300001000000010200000009E
:10306000C003001052445900010000204F50454E4B
:103070000000000002000010434F4E4E0000000010
:103080000300002050554245580000000200002077
:103090004552524F520000002DE9F843044690F883
:1030A0003D001F4616460D4620284CD1C5B1BEB185
:1030B00094F83C00012846D0012084F83C004FF0F1
:1030C0000008C4F84080212084F83D00FEF75EFC33
:1030D000A6848146E684A068B0F5805F03D004E052
:1030E0000120BDE8F883206928B12E465FF0000575
:1030F00084F83C800EE00026FAE78021204600F0AC
:1031000026FDA0B9AEB116F8010B21684860E08C2D
:10311000401EE084E08C4B464FF0000200970028F0
:10312000EBD14FF04001204600F011FD30B10320FB
:10313000D7E735F8020BC0F30800E6E7202084F853
:103140003D000020CDE70220CBE77047FEE7F0B559
:1031500003688C88DD68C5F30B452C44250488245E
:1031600004EBC2141E5906F470461E5103680F6822
:10317000DE68C6F30B46761C3E442E431E5104689F
:103180008B89E568C5F30A052B441D048C2303EBEA
:10319000C213E65806F47046E65004688F68E66885
:1031A000C6F30A06761C3E442E43E6509423046878
:1031B00003EBC213E55825F00705E55005680C69D7
:1031C000EC5091F831300C7E1F0226069C240568D5
:1031D00004EBC21491F8323055F804C04FF0000CE3
:1031E00045F804C091F8305046EA03433D431D437F
:1031F00003681D519823046803EBC213E55825F0BA
:10320000FF05E55005684C69EC50A023046803EB0A
:10321000C213E55840F20776B543E550D1E90745BA
:103220002C430568EC50AC23046803EBC213E5584B
:1032300044F803C005684C6AEC500B698BB3012B52
:1032400032D0042B32D0022B30D0032B2ED0072BC0
:103250002CD00123B024056804EBC2142E5906F0CB
:10326000E0262E51D1E90065AD1B0E8D5D435E4316
:10327000ED1C45EA064305682B51B423046803EBB3
:10328000C213E5586FF30A05E5500468C96AE150B6
:103290000068842101EBC211425842F00102425001
:1032A000F0BDFFE70423D5E70323D3E70223D1E7EB
:1032B00010B50A490446022008702046FDF769F857
:1032C000014607A000F088FC0A201FF059F92146AA
:1032D000BDE810400AA000F07FBC00000400002000
:1032E00041542B514D5450554245583D302C302CB3
:1032F000302C302C226D717474222C25640D0A0040
:10330000257300000F4810B50D490160242141606C
:1033100000214FF480328160C0E903121201426142
:10332000017641768176C17601774177FDF7D7FF47
:10333000002803D0BDE81040FDF70EBD10BD000011
:1033400000680040CC0100200A4810B5084901601F
:103350004FF440314160022181600021C160FEF7DD
:10336000E6F8002803D0BDE81040FDF7F5BC10BD1D
:1033700000B002403C02001000B587B01C21684636
:10338000FCF7EAFF16481549012201600021C0E957
:10339000011208221023C0E90323402343614FF4A4
:1033A000C073C0E906311302C0E90831910281629D
:1033B000022006210090CDE901210721039105217A
:1033C000CDE90410069069460548FFF76DF900281D
:1033D00001D0FDF7C1FC07B000BD0000400100A016
:1033E000F401002010B510481FF0A1F90F4C0E4A4F
:1033F00000212061903A0E481FF0EEF90A4A206041
:103400006C3A00210B481FF0E7F9074A6060483A20
:10341000002109481FF0E0F9A060034810301FF0B8
:10342000BCF8606110BD00003C9302080C00002055
:10343000ADE8000851E900080DE900082DE9F04168
:1034400086B014216846FCF787FF384800240168DD
:1034500041F020010160016801F02001059101683F
:1034600041F080010160016801F08001059101686F
:1034700041F004010160016801F004010591016857
:1034800041F001010160016801F00101059101684D
:1034900041F002010160016801F00201059101683B
:1034A00041F040010160016801F0400105910168AF
:1034B00041F010010160016801F0100105910168FF
:1034C00041F0080101600068194F00F008004FF456
:1034D00000650590002229463846FEF751FADFF8CC
:1034E0005480EE10002231464046FEF749FA00951E
:1034F0000125CDE90154694638460394FEF726F9C3
:10350000280300904FF48810CDE90104694638463D
:10351000FEF71CF90096CDE9015469464046039434
:10352000FEF714F906B0BDE8F08100003038024023
:10353000000C024000080240094810B5074901602C
:10354000032141604FF47A718160FEF725FA00286B
:1035500003D0BDE81040FDF7FFBB10BD00300040B8
:103560002802002010B58EB034216846FCF7F4FE26
:10357000264825490024C0E9001484600321C46062
:10358000C0E9044181610B21C161016240F22B312C
:10359000416240F2EB11816240F23331C16240F28C
:1035A000F311016380F8344080F8354080F83640EC
:1035B000FEF7B8FA08B1FDF7CFFB4FF44870CDE93C
:1035C00000404FF4F07102220294CDE90312FF2271
:1035D000CDE905244FF480620792052208924A063D
:1035E000CDE90A018DF8304009928DF831408DF80F
:1035F0003240002269460548FEF76AFA002801D0E9
:10360000FDF7AAFB0EB010BD006801407C0200105F
:103610000F4810B50D4901604FF4827141600021DF
:103620008160C1604FF400720161C0E90512C1619F
:103630000162416281620A21C162FFF78DF80028B0
:1036400003D0BDE81040FDF787BB10BD003001403E
:10365000240300100C4810B50A4901604FF4E12121
:103660004160002181600C22C160C0E904128161C7
:10367000C161FFF783FB002803D0BDE81040FDF7D0
:103680006BBB10BD001001407C0300100C4810B54E
:103690000A4901604FF4E1214160002181600C2260
:1036A000C160C0E904128161C161FFF767FB0028B6
:1036B00003D0BDE81040FDF74FBB10BD00480040EF
:1036C000C0030010FEE7FEE7012210B500231146FB
:1036D000104600F01FF80120FDF7C6FF012200236D
:1036E0001146022000F016F80023082201210320D1
:1036F00000F010F801224FF40C731146042000F082
:1037000009F8BDE8104040F2AB210148FEF7EFBFD9
:10371000F40100201FB5012902D0022902D002E0E5
:10372000102400E00824CDE90004CDE902234FF481
:10373000805269460448FEF7F1FF002801D04FF09F
:10374000FF3004B010BD0000F401002010B54FF0B0
:10375000E020006925F088FB012803D0BDE8104077
:1037600024F07EBF10BD000030B593B03021684614
:10377000FCF7F2FD14210CA8FCF7EEFD1F48002514
:10378000016841F080510160006800F080501190A4
:103790001B48016841F4404101600068022400F4C4
:1037A0004040119001200090000401908001CDE97B
:1037B000064008AA0420B42182E813000B90684652
:1037C000FEF7BCFD08B172B6FEE7FEF74BFB08B191
:1037D00072B6FEE70CA90F2081E831004FF4A0502B
:1037E0000F904FF48050109005210CA8FEF79CFC20
:1037F000002801D072B6FEE713B030BD4038024059
:10380000007000400248016841F470010160704797
:1038100088ED00E00148FFF7B6B80000040400108E
:10382000F0B50268254C264D264E274F274B4FF00A
:10383000804CA04209D0604507D0A84205D0B042D4
:1038400003D0B84201D0984204D122F0700E4A68E9
:1038500042EA0E02A0421BD0604519D0A84217D000
:10386000B04215D0B84213D0984211D0184DA8429A
:103870000ED0184DA8420BD0174DA84208D0174DB6
:10388000A84205D0164DA84202D0164DA84203D139
:1038900022F44075CA682A434D6922F080022A4307
:1038A00002608A68C2620A688262A04201D09842BD
:1038B00001D10969016301214161F0BD00000140AE
:1038C0000004004000080040000C004000040140DB
:1038D0000040014000440140004801400018004001
:1038E000001C00400020004010B5806B0021C18505
:1038F000C184FFF709F910BD01680C3151E8002FB0
:1039000022F4907241E80023002BF5D101681431B4
:1039100051E8002F22F0010241E80023002BF5D1ED
:10392000016B012909D101680C3151E8002F22F007
:10393000100241E80023002BF5D1202180F83E1031
:1039400000210163704708B590F83E10222901D08C
:10395000022008BD82684FF480539A4201D1016968
:1039600021B1816A9A421BD04AB10AE00268816A99
:103970005268C2F308020A80816A891C08E0026961
:1039800072B10268526802F07F020A70816A491CB3
:103990008162C18D491E0904090CC18503D019E05B
:1039A00002685268F1E70168CA6822F02002CA6022
:1039B0000168CA6822F48072CA6001684A6922F00C
:1039C00001024A61202180F83E10016B012903D0D9
:1039D000FFF77EFA002008BD0021016301680C3169
:1039E00051E8002F22F0100241E80023002BF5D10E
:1039F00001680A68D20602D50A6849680091818D7B
:103A0000FFF781F8E6E7000070B504460068016939
:103A1000E26821F44051114301612169A068E26923
:103A200008436169114308432168CA6849F20C637D
:103A30009A430243CA6020684169A26921F4407137
:103A40001143416131492068884202D0304988429F
:103A500002D1FEF733FC01E0FEF720FCE26900230F
:103A6000192164253226B2F5004F626828D0A0FBE8
:103A70000101930F9200FCF717FC0146B0FBF5F033
:103A80006FF01802504301EB800006EB0010B0FB12
:103A9000F5F000F0F002B1FBF5F002EB0012B1FB23
:103AA000F5F06FF01803584301EB800006EB0010AF
:103AB000B0FBF5F000F00F0021681044886070BD85
:103AC000A0FB010192185B41FCF7EEFB0146B0FB45
:103AD000F5F00201B1FBF5F06FF01803584301EB6C
:103AE000800006EBC000B0FBF5F000F0F80002EB40
:103AF0004002B1FBF5F0584301EB800006EBC0003B
:103B0000B0FBF5F000F00700D6E700000010014020
:103B10000014014081628285C28500210164222255
:103B200080F83E2080F83C10016921B10168CA6824
:103B300042F48072CA6001684A6942F001024A6137
:103B40000068C16841F02001C160002070472DE984
:103B5000F041984617460E460446069D27E0681C2D
:103B600025D02DB1FDF712FFA0EB0800A8421ED909
:103B700020680C3050E8001F21F4D07140E800129A
:103B8000002AF5D12068143050E8001F21F001010F
:103B900040E80012002AF5D1202084F83D0084F886
:103BA0003E00002084F83C000320BDE8F08120683E
:103BB000006836EA000004D00020B842CFD00020D0
:103BC000F3E70120F9E700000148FEF7A3BF00007A
:103BD000C0030010FEE700000FB4054B10B503A9A9
:103BE000044A029801F0A4FD10BC5DF814FB00002B
:103BF0009DF70008A80100100FB4084B10B504A9E8
:103C000002AA039801F094FD044602A9002002F0E4
:103C100012F9204610BC5DF814FB0000375E000866
:103C20000907090E002804DB00F1E02080F80014E9
:103C3000704700F00F0000F1E02080F8141D70477D
:103C400002E008C8121F08C1002AFAD17047704765
:103C5000002001E001C1121F002AFBD1704770B59E
:103C6000044600256FF02F0608E02068411C216003
:103C7000007805EB850106EB4101451820680078C6
:103C800000F0C6F80028F0D1284670BD2DE9FF5F8E
:103C900082B00021DDE90430020DDDF840B00343BD
:103CA00018D044F61050A2F2FF3242431514119876
:103CB00001281FD0A5EB0B00401C5FEA000A4FF063
:103CC00000064E4FDFF83891B046504615D5CAF180
:103CD000000413E0119801244AA3012801D16FEADE
:103CE0000B010298119AC0E90031C0E9024206B006
:103CF000BDE8F09FCBF10000DFE704460021404A19
:103D0000491842EB0450CDE9001012E0E00707D05B
:103D100032463B4640464946FCF748FC80468946C9
:103D200032463B4610461946FCF740FC06460F4615
:103D30006410002CEAD1DDE90401DDE90023BAF1C9
:103D4000000F06DAFCF732FC42464B46FCF72EFC2D
:103D500005E0FCF79DFC42464B46FCF799FC044607
:103D60000E460022284BFCF71BFD03D84FF0FF3016
:103D7000014607E00022254B20463146FCF76FFB49
:103D8000FCF7F5FC102409E0002C0ADB0A220023D2
:103D9000FCF78AFA039B30321A55641E50EA01027E
:103DA000F2D1641C039AC4F111031444119A012A3C
:103DB00003D0012208430DD10AE0084304D00020BB
:103DC0004FF0110B119072E7A3EB0B056D1E0DE088
:103DD0005B4504DD4FF0000205F1010504E003DA64
:103DE0004FF00002A5F10105002AECD002981199CC
:103DF000C0E90231C0E9004579E700000000144045
:103E00000000F03F300000000000F0430000E03F01
:103E10003038092801D80120704700207047000081
:103E200010B54021074800F0B1FF00221E210648CE
:103E30001DF04CFA054CA06002F0BAFB0020207087
:103E400010BD0000284E001059660008EC0000105C
:103E500070B5B1F90030B2F90040A34200DC23464E
:103E60000380B1F90250B2F90240A54200DD2C46B0
:103E70004480B1F90460B2F90450AE4200DA35462C
:103E80008580B1F90610B2F90620914200DB114697
:103E9000C1800120AB4201DC8C4200DD002070BDFE
:103EA000F8B50D460446B0F90000B1F90010164609
:103EB000884247DBB4F90210B5F90220914241DB98
:103EC000B4F90410B5F9042091423BDCB4F90610B2
:103ED000B5F90620914235DC96B3ADF80000608854
:103EE000ADF8020032466946284600F099F80028ED
:103EF00027D0A088ADF800006088ADF802003246F7
:103F00006946284600F08CF800281AD02088ADF8C1
:103F10000000E088ADF8020032466946284600F00D
:103F20007FF800280DD0A088ADF80000E088ADF83B
:103F3000020032466946284600F072F8002800D098
:103F40000120F8BD0020F8BDB0F90020B1F904301F
:103F50009A4213DCB0F90420B1F900309A420DDB2B
:103F6000B0F90220B1F906309A4207DCB0F9060038
:103F7000B1F90210884201DB012070470020704730
:103F8000F8B50D460446B0F90400B1F90010164624
:103F9000884243DBB4F90600B5F9021088423DDBE4
:103FA000B4F90000B5F90410884237DCB4F9021006
:103FB000B5F90620914231DC76B3ADF80000608897
:103FC000ADF8020032466946284600F029F818BBD1
:103FD000A088ADF800006088ADF80200324669465E
:103FE000284600F01DF8B8B92088ADF80000E08838
:103FF000ADF8020032466946284600F011F858B97B
:10400000A088ADF80000E088ADF8020032466946AD
:10401000284600F005F808B10020F8BD0120F8BDE1
:104020002DE9FC4114460E46B1F90020B0F900100C
:1040300005468A423ADBB5F90400824236DCB6F91D
:104040000270B5F90220974230DBB5F906309F4285
:104050002CDC002C75DD401A9A1A401C521C00B250
:1040600012B200EBD07002EBD272401052109042AC
:1040700000DB1046844200DD0446ADF800102888BD
:1040800000222044ADF804006888ADF8020068887A
:1040900031462044ADF806006846FFF7C1FF40B145
:1040A000BDF804002044ADF804003FE00020BDE866
:1040B000FC81E8880022001BADF80200E888ADF81A
:1040C000060031466846FFF7ABFF28B1BDF8040093
:1040D0002044ADF8040011E0A8880022001BADF8D0
:1040E0000000A888ADF8040031466846FFF798FF45
:1040F00050B1BDF80000001BADF80000BDF8020093
:10410000001BADF8020016E06888ADF80200688870
:1041100000222044ADF8060031466846FFF780FFD4
:1041200070B1BDF80000001BADF80000BDF806003E
:104130002044ADF80600314668461AF02FFBB6E77A
:10414000FFE70120B3E710B5B1F90040B2F9003044
:104150009C4200DA23460380B1F90240B2F90230F2
:104160009C4200DA23464380B1F90440B2F904309E
:104170009C4200DD23468380B1F90610B2F9062087
:10418000914200DC1146C18010BD00002DE9F041D4
:104190008AB005461DF048F80026A04C0746009658
:1041A0000DB1E86801E010F03FF9606000691AF0B5
:1041B00091FA6068406908B11AF08CFA6068C069C9
:1041C0001AF088FA6068006A1AF084FA6068016977
:1041D000F1B31AF00FFD1AF08BFC6068B0F85011C3
:1041E00099B30168097C890715D510F07BF9401E49
:1041F00005B2606810F030F9401E03B2002211468B
:1042000001A800950DF083FF606801A90268926B18
:10421000516004F057FD60684FF48071303016F043
:1042200065F86068202100F5987016F05FF8606806
:10423000A0F8506138461CF0F1FF009060680068FB
:10424000436A13B122680099984715F091FE00E087
:1042500007E000F02FF900F001F9714D6F692FB1FF
:104260003FE0A0F850610AB0BDE8F08115F05FFCB6
:1042700014F074FD074600227F211AF04DF90FF06B
:10428000ADFA0146002238461AF01EF90FF045FD3E
:104290000146002238461AF0A8F9002203213846C8
:1042A0001AF092F90022032138461AF07BF9002215
:1042B000032138461AF07CF90022032138461AF00F
:1042C0007DF90022032138461AF089F955A13846B4
:1042D00015F0AEFB00231A460621384616F0CEFB39
:1042E0006F6128681CF09AFF4FF4967840450CD215
:1042F000206841F28831884231D9686800990844C1
:104300006860A868401CA86029E01CF08DFF286048
:1043100060684FF47A7140680068B1FBF0F069683A
:1043200009B901216960A968F1B14FF47A7251436A
:104330006A68B1FBF2F46E60AE60844200D9044654
:10434000286920442861E868401CE8601CF0F0FF00
:10435000C0F16403224634A1384615F0A0FB2F4D6E
:1043600008356C6814B137E00446E4E715F0DFFB6C
:1043700014F0F4FC044600227F211AF0CDF80FF06F
:104380002DFA0146002220461AF09EF80FF0C5FCD7
:104390000146002220461AF028F900220321204677
:1043A0001AF012F90022032120461AF0FBF800222D
:1043B000032120461AF0FCF80022032120461AF0BF
:1043C000FDF818A1204615F033FB00231A460421FE
:1043D000204616F053FB6C6028681CF01FFF404518
:1043E0007FF641AF1CF020FF286002A815F050FEB8
:1043F00004990298401A820A514200EB81206621FA
:10440000B0FBF1F39DF821109DF82000CDE90001EB
:1044100009A1204615F043FB25E7000084000010A9
:10442000E04C00103F0000002575204650530A253F
:10443000752525204350550025752E2575206B4286
:10444000207573656420282564202525290A2564A4
:10445000252520667261672E0000000070B50A4DA8
:10446000002400BFC4EBC40655F8260008B115F0BF
:10447000F3FD05EB86001C2115F038FF641CE4B247
:10448000042CEFD370BD0000044F001008494968A8
:104490000AE04A68824202D00A68824203D10A7E58
:1044A00042F001020A7649690029F2D17047000002
:1044B00070000010704700000421014800F066BC45
:1044C0001C4E00101C21014800F060BC344E00104E
:1044D0002DE9FF5F0446DDE90E0613B9B0F5807FD4
:1044E0007ED0B6F900504FF0FF376D42454307EBE1
:1044F00025252DB22580B6F902C0CCF1000C0CFBAD
:1045000000FC07EB2C273FB26780B6F900C0A1EB97
:104510000C0141434FF0020C0CEB212109B2A180A8
:10452000B6F90280A2EB080242430CEB222000B253
:10453000E080002B7ED04FF00A0A93FBFAF5684228
:1045400000EB800003EB400705F1010928B21DF0E4
:10455000D1F800900FFA89F01DF0CCF883465A3557
:1045600028B21DF0C7F8804609F15A0000B21DF0CC
:10457000C1F80146009AC7F10A0000FB02F300FBF4
:1045800008F00BFB073301FB070193FBFAF291FBE9
:10459000FAF04FEA601AB4F90010B4F902000AFB0D
:1045A00001FCCDF80CC05511378805FB10C207EB94
:1045B000A2220FFA82F905FB01F2BB46029277882C
:1045C0000AFB002107EBA1210BB2B4F90410BE468F
:1045D0000AFB01FC05FB10C20BEBA22216B200E0A5
:1045E0002FE005FB01F7CDE9007CB4F90680DDF88A
:1045F0000CC00AFB007005FB18C1DDF804C0009F69
:1046000005FB18C5029A0AFB087C0AFB08220BEB83
:10461000A1210EEBAC270EEBA02009B20EEBA222DB
:104620000BEBA5250FFA87FC00B212B22DB24F4654
:10463000494500E00EE000DA0F46B54216DAA8461A
:1046400015E000202080491E6080A180521EE2807B
:10465000BDE8FF9F32882A44228072883A446280F3
:1046600032881144A180718808444FE0B046474524
:1046700004DA4F46494506DA0F4604E0B54201DA4E
:104680002F4600E0374627804F46494500DD0F465C
:10469000B54201DDA84600E0B046474503DD4D4682
:1046A000494505DC01E0B54201DD294600E031461F
:1046B000A1809A4201DA154600E01D46844501DAE0
:1046C000614600E001468D4205DA9A4201DA114660
:1046D00006E0194604E0844501DA614600E001463F
:1046E00061809A4201DD114600E01946844501DDF2
:1046F000654600E00546A94205DD9A4201DD104607
:1047000004E0184602E0844500DD6046E0809FE753
:104710002DE9FE4F0446D0F800B0B0F90800E58955
:10472000081AB4F90A10511AD4E90932B5F5807F94
:1047300038D0A589ADB3A66B704345114E437011B7
:10474000266BE16A06FB05F701FB1077694306FB60
:10475000001003EBA72902EBA02080460612B4F953
:1047600004004FEA2927B8424EDD002F4CDBB4F994
:104770000610B14248DD002E46DB94F834104A079B
:1047800045D58A0704F1140322D400FB06704500C6
:104790004FF0020A0BEB05015246184615F05CFD7E
:1047A00027E00DE0256BE66A05FB00F706FB1177B5
:1047B000464305FB016003EBA70902EBA000CCE731
:1047C000A56B68434D4303EB601902EB6510C4E72A
:1047D00000FB067000EB40054FF0030A0BEB0501F0
:1047E0000222184615F038FDE81C584410F8010C58
:1047F000A07594F83400C0071FD04FF4FC60ADF8EA
:104800000000A18A814218D10020BDE8FE8F32B29B
:1048100004F118002369CDE90102002539B2AA4646
:104820008B4613F041F90090BDF80000A082DDE94D
:104830000102594613F0D0F8DAE7E07C78B1A4F829
:104840003C90A4F83E80A4F84070A4F842606564EF
:1048500084F848A02046BDE8FE4F00F002B80120D1
:10486000D3E72DE9F04F044690F83C10D0F80090C3
:1048700090F83E0087B04FF0FF36702907DAB4F9A0
:1048800040203546012A00D5002580310DE09029D1
:1048900016DDB4F94020B4F904300125521C9A42C7
:1048A00000DB0025A1F27F114942C9B28846702879
:1048B00009DAB4F94210012900D50026803010E051
:1048C0000025FF21F2E790280DDDB4F94210B4F97C
:1048D00006200126491C914200DB0026A0F27F1031
:1048E0004042C7B201E00026FF2760690090A07D2A
:1048F0000590002083468246049094F834004007D7
:1049000044D594F84810606C11FB0501494402221B
:1049100001A815F0A1FCA08894F8481010FB01F044
:10492000616C022206FB0011494403A815F094FCB7
:10493000A18894F8480011FB00F1626C06FB01228B
:1049400010FB05901118022202A815F085FC94F8BE
:104950003400800761D594F84800626C10FB052391
:1049600000EB09010B4413F8013C0493A38813FBEB
:1049700000F306FB0322114411F801BC10FB0500F3
:10498000111801EB090010F8010C45E0B4F84000E3
:10499000B4F94220284401B204F118008146236989
:1049A00013F082F80190B4F84200B4F9401030449A
:1049B00002B254F8103F484613F076F80390608E28
:1049C0002368304402B2208E284401B2484613F0D6
:1049D0006BF8029094F82400103C80071DD5B4F9C0
:1049E000422034F8400F284401B2484612F0F4FF48
:1049F00004906088B4F90010304402B2484612F0C6
:104A0000EBFF83466088304402B234F84009284402
:104A100001B2484612F0E0FF824694F83400424664
:104A20004546800735D5059810FB08F30499C8F171
:104A3000FF0011FB0031C1F307211BFB08F61AFB35
:104A40000060C0F3072011FB07F3C7F1FF0610FB5E
:104A500006331B0AA375022907D8022803D80020B1
:104A600007B0BDE8F08F002702E0022800D8FF273A
:104A70000598022800D800220498022800D8FF22B6
:104A8000BBF1020F00D80025BAF1020F03D8FF25B1
:104A900001E0FF20A075EAB1FF2A04D0DDE90001A2
:104AA0000FF0B0F80090BDB1FF2D17D0DDE9021076
:104AB0002A460FF0A7F8049097B1FF2F05D00146C2
:104AC0003A4600980FF09EF80090BDF80000A082D2
:104AD0000120C5E70198E5E70298ECE70398EAE7CB
:104AE000BDF81000F3E700002DE9F0470446B0F9E7
:104AF00008000A2700026062B4F90A000002A062FE
:104B0000B4F90C1091FBF7F5684200EB800001EB63
:104B10004006684205F1010800B21CF0EBFD824638
:104B2000E84300B21CF0E6FD8146C5F15A0000B230
:104B30001CF0E0FD0546C8F15A0000B21CF0DAFD99
:104B4000C6F10A0101FB0AF3024609FB063069437C
:104B500090FBF7F002FB061191FBF7F14011E062C8
:104B600048112063A07C13F04CF894F8341060F3E3
:104B7000000184F83410A07C13F033F894F834105A
:104B800060F3410184F83410A07C042824D0052867
:104B900022D0062820D021F0040100BF84F8341070
:104BA00021682162A16921F0E00160F30401A0887D
:104BB00060F39421E08860F35F51A161E0894FF4D4
:104BC000001101EB5001B1FBF0F0A063FF20A075D4
:104BD000208AA082BDE8F08741F00401DEE70000F2
:104BE0002DE9F04115460E460746114C1CF01CFB02
:104BF00080462B4632463946204613F083FB20B1CF
:104C00000020A062E06950B110E02C21204615F090
:104C10006DFB4FF00040A0620020BDE8F0814046EF
:104C20001CF0FCFAE06108B90120E0612046F4E7DD
:104C3000584E001010B51421074800F0A7F813F0E3
:104C400027FB40B105490160054941600549816084
:104C50000549C16010BDFEE7404E0010BD7C010853
:104C600039800108B1810108897C01087FB50E46B1
:104C7000040003D10FF0D8FB040023D00025FEB1BF
:104C8000ADF80050ADF802500FF0E6FB401EADF855
:104C9000040020460FF026FC401EADF806006A46D0
:104CA000314602A8FFF7D4F800280BD02068017C19
:104CB000890708D5DDE90001C4E90C0101202AE0DB
:104CC000A0F850517FBD82690AB102A99047002621
:104CD0000BE000BF04EBC601002202A83031FFF751
:104CE000DFF80028EED1761CB6B2B4F85001B0421D
:104CF000F0D880B2202804D204EBC00002A93030E2
:104D000004E0A4F8505104F1300069460DF056F962
:104D1000B4F85001401CA4F8500160680028D1D0BC
:104D20001CF0B4FB7FBD70B5054600F012F80446D8
:104D30000CE02146284600F01EF80646214628468B
:104D400000F071F8204615F087F93446002CF0D1B8
:104D500070BD002800D04068704700B503460022AF
:104D6000FFF7F7FF03E01846521C00F004F80100BB
:104D7000F9D1104600BD0068091D40587047006811
:104D800040587047002800D0806870470022426079
:104D9000C91C21F0030182600160704770B50446B0
:104DA0000068083015F0CEF8050013D00146002247
:104DB00020461DF04FFB2946204662681DF044FB4B
:104DC000616819B12A4620461DF044FB6560A06861
:104DD00000B9A560284670BD70B50446006808306B
:104DE00015F0B0F8050013D00146002220461DF052
:104DF0002BFB29462046A2681DF02CFBA16819B1A7
:104E00002A4620461DF020FBA560606800B9656059
:104E1000284670BD28B1416809B9806808B10020F2
:104E200070470120704770B504000DD0FFF791FF67
:104E300000228842204608D1FFF79DFF6060011ED6
:104E400001D000221EE0A26070BDFFF79BFF8842E8
:104E5000206808440AD10168A16029B12046BDE854
:104E6000704000221DF0F0BA626070BD05682046F7
:104E7000FFF781FF06460246294620461DF0E4FA68
:104E80002A4631462046BDE870401DF0E3BA10B511
:104E90000446006882680AB121469047206800688D
:104EA000002801D02060F5E710BD8068002801D0FF
:104EB000B0F91600704700002DE9F047074690B0A2
:104EC000408C189E40F00400788490463A849946BD
:104ED0008A463289384617F08BFD0546A7F82090A0
:104EE00032895146384617F083FD0446788CA54236
:104EF00020F00400788403D12904B1EB044F68D07A
:104F0000A7F8208032895146384617F071FD0546D2
:104F10008046A7F82090514638460BF09BFA31891D
:104F200000682A461BF0F6F83089602823D147F63E
:104F3000FF794D4501D04C451DD1384617F0A3FEF1
:104F400000EBD0704510384617F09DFE00EBD07096
:104F50004010C84506D1691C431C994200DA00E0A4
:104F6000194688464C4506D1691C421C914201DA1B
:104F70006C1C00E014461948FFF710FF05002BD009
:104F80002F60C5E903843089A8806846C5F808A069
:104F90000CF02CFB1248FF21CDE900501148029083
:104FA0001148039000200790CDE9080130880A904D
:104FB00070889DF83E1040420B90F06806900020EB
:104FC00060F300018DF83E103069059068460CF0E2
:104FD00081FB10B0BDE8F087FEE700004C4E0010EA
:104FE000816602086D680208C96702081421014839
:104FF000FFF7CCBE4C4E00102DE9FC5F0025924619
:105000008B4606462C46042743F60F0843F60E0946
:1050100001E100BFF06807EBC401405881017CD476
:1050200080B230EA0B0113D05FF0000130EA0A00D1
:1050300010D00020814270D0F06801AA41F6100122
:1050400050F8340000901AF04BFE002866D103E0BF
:105050000121EBE70120EDE701AA41F611010098DB
:105060001AF03EFE002873D101AA41F61201009801
:105070001AF036FE00286BD101AA41F61301009800
:105080001AF02EFE002863D101AA41F615010098FE
:105090001AF026FE00285BD101AA41F614010098FF
:1050A0001AF01EFED0BB01AA41F2690100981AF065
:1050B00017FE98BB01AA43F20C0100981AF010FEEB
:1050C00060BB01AA43F20D0100981AF009FE28BB4B
:1050D00001AA41F2010100981AF002FEF0B901AAFA
:1050E00041F2040100981AF0FBFDB8B901AA41F29F
:1050F000020100981AF0F4FD80B901AA41F20301FF
:1051000000981AF0EDFD48B901AA41F20501009896
:105110001AF0E6FD10B901AA01E07BE018E041F2C7
:10512000060100981AF0DCFD90B901AA41F23201A3
:1051300000981AF0D5FD58B901AA414600981AF016
:10514000CFFD28B901AA494600981AF0C9FD10B14F
:105150000320BDE8FC9F01AA40F60A0100981AF05E
:10516000BFFDE8BB01AA40F60B0100981AF0B8FD9C
:10517000B0BB01AA414600981AF0B2FD80BB01AA5B
:10518000494600981AF0ACFD50BB01AA40F63C011C
:1051900000981AF0A5FD18BB01AA40F63D01009841
:1051A0001AF09EFDE0B901AA40F63A0100981AF003
:1051B00097FDA8B901AA4FF4046100981AF090FD78
:1051C00070B901AA40F6450100981AF089FD38B976
:1051D00001AA40F6410100981AF082FD00B900E0F2
:1051E00014E001AA40F6420100981AF079FD68B96E
:1051F00001AA40F6430100981AF072FD30B901AAE5
:1052000040F6490100981AF06BFD08B1022501E053
:1052100005B90125641C708CC0F3C500A0423FF69F
:10522000F9AE284695E70000014840687047000045
:10523000840000100549002048600861C86088604B
:10524000086048610249086048607047E04C0010FF
:105250008C000010C0F30410072800D90720704705
:1052600010B518210348FFF791FD0349012008708C
:1052700010BD0000F84D0010500100202DE9F04154
:1052800090460C46050015D0FBF783F80A4F0646FA
:105290002146BA68284690470446BA68281941460C
:1052A00090470146701A03E06218AA5C2A55641CF4
:1052B000A042F9D2BDE8F081640100202DE9F0415F
:1052C000094D90460E466A681C46074619469047A7
:1052D000306020B120686A68384400219047C8F8DF
:1052E0000000BDE8F0810000640100202DE9F04FCE
:1052F00087B08A46DDE910581F46934604460021D0
:1053000005B129805CB12078002809D0BAF1000FDE
:1053100005D0002618F0060F15D0002004E000206C
:1053200007B0BDE8F08F401C215C0A2904D00D298C
:1053300002D00029F7D100E0401C002DF0D04FF042
:10534000FF312980ECE75FEA887001D541F6FF77ED
:10535000894608468DF81410049127E00498CDF88A
:10536000189068B34FF0000C05AA06ABCDF80CC03E
:10537000CDF80080CDE9013220443B465A465146E3
:105380001CF0E2F906997A1A314417B20EB288B1CC
:1053900004990144049120780A280BD00D2809D0E3
:1053A000605C0A280FD00D280DD00846205C08B19B
:1053B000002FD3DC049848B105B12E800498AFE7E4
:1053C0004FF0010CD0E7481C0490F3E7064A04A90B
:1053D000204652689047002DF0D0014600225046EA
:1053E00011F06BFF06B2E8E7640100202DE9F041FF
:1053F0001746884606001ED0002F1CD0FAF7C9FFBA
:1054000004463846FAF7C5FF050014D00B4A2C4471
:105410004146926830469047411903E0621BB25CF6
:105420003255641EA142F9D930442A463946BDE8B6
:10543000F04114F01DBFBDE8F081000064010020C0
:1054400000230278232902D0012A0DD00FE02AB1CF
:105450000021012A04D0022A04D008E0012101E041
:10546000017004E0017001E0202902D001231846F8
:1054700070470221F6E72DE9F0410E4680460246CC
:105480000021334608461CF09BFB04460027401CC5
:1054900014F058FD050008D02F5533464246611CD4
:1054A0001CF08EFB2846BDE8F081FEE72DE9F047B1
:1054B0001E4614460D468246DDF8209015E000BFDA
:1054C0004FEA540808FB0657394650464A4690476B
:1054D000002808DD44F30000C0EB540407EB060588
:1054E000A4F1010401E005DA4446002CE8D120468D
:1054F000BDE8F0873846FBE72DE9FC5F9B460CAB27
:105500008A468146DDE9116093E81210DDE90F5704
:105510005FEA80784FF030031AD45EB15FEAC0785A
:1055200008D000F00C0858EA0C0803D0761E01E001
:105530000B55641CBC4204D2202CF9D301E00B555E
:10554000641C5FEAC07803D0B44201D2202CF6D3A9
:105550005FEAC06825D55FEA40580AD44CB1BC4226
:1055600001D0B44205D1641E03D0102D03D1641EB6
:1055700004E0102D02D0022D0AD00EE0850603D4DF
:10558000202C1ED2782506E0202C1AD2582502E0C5
:10559000202C16D262250D55641C202C11D20B55DF
:1055A000641C202C0DD2BCF1000F01D02D2306E08D
:1055B000430701D52B2302E0030702D520230B5517
:1055C000641CCDE900BAC846154681468B46AA46FA
:1055D000800714D1274607E02A46DDE900316D1C1B
:1055E0002020C446E0477F1CB742F5D307E02A4697
:1055F0006D1C641EDDE900311BF80400C047002C5F
:10560000F5D15FEA897006D409E02A46DDE9003168
:105610006D1C2020C047A5EB0A00B042F5D32846F8
:10562000BDE8FC9F2DE9F04F8FB099468B46DDE930
:105630001818DDE91C63DDE91A4792468646002208
:1056400009B923F01003580507AD00D5C9B1B1FB66
:10565000F4F004FB1010C0B20A2801D2303009E087
:105660005FEA836C02D54FF0410C01E04FF0610C12
:1056700060440A38B1FBF4F1A854521C09B1202A45
:10568000E5D3CDF80880CDE90563CDE90052CDE939
:1056900003474B46524659467046FFF72DFF0FB061
:1056A000BDE8F08F2DE9FF4F8FB01CACDDE92395ED
:1056B00094E8030820AC94E8C004002450EA0102F6
:1056C00001D125F010056A050DF11C0802D550EA3C
:1056D000010217D032463B46FAF7E6FDD2B20A2A5B
:1056E00001D2303206E0AB0601D5412300E0612350
:1056F0001A440A3A08F80420641C50EA010201D056
:10570000202CE7D3CDE90084CDF808B0CDE905958C
:10571000CDE9036A0FAF97E80F00FFF7EDFE13B076
:10572000BDE8F08F9A4200D288547047704700005D
:105730002DE9FF4F95B09A46884606460025EEE1D2
:10574000252877D100242746F94A0121039400E057
:10575000044316F8013F203B01FA03F01042F7D151
:1057600030782A2811D06FF02F033078A0F1300262
:10577000092A16D8039A44F0020402EB820203EBD2
:1057800042021044761C0390EFE758F8042B039272
:10579000002A03DA504244F40054039044F0020417
:1057A000761C30782E2816D116F8010F44F0040428
:1057B0002A280DD06FF02F023078A0F13003092B8A
:1057C00009D807EB870302EB4303C718761CF3E7FE
:1057D00058F8047B761C30786C280FD006DC4C28F7
:1057E00017D068280DD06A2814D104E0742810D08E
:1057F0007A280FD10DE044F400140AE044F4801438
:1058000001E044F440147278824202D104F580141D
:10581000761C761C307866280BD013DC582877D09D
:1058200009DC002875D04528F6D04628F4D0472852
:105830001AD193E118E0632835D0642879D065281F
:1058400012D18BE1702873D008DC6728F1D0692869
:105850006FD06E280DD06F2806D1ACE073282CD005
:10586000752874D0782853D05246179990476D1CEC
:1058700054E1C4F30250022809D003280DD0D8F80F
:10588000001004280DD00D6008F1040846E1D8F896
:105890000010EA17C1E90052F6E7D8F800100D80B1
:1058A000F2E70D70F0E718F8041B8DF800100020E7
:1058B0008DF80100EB46012003E058F804BB4FF0DF
:1058C000FF3061074FF0000102D40DE009F1010142
:1058D0008946B9420FDA8145F8DB1BF80910002927
:1058E000F4D108E009F1010189468142FADB1BF895
:1058F00009100029F6D103985346A0EB0907214669
:105900003846179A00F080FA284400EB090507E0B2
:1059100044E008E10DE01BF8010B5246179990474F
:10592000B9F10109F7D2534621463846179AF2E0F9
:1059300039E00A21C4F302524FF0000B0091022A11
:1059400006D058F8040BC117032A09D00AE023E057
:1059500008F1070020F00702F2E80201904605E096
:1059600000B2C117042A01D140B2C117002906DADA
:105970000A460021404261EB02012D2202E022058D
:1059800004D52B228DF80420012203E0E20701D088
:105990002022F7E7914657E00A2100E010214FF05E
:1059A000000B00910BE010214FF0000B44F00404B9
:1059B0000827009103E008204FF0000B0090C4F38B
:1059C0000252022A05D058F8040B0021032A08D0FD
:1059D00008E008F1070020F00702F2E80201904613
:1059E00003E080B2042A00D1C0B24FF000092207C0
:1059F0002AD53278702A07D0DDF800C08CF0100C60
:105A00005CEA0B0C05D00EE040228DF80420012248
:105A100008E050EA010306D030238DF804308DF8F9
:105A2000052002229146009B83F0080353EA0B03F2
:105A30000AD150EA010201D1620705D530228DF862
:105A400004204FF001097F1E3278582A04D039A271
:105A50000C920CAA02920BE03BA2F9E75B46009A7B
:105A6000FAF722FC0C9B9B5C029A521E0292137066
:105A700050EA0102F2D1029804A9081A00F1200BA1
:105A8000600702D524F4803400E001275F4502DD81
:105A9000A7EB0B0000E0002000EB0B010090039847
:105AA0004944401A0390E00306D453462146179A0E
:105AB000039800F0A9F90544002706E001A8524622
:105AC000C05D179990476D1C7F1C4F45F6DBE003C6
:105AD0000CD553462146179A039800F095F90544D2
