:020000040800F2
:1000000020500220850200085B3100080D2C0008FA
:10001000593100082D05000869360008000000006D
:10002000000000000000000000000000C501000802
:100030007D0500080000000021020008E1310008F1
:100040009F0200089F0200089F0200089F0200080C
:100050009F0200089F0200089F0200089F020008FC
:100060009F0200089F0200089F0200089F020008EC
:100070009F0200089F0200089F0200089F020008DC
:100080009F0200089F0200089F0200089F020008CC
:100090009F0200089F0200089F0200089F020008BC
:1000A0009F020008A93200089F0200089F02000872
:1000B0009F0200089F0200089F0200089F0200089C
:1000C0009F0200089F0200089F0200089F0200088C
:1000D0009F0200089F0200089F0200085D3600088A
:1000E0009F0200089F0200089F0200089F0200086C
:1000F0009F0200089F0200089F0200089F0200085C
:100100009F0200089F0200089F0200089F0200084B
:100110009F0200089F0200089F0200089F0200083B
:100120009F0200089F0200089F0200089F0200082B
:100130009F0200089F0200089F0200089F0200081B
:10014000310500089F0200089F0200089F02000876
:100150009F0200089F0200089F0200089F020008FB
:100160009F0200089F0200089F0200089F020008EB
:100170009F0200089F0200089F0200080000000084
:100180009F0200089F0200089F0200089F020008CB
:100190009F0200089F0200089F0200089F020008BB
:1001A0009F0200089F0200089F020008DFF810D09D
:1001B00000F02CF90048004799120208AFF30080C4
:1001C000205002202C4B19680868B0E8F04F80F3EB
:1001D0000988BFF36F8F4FF0000080F311887047DC
:1001E0000000000008480068006880F308884FF0AD
:1001F000000080F3148862B661B6BFF34F8FBFF37F
:100200006F8F00DF00BF00BF08ED00E0DFF80C00DB
:10021000016841F470010160704700BF88ED00E0A3
:10022000EFF30980BFF36F8F134B1A681EF0100FA6
:1002300008BF20ED108A20E9F04F106009B44FF09C
:10024000500080F31188BFF34F8FBFF36F8F27F0FB
:10025000B9F94FF0000080F3118809BC19680868EB
:10026000B0E8F04F1EF0100F08BFB0EC108A80F31A
:100270000988BFF36F8F704734000010EFF30580DB
:10028000704700000648804706480047FEE7FEE743
:10029000FEE7FEE7FEE7FEE7FEE7FEE7FEE7FEE736
:1002A00099320008AD0100082DE9F05F05460020F5
:1002B00092469B4688460646814640241BE02846D7
:1002C00041464746224600F091F853465A46C01A26
:1002D000914110D311461846224600F078F82D1AA5
:1002E00067EB01084F4622460120002100F06FF81D
:1002F00017EB00094E41201EA4F10104DFDC484643
:1003000031462A464346BDE8F09F10B5431A934252
:1003100009D28318881803E010F8011D03F8011DA5
:10032000521EF9D210BD40EA01039B0703D009E039
:1003300008C9121F08C0042AFAD203E011F8013BD1
:1003400000F8013B521EF9D210BDD2B201E000F814
:10035000012B491EFBD270470022F6E710B5134669
:100360000A4604461946FFF7F0FF204610BD30B597
:1003700005462A460B4612F8010B13F8014B08B14B
:10038000A042F8D01CB1002802D06D1CF1E728462D
:1003900030BD421C10F8011B0029FBD1801A7047A8
:1003A00010B5002200E0521C835C8C5CA34201D19A
:1003B000002BF8D1D8B2E1B2401A10BD034611F8B3
:1003C000012B00F8012B002AF9D118467047202A8A
:1003D00004DB203A00FA02F1002070479140C2F19C
:1003E000200320FA03F3194390407047202A04DBCE
:1003F000203A21FA02F00021704721FA02F3D0409E
:10040000C2F120029140084319467047064C074D3F
:1004100006E0E06840F0010394E8070098471034D4
:10042000AC42F6D3FFF7C6FE50C10D0890C10D08CF
:1004300070B58C1810F8015B15F0070301D110F8A6
:10044000013B2A1106D110F8012B03E010F8016BD3
:1004500001F8016B5B1EF9D12B0705D40023521E56
:100460000DD401F8013BFAE710F8013BCB1A921CBE
:1004700003E013F8015B01F8015B521EF9D5A142BC
:10048000D8D3002070BD00002DE9F04780464FF41E
:10049000FA7689460024304621F096FB194D022059
:1004A0004146287018A003F0E1F8304621F08CFB9B
:1004B000012712E0414614A003F0D8F8304621F09D
:1004C00083FB641CE4B2052C07D32F70414610A0B7
:1004D00003F0CCF80020BDE8F08749460F48FFF74D
:1004E00046FF0028E6D02F7041460DA003F0BEF86D
:1004F00064210A48FFF730FF0B49002008700120F3
:10050000E9E700000300002025730D0A0000000049
:100510002F6E2573204661696C0A0000A40100104B
:100520000A2573204F4B0A0000000010FEE7000070
:10053000014800F08ABB00002002001000B58BB01B
:100540000A20059000200121CDE9060141F2840234
:10055000CDE9000247F6E672CDE902020490CDE94A
:1005600008106946044800F075FA002801D000F030
:10057000A7F90BB000BD000020020010704700007A
:100580002DE9F04101222E4ED502002429463046A5
:1005900000F0AAFF012217033946304600F0A4FFFD
:1005A00040F6B83021F010FB00222946304600F01A
:1005B0009BFF00223946304600F096FF0122214978
:1005C000214802F0EFF9214D214E012028703070B2
:1005D00020A003F04BF823A003F048F84FF47A78FA
:1005E000244F0FE0404621F0EFFA23A003F03EF83D
:1005F000641CA4B2142C05D920A003F037F8002005
:10060000BDE8F08138780028ECD01FA003F02EF868
:1006100000203070022028701EA003F027F81FA1D0
:100620001FA0FFF731FF04461FA120A0FFF72CFFFA
:10063000044020A122A0FFF727FF2040E0E70000B0
:10064000000C024004000010CC0300100300002046
:10065000010000100A656332303020BFAABBFA0ADD
:10066000000000002E2E2EB5C8B4FDBECDD0F72E52
:100670002E2E0A00000000202E000000D6D8C6F45E
:10068000CAA7B0DC000000000AD6D8C6F4B3C9B9C6
:10069000A60A0000415445300D0A000034363000EF
:1006A00041542B43494D49004353510041542B437E
:1006B000535100002B43474154543A20310000006D
:1006C00041542B43474154543F0000002DE9F04171
:1006D000FFF756FF88B12CA002F0C8FF2D48012675
:1006E0002D4C0670022525702CA002F0BFFF26704D
:1006F00034A002F0BBFF3C4F0BE03CA002F0B6FF81
:100700000020BDE8F0813DA002F0B0FFC82021F03C
:100710005BFA38780028F6D039A002F0A7FF39A09C
:1007200002F0A4FF4FF4FA7021F04EFA257039A0C0
:1007300002F09CFF267042A002F098FF4A4F05E0AD
:100740002EA002F093FFC82021F03EFA387800284E
:10075000F6D02BA002F08AFF44A002F087FF25709C
:10076000042147A002F082FF0A2021F02DFA4CA1BB
:100770004DA002F07BFF0A2021F026FA26704BA044
:1007800002F074FF0120BCE745433230302052654F
:1007900061647900010000100300002041542B51D6
:1007A0004D544F50454E3D302C226E61732E6C7966
:1007B000726163696E672E636E222C313838330D97
:1007C0000A0000000A2057616974696E6720666F2D
:1007D0007220746865204D51545420636C69656EB5
:1007E00074204F70656E00000300001045433230E6
:1007F00030204661696C6564000000002E00000036
:100800000D0A00000A514D544F50454E204F4B2EBB
:100810000D0A000041542B514D54434F4E4E3D3074
:100820002C2268656C6C6F222C225261696E222C1E
:10083000223230303331303130220D0A00000000D6
:100840000A2057616974696E6720666F7220746848
:1008500065204D51545420636C69656E7420436F5C
:100860006E6E636574000000020000204D51545408
:1008700020436F6E6E636574204F4B2E0D0A00008F
:1008800041542B514D5450554245583D302C302C3D
:10089000302C302C226D717474222C25640D0A00CA
:1008A0007465737400000000257300000A4D5154F4
:1008B0005420436C69656E742072656164790A0026
:1008C00072B6FEE7F0B5D1E907354C6A0A68C2B1E5
:1008D00002682B4322F4F842144323430360D1E916
:1008E00001231A43D1E9033423431A434B6989692D
:1008F0001A430A4341686FF30E010A434260002025
:10090000F0BDD1E901263243D1E903673E433243CA
:100910004E69896932430A431A432A4301682243D4
:100920006FF30E010A430260E9E7426943F6FE7382
:100930009A4342EA410141610020704770B5144674
:100940000546D1E9000210438A686FF01F03C968A9
:1009500003EB421242EA4121084329696FF3150172
:100960000843286100F0C6FD064609E0601C07D078
:1009700024B100F0BFFD801BA04201D9032070BD4F
:10098000A8698006F2D4002070BD0000F0B56FF0B9
:100990000F058C8A2E014FEA054ECB682F034FF0CE
:1009A0007F4C0EEB04540AB31A03A2F580528368FD
:1009B00022431D4C23401A438260D1E9002305EBFA
:1009C0000313521E1A438B6806EB03231A430B8A48
:1009D000097E07EB03431A430CEB01610A43C1682C
:1009E00001F070410A43C2600020F0BDD1E9002E41
:1009F00005EB0E15521E2A438D6806EB05252A438A
:100A00000A4D05EB03331A430B8A097E07EB0343B8
:100A10001A4322430CEB01610A43816801F07041E3
:100A20000A438260E0E70000FF0F0FFF00F0FFFFC6
:100A300090F82020012A07D0022A05D0416A41F40B
:100A40008021416201207047006842690A43426187
:100A50000020704710B590F82020012A07D0022A04
:100A600005D0416A41F480214162012010BD3B481C
:100A7000D0F8002242F00102C0F80022D0F8002293
:100A800022F47C52C0F80022D0F800224B6A42EADD
:100A90000322C0F800220A7D02F01F0301229A40BF
:100AA000D0F81C329343C0F81C32CB69B3B9D0F8EC
:100AB0000C329343C0F80C328C894B6864F31F43AB
:100AC0004C6900EBC404C4F840320C890B6864F331
:100AD0001F434C6900EBC404C4F84432CB69012BBA
:100AE00016D1D0F80C321343C0F80C320C884B6886
:100AF00064F31F434C6900EBC404C4F840320C8912
:100B0000CB6864F31F434C6900EBC404C4F844325F
:100B10008B69002BD0F804320ED01343C0F8043296
:100B20000B69002BD0F8143208D01343C0F81432EC
:100B3000096A012904D008E09343EFE79343F5E7FE
:100B4000D0F81C121143C0F81C12D0F8001221F08A
:100B50000101C0F80012002010BD00000064004038
:100B6000704730B590F82040012C05D0022C03D0FE
:100B7000416A41F480215DE00468002955D0246970
:100B8000A40754D04FF4D874056804EB01142D5910
:100B900015F00405956005682D594ED0ED08556097
:100BA00005682C5904F00204D4604FF4DA74056827
:100BB00004EB01142D5905F00F05156105682D5939
:100BC000C5F30725956105682C59240C54614FF431
:100BD000DC72046802EB0112A4581C700468A4586B
:100BE000240A5C700468A458240C9C700468A25801
:100BF000120EDA704FF4DE72046802EB0112A45890
:100C00001C710468A458240A5C710468A458240C5C
:100C10009C710468A258120EDA71006881B10169F2
:100C200041F020010161002030BDE468A8E7416A7D
:100C300041F400114162012030BD6D0D1560AFE738
:100C4000C16841F02001C160EDE72DE9F05F054684
:100C5000006800244669D0F804908768D0F80CB08A
:100C6000D0F810A0D0F81880F10748D0F90714D0B8
:100C700001218160B80703D5284600F006FA0CE090
:100C8000780702D54FF4006407E0380702D54FF427
:100C9000805402E0284600F0F7F9F80516D52968D7
:100CA0004FF480708860B80503D5284600F0EFF94E
:100CB0000CE0780502D544F4005407E0380502D56D
:100CC00044F4804402E0284600F0E0F9F80316D529
:100CD00029684FF480308860B80303D5284600F0B7
:100CE000D8F90CE0780302D544F4004407E0380357
:100CF00002D544F4803402E0284600F0C9F93007F8
:100D000007D55FEACB6004D52968102044F400744D
:100D1000C86070074FF0080707D55FEA0B7004D56D
:100D20002868C760284600F061F9B00706D5286832
:100D3000C068800702D0284600F05AF9700607D52F
:100D40005FEACA6004D52968102044F48064086111
:100D5000B00607D55FEA0A7004D5286807612846FF
:100D600000F062F9F00606D528680069800702D015
:100D7000284600F05AF9B00308D55FEAC96005D5E6
:100D8000296810204860284600F050F9F00307D584
:100D90005FEA097004D528684760284600F07AF9B0
:100DA000300446D55FEA497040D5F00504D55FEAC6
:100DB000C87001D044F00104B00504D55FEA887022
:100DC00001D544F00204700504D55FEA487001D5EE
:100DD00044F00404300529D518F0700F26D008F02F
:100DE0007000402815D006DC102809D020280AD031
:100DF000302816D10AE050280ED0602811D10EE01C
:100E000044F008040DE044F010040AE044F020042B
:100E100007E044F0400404E044F0800401E044F4BE
:100E200080742868816921F070018161296804203B
:100E30004860002C05D0686A204368622846FFF7A6
:100E40008FFEBDE8F09F70B5040003D094F8200039
:100E500010B104E0012070BD204600F081F8206848
:100E6000016841F00101016000F044FB05460526E0
:100E700004E000F03FFB401B0A2811D820684068BE
:100E8000C007F6D02068016821F00201016000F07F
:100E900031FB05460BE000F02DFB401B0A2806D96C
:100EA000606A40F40030606284F82060D2E7206815
:100EB00040688007EFD4207E0128206801683DD07B
:100EC00021F080010160607E01282068016838D02F
:100ED00021F040010160A07E01282068016833D024
:100EE00021F020010160E07E0128206801682ED0F9
:100EF00041F010010160207F01282068016829D09D
:100F000021F008010160607F01282068016824D079
:100F100021F004010160D4E902010843D4E904127C
:100F2000114308436168491E08432168C8610020D5
:100F30006062012084F82000002070BD41F0800133
:100F4000C0E741F04001C5E741F02001CAE721F0C8
:100F50001001CFE741F00801D4E741F00401D9E7DF
:100F600010B586B0044614216846FFF7F5F91C4910
:100F70002068884231D11B480021026842F080621B
:100F80000260026802F080620592026842F000721C
:100F90000260006800F00070059012481038026886
:100FA00042F002020260006800F0020005904FF477
:100FB000405000900220CDE9010103200390092058
:100FC00004906946084800F075F900220521402088
:100FD00000F096FC402000F085FC06B010BD00003B
:100FE00000680040403802400004024070470000A2
:100FF0001CB50A49884210D16B46094A0021FFF707
:10100000B0FD002809D106486946406806F084F81A
:1010100004480F21006820F0FBFD1CBD20020010D9
:10102000005000101C00001070477047704700000F
:1010300070B5044690F82000012804D0606A40F49E
:101040000020606218E0022084F820002068016817
:1010500021F00101016000F04DFA05460EE000BFED
:1010600000F048FA401B0A2808D9606A40F40030B2
:101070006062052084F82000012070BD206840686F
:10108000C007EDD1606270BD704770477047704710
:1010900070477047704770B5040004D094F8390069
:1010A000002510B106E0012070BD84F838502046BC
:1010B00000F01EF8022084F8390020680168626898
:1010C00021F44031114301602068416BA26821F096
:1010D0000701114341632068016CE2686FF30D0161
:1010E00011430164E563012084F83900002070BDDC
:1010F00008B500680649884208D10648016841F4ED
:1011000000010160006800F40000009008BD0000CC
:1011100000B00240303802402DE9F0410446876DAE
:1011200000F0E8F9064694F835000025022806D0BC
:101130008020606584F834500120BDE8F08120688B
:10114000016821F0160101602068416921F08001E9
:101150004161206C08B9A06C20B12068016821F0C1
:10116000080101602068016821F0010101600CE0C4
:1011700000F0C0F9801B052807D9202060650320F6
:1011800084F8350084F83450D7E720680068C00739
:10119000EED194F85C103F208840B860012084F8BC
:1011A000350084F834500020C7E790F83510022944
:1011B00003D08021416501207047052180F835105A
:1011C0000068016821F00101016000207047000003
:1011D00070B5044600F08EF90546601C02D0044844
:1011E0000078044400F086F9401BA042FAD370BD99
:1011F00028000010F0B587B014216846FFF7ACF85E
:1012000025480168002944D10121016023480024B8
:10121000016841F0010101600068022500F0010051
:1012200005904FF63F00CDE9000502AA03260C27E2
:1012300082E8D00069461A4800F03CF80D20CDE95C
:10124000000502AA694682E8D000164800F032F88C
:1012500048F23710CDE9000502AA694682E8D000BD
:10126000114800F027F84FF68370CDE9000502AA77
:10127000694682E8D0000D4800F01CF84CF203707B
:10128000CDE9000502AA694682E8D000084800F0CE
:1012900011F807B0F0BD00002000001038380240FF
:1012A00000140240000802400018024000100240F2
:1012B000000C02402DE9F84FDFF8F8A100220124CC
:1012C00003254FF00F090AF1040BAAF1040E00BF29
:1012D0000B6804FA02F63340B34270D10F7907F07D
:1012E0000307012F01D0022F16D187684FEA420869
:1012F00005FA08FC27EA0C07D1F80CC00CFA08FC28
:101300004CEA070CC0F808C04768B7430E79C6F32B
:10131000001696403E4346600E79F643B6070AD063
:10132000C7684FEA420C05FA0CF6B7438E6806FA16
:101330000CF63E43C6600E7906F00306022E10D16D
:10134000D60800EB8608D8F8206057074FEAD76C1C
:1013500009FA0CF7BE430F6907FA0CF73743C8F8D0
:10136000207006684FEA420C05FA0CF7BE430F796D
:1013700007F0030707FA0CF7374307604E6816F4C7
:10138000403F1CD04C4E376847F480473760366882
:1013900022F0030706F480460096484E07EB060C41
:1013A000DCF8086897073F0F09FA07F826EA0806ED
:1013B000DFF80C81404503D14FF0000841E072E0B6
:1013C000DFF80081404502D14FF0010839E0DFF835
:1013D000F880404502D14FF0020832E0DFF8EC809F
:1013E000404502D14FF003082BE0DFF8E480404590
:1013F00002D14FF0040824E0DFF8D880404502D144
:101400004FF005081DE0DFF8D080404502D14FF0D5
:10141000060816E0DFF8C480404502D14FF0070807
:101420000FE0DFF8BC80404502D14FF0080808E02B
:10143000DFF8B080404502D14FF0090801E04FF0DD
:101440000A0808FA07F848EA0608CCF80888DAF823
:1014500000605746D1F804C09E435FEACC2C00D50B
:101460001E433E60DBF800605F46D1F804C09E4337
:101470005FEA8C2C00D51E433E60DEF800607746A4
:10148000D1F804C09E435FEA8C3C00D51E433E6009
:10149000084F083F3E68D1F804C09E435FEACC3C49
:1014A00000D51E433E60521C102AFFF411AFBDE868
:1014B000F88F0000083C01404438024000300140F1
:1014C000000002400004024000080240000C0240FC
:1014D000001002400014024000180240001C0240AC
:1014E00000200240002402400AB1816170470904D3
:1014F000FBE70000014880687047000028000010EA
:101500000248816802781144816070472800001009
:101510000B4810B5016841F400710160016841F4A5
:1015200080610160016841F480710160032000F076
:1015300007FA0F2000F006F800F0B8F9002010BDFF
:10154000003C024030B505461C4887B000240168C5
:1015500041F001010160006806A900F0010000905F
:1015600001A800F0FBFB00F029FC15494000B0FB8E
:10157000F1F11548134A491E026040F2E732C0E912
:101580000324C0E90114846100F00EFF040012D1AD
:101590000D4800F037FF04000DD1192000F0A2F92A
:1015A000102D07D200222946192000F0A9F907487A
:1015B000056000E0012407B0204630BD44380240F9
:1015C00040420F0000000140100400102C000010E9
:1015D0002DE9F041044690F8A00016460F46012878
:1015E0001DD0012584F8A050022084F8A10006EB4C
:1015F000860000EBC60004EB800034223830FEF792
:1016000084FE32463946204601F001FB20684562DF
:1016100084F8A150002084F8A000BDE8F0810220E9
:10162000FBE7000070B5040004D094F8A100002589
:1016300010B106E0012070BD84F8A050204600F0F3
:101640006BF8022084F8A1002068816921F07041C4
:101650008161D4E901010843D4E90312114308432D
:1016600021688A691043886121688A682948024094
:101670008A60A18A0A0421688B68A66933431343F0
:101680008B602168CA680240CA60A18B0B04216884
:10169000CA68266A32431A43CA6021680A6902404E
:1016A0000A61A18C22680B041169A66A31431943AF
:1016B000116121684A6902404A61A08D01042068D5
:1016C0004269236B1A430A43426194F8350021684A
:1016D000020294F83600CB6A03F07F43CB622168A4
:1016E000CB6A94F8346042EA004033430343CB6250
:1016F0002068416B41F0060141632068816941F037
:1017000001018161C4F8A450012084F8A1000020E7
:1017100070BD000000F800F02DE9F04393B00446DE
:1017200014216846FEF718FE302105A8FEF714FEC6
:101730005649206888427CD1002432200E94082625
:101740000225099005960B9505A800F043F908B10C
:10175000FFF7B6F84E48016841F08061016000680B
:1017600000F0806011904A481438016841F020016F
:101770000160016801F020011191016841F001014F
:101780000160016801F001011191016841F002015D
:101790000160016801F002011191016841F040010E
:1017A0000160016801F040011191016841F00401FC
:1017B0000160016801F004011191016841F0080124
:1017C000016000680E2700F0080011904FF480605F
:1017D0000090CDE90154CDE9034769462D48FFF754
:1017E00069FD41F658000090CDE90154CDE9034769
:1017F00069462948FFF75EFD03200090CDE90154BA
:101800004FF00908DFF89490CDE90348694648464F
:10181000FFF750FD4FF470600090CDE90154CDE921
:10182000034769464846FFF745FD4FF40C600090BA
:1018300000E027E0CDE90154DFF86490CDE90347EB
:1018400069464846FFF736FDC0200090CDE90154B7
:10185000CDE9034769461348FFF72CFD0096CDE913
:101860000154CDE9034769460F48FFF723FD4FF4C4
:10187000A0500090CDE90154CDE90348694648469F
:10188000FFF718FD13B0BDE8F083000000680140C9
:1018900044380240001402400000024000040240AC
:1018A0000018024000080240000C02400C4882B0C0
:1018B000016841F480410160006800F480400090BC
:1018C0000748001F016841F0805101600068002254
:1018D00000F0805000900F21901E02B000F010B870
:1018E00044380240002809DB00F01F02012191402A
:1018F0004009800000F1E020C0F8001170470000AE
:10190000F0B40E4B1B680C46C3F30223C3F107056A
:10191000042D00D90425191D072901D2002300E058
:10192000DB1E012606FA05F1491E214099409E4022
:10193000761E16403143F0BC01F0BCBE0CED00E059
:10194000064900F0070208684FF6FF03184040EA16
:101950000220034A10430860704700000CED00E0CD
:101960000000FA052DE9F8431748016841F080515D
:1019700001600068154F00F08050012600903E6421
:10198000FFF7B8FD05464FF47A78114C05E000BF2B
:10199000FFF7B0FD401B40450DD86068C003F7D588
:1019A0007E64FFF7A7FD0546464607E0FFF7A2FD68
:1019B000401BB04202D90320BDE8F8836068800371
:1019C000F4D50020F8E700004038024000000E4245
:1019D000007000402DE9F84F04460068DFF824A2AB
:1019E000894F8A4DC1074FF001084FF0000603D11F
:1019F000810701D4400648D5CAF86860FFF77AFD30
:101A0000814605E0FFF776FDA0EB090002287DD8AE
:101A100028680001F6D42078C1077D4805D06168A8
:101A2000227A890141EA027101602178890711D582
:101A300001686268237B9201C1F3027142EA03628A
:101A400042EA017101603968E26921F01F01521E0A
:101A5000114339602178490608D56168227B8901E4
:101A600041EA0261227A41EA02710160CAF86880A3
:101A7000FFF740FD814605E0FFF73CFDA0EB0900C4
:101A8000022843D828680001F6D52068410701D410
:101A900000074ED5CAF87060FFF72CFD814605E0BF
:101AA000FFF728FDA0EB090002282FD82868C043C3
:101AB0008000F5D520784107564814D50168226981
:101AC000237D9201C1F3027142EA036242EA01718D
:101AD00001603968226A6FF0FF0321F4F85103EBCB
:101AE0000222114339602178090712D50168226961
:101AF000C1F30361920142EA0161227E41EA02716F
:101B000001603868616A20F4403000E051E0084329
:101B10003860CAF87080FFF7EDFC074605E000BFAB
:101B2000FFF7E8FCC01B022843D82868C0438000A8
:101B3000F6D42078800653D534484030016841F00F
:101B4000805101600068344D00F08050009028689A
:101B500040F480702860FFF7CDFC074605E000BF29
:101B6000FFF7C8FCC01B022823D82868C005F7D59A
:101B7000274D143D286810F4407020D0218D01F4C9
:101B8000407181421BD0286820F440712348C0F87E
:101B90000080066029602868C00710D0FFF7AAFC03
:101BA000064641F2883707E0FFF7A4FC801BB842E5
:101BB00002D90320BDE8F88F28688007F4D5A16A10
:101BC0001248C1F301220830032A13D0016821F41E
:101BD000F81101602868218DC1F30B0108432860CA
:101BE0002078C00604D50E4994F82C00C1F8E00115
:101BF0000020DFE702680B4B22F4F81219400A4379
:101C00000260E7E7000047428C380240003802409B
:101C1000843802408838024000700040400E47423D
:101C200000104742FFFCFF0F2DE9F0470E4605006C
:101C300065D0DFF81481D8F80000F7B200F00F008B
:101C4000B04207D288F80070D8F8000000F00F000A
:101C5000B04254D128683D4C810712D5400703D5C6
:101C6000206840F4E05020602878000703D5206801
:101C700040F4604020602068A96820F0F00008432C
:101C800020602878C0072DD03049686808390128BD
:101C900012D0022813D0032811D00968890700291F
:101CA0002DDA216821F0030101432160FFF722FCB6
:101CB000814641F2883A0EE009688903EFE7096836
:101CC0008901ECE7FFF716FCA0EB0901514502D9A9
:101CD0000320BDE8F0872068696800F00C00B0EBD5
:101CE000810FEFD1D8F80010404601F00F01B1424A
:101CF00007D90770006800F00F00B04201D0012042
:101D0000E7E72878400705D52068E96820F4E05027
:101D1000084320602878000706D52068296920F448
:101D2000604040EAC100206000F058F82168084A8D
:101D3000C1F30311515CC8400649086006480068B9
:101D4000FFF700FC0020C4E7003C024008380240D6
:101D500054870208040000202C0000100F220260AB
:101D60000C4A136803F003034360136803F0F003A5
:101D70008360136803F4E053C36012684FF4E053C8
:101D800003EAD20202610448006800F00F00086014
:101D90007047000008380240003C024004480549F2
:101DA00000680968044AC1F38221515CC840704749
:101DB00004000020083802406487020804480549EE
:101DC00000680968044AC1F34231515CC840704759
:101DD000040000200838024064870208154810B546
:101DE000006810F00C02144813D04110042A0FD0E0
:101DF000082A0ED10F4C241F2268236802F03F02EC
:101E00005B0207D52068C0F38810A0FB010106E043
:101E1000084610BD2168C1F38811A1FB0001002311
:101E2000FEF742FA2168C1F30141491C4900B0FBA9
:101E3000F1F010BD083802400024F4002DE9F84FFD
:101E400004006ED02078DFF84C93C007A9F1040598
:101E50004AD009F104000168C1F38101012908D0C9
:101E60000068C0F3810002280AD1D9F800004002BE
:101E700006D52868800337D560680028E1D033E0B4
:101E80006068B0F5803F10D0B0F5A02F286810D062
:101E900020F480302860286820F480202860606862
:101EA000A8B1FFF727FB06460DE0286840F4803014
:101EB000F4E740F480202860F7E700BFFFF71AFB43
:101EC000801B642873D828688003F7D50CE0FFF7DF
:101ED00011FB064605E000BFFFF70CFB801B6428E2
:101EE000F0D828688003F7D42078DFF8AC82800728
:101EF0004FF0000A3ED5A748001D016811F00C0FF5
:101F000008D00068C0F3810002280BD1D9F8000086
:101F1000400207D42868800716D5E068012800D160
:101F200012E033E1E068B8B10120C8F80000FFF723
:101F3000E1FA064605E000BFFFF7DCFA801B022845
:101F4000C0D828688007F7D52868216920F0F800F4
:101F500040EAC10028600DE0C8F800A0FFF7CAFA07
:101F6000064604E0FFF7C6FA801B02281FD828683F
:101F70008007F7D42078000722D5864F874861690B
:101F8000703771B101210160FFF7B4FA064604E031
:101F9000FFF7B0FA801B022809D838688007F7D508
:101FA0000EE0C0F800A0FFF7A5FA064605E082E0C3
:101FB000FFF7A0FA801B02287DD838688007F7D485
:101FC0002078400768D5DFF8CCB100270BF13C0B37
:101FD000DBF80000C0000BD4DBF8001041F08051AA
:101FE000CBF80010DBF80000012700F080500090D3
:101FF0006B4E3068C00510D4306840F4807030609B
:10200000FFF778FA009005E0FFF774FA0099401A9C
:10201000022850D83068C005F6D55E4EA0686C36F0
:1020200001280FD00528306810D020F00100306062
:10203000306820F004003060A068B8B1FFF75AFAA9
:1020400000900FE0306840F00100F4E740F0040039
:102050003060F7E7FFF74EFA0099411A41F28830F5
:10206000814266D830688007F4D50EE0FFF742FA67
:10207000009007E0FFF73EFA0099411A41F28830DC
:10208000814256D830688007F4D42FB1DBF80010B5
:1020900021F08051CBF80010A069C8B33D49091D5B
:1020A0000968C1F3810102294AD00228504607D0AD
:1020B000C8F8600000E03CE0FFF71CFA04463BE093
:1020C0004746C8F86000FFF715FA064605E000BF6E
:1020D000FFF710FA801B02282BD828688001F7D45C
:1020E000D4E907010843A16A2E4A490802EB0141DD
:1020F000626A41EA8211084394F82C1040EA0161B7
:10210000C9F8001001203866FFF7F4F9044606E02C
:102110003EE000BFFFF7EEF9001B022809D828684F
:102120008001F7D534E000BFFFF7E4F9001B022877
:1021300002D90320BDE8F88F28688001F4D427E095
:102140000128F7D0D9F80000E26900F4800191423B
:102150001CD1226A00F03F01914217D147F6C071AD
:10216000626A0140B1EB821F10D1A26A4FF0FF33C7
:1021700000F4403103EB5202B1EB024F06D194F868
:102180002C1000F07060B0EB016F01D00120D1E79E
:102190000020CFE70438024000004742800E47424B
:1021A000007000400000FFFF70B50D46040003D032
:1021B00094F82C0010B107E0012070BD002084F8D5
:1021C0002D00204600F011F8022084F82C00211D7B
:1021D0002068FEF777FBD4E900022946FEF7D6FB1C
:1021E000012084F82C00002070BDFFF703B810B563
:1021F000044690F82C00022804D094F82C00012802
:1022000001D0012010BD022084F82C002068FEF7C8
:102210008CFB012084F82C00002010BD70B5044612
:1022200090F82C000D46022804D0012803D0052880
:1022300001D0012070BD022084F82C002068FEF738
:102240007DFB2868022805D05FF0010084F82C008F
:10225000002070BD0520F9E770B5040009D0606A60
:10226000002540B125616561A56294F8510040B137
:102270000CE0012070BD6068B0F5827FF4D0E561AC
:10228000F2E784F85050204600F044F8022084F829
:1022900051002068016821F040010160A088218977
:1022A00000F4827001F404410843A18901F4006143
:1022B0000843217C01F002010843217D01F0010166
:1022C0000843218B01F400710843217F01F038019C
:1022D000084394F8201001F080010843218D01F497
:1022E0000051084321680860A069042101EA1040F8
:1022F00094F8241001F01001084321684860206818
:10230000C16921F40061C1616565012084F8510053
:10231000002070BDF0B587B0044614216846FEF772
:102320001BF81C492068884232D11B4800240168F0
:1023300041F480510160006800F480500590164817
:102340001438016841F001010160016801F00101E8
:102350000591016841F0020101600068022500F06A
:1023600002000590A020CDE9000502AA032605275A
:1023700082E8D00069460948FEF79CFF1020CDE9AD
:10238000000502AA694682E8D0000548FEF792FFE0
:1023900007B0F0BD00300140443802400000024068
:1023A000000402407047704710B5040003D094F851
:1023B0003D0010B107E0012010BD002084F83C0072
:1023C000204600F01EF8022084F83D00211D206800
:1023D00000F070FF012084F8460084F83E0084F885
:1023E0003F0084F8400084F8410084F8420084F8FB
:1023F000430084F8440084F8450084F83D00002040
:1024000010BD704790F83D10012901D001207047A0
:10241000022180F83D100168CA6842F00102CA60DA
:1024200000681149884214D0B0F1804F11D00F4993
:1024300088420ED00E4988420BD00E49884208D0FF
:102440000D49884205D00D49884202D00C49884286
:1024500004D1816801F00701062903D0016841F029
:1024600001010160002070470000014000040040AD
:1024700000080040000C0040000401400040014002
:1024800000180040704770B50446006801694FF0BD
:102490000005C943890715D4C168C943890711D408
:1024A000E91E0161012020772068806980072046AD
:1024B00002D0FFF7E7FF04E000F098F8204600F0B4
:1024C00096F8257720680169C943490717D4C16880
:1024D000C943490713D46FF004010161022020773A
:1024E0002068806910F4407F204602D0FFF7CAFFC1
:1024F00004E000F07BF8204600F079F825772068AA
:102500000169C943090716D4C168C943090712D430
:102510006FF008010161042020772068C0698007FE
:10252000204602D0FFF7AEFF04E000F05FF820463F
:1025300000F05DF8257720680169C943C90617D402
:10254000C168C943C90613D46FF0100101610820A6
:1025500020772068C06910F4407F204602D0FFF742
:1025600091FF04E000F042F8204600F040F82577A3
:1025700020680169C943C90708D1C168C943C907AF
:1025800004D1891E0161204600F032F820680169FB
:10259000C943090609D4C168C943090605D46FF0C7
:1025A000800101612046FFF7FDFE20680169C943F3
:1025B000490609D4C168C943490605D46FF04001F2
:1025C0000161204600F01EF820680169C9438906B0
:1025D0000BD4C168C943890607D46FF0200101619B
:1025E0002046BDE87040FFF7DEBE70BD7047704703
:1025F00000680349884201D1FEF782BF704700009E
:102600000000014070477047704710F83D1F407848
:1026100008437047F8B5016804460868CA684B6902
:1026200010F00F0F4FF0000559D003F0010602F42F
:102630009077374365D0C10705D0D10503D5216C0C
:1026400041F001012164410705D5D90703D0216C70
:1026500041F002012164810705D5D90703D0216C1F
:1026600041F004012164010707D502F02001314344
:1026700003D0216C41F008012164216C00293AD07B
:10268000800604D5900602D5204600F0A6FE2068FC
:102690004069216CC0F38010090700D460B3204664
:1026A00000F074FE20684069400621D5206814308F
:1026B00050E8001F21F0400140E80012002AF5D147
:1026C000A06BA8B16C490165A06BFEF76EFD0028F8
:1026D00011D0A06B016D01B0BDE8F0400847830642
:1026E0000FD593060DD52046BDE8F84000F075BE25
:1026F0002046FFF789FFF8BD2046FFF785FF2564D8
:10270000F8BD266B2023012E79D1C60677D5D606D3
:1027100075D50868486800904869400640D5A16BA7
:10272000086840680004000CEAD0A28D8242E7D914
:10273000E085C869B0F5807F2DD020680C3050E866
:10274000001F21F4807140E80012002AF5D12068B2
:10275000143050E8001F21F0010140E80012002A67
:10276000F5D12068143050E8001F21F0400140E806
:102770000012002AF5D184F83E30256320680C3021
:1027800050E8001F21F0100140E80012002AF5D1A6
:10279000A06BFEF7C1FCA08DE18D401A81B229E04B
:1027A000A08DE18D401A81B2E08D0028A8D00029CB
:1027B000A6D020680C3050E8002F22F4907240E838
:1027C0000026002EF5D12068143050E8002F22F0AA
:1027D000010240E80026002EF5D184F83E30256342
:1027E00020680C3050E8002F22F0100240E800234F
:1027F000002BF5D12046FFF706FFF8BDFFE70506E1
:102800002BD5150629D594F83D002128F5D1A068CF
:10281000B0F5805F01D12069B0B1206A411C21620E
:10282000216800784860E08C401E0004000CE084C1
:10283000E3D12068C16821F08001C1602068C168CF
:1028400041F04001C160D8E7206A0088C0F3080069
:102850004860206A801C2062E5E74006CDD550061E
:10286000CBD5CA68204622F04002CA6084F83D30C9
:1028700000F0CBF9C1E700007D33000870B504001B
:1028800004D094F83D00002510B106E0012070BD91
:1028900084F83C50204600F023F8242084F83D00C2
:1028A0002068C16821F40051C160204600F0F6FDA7
:1028B0002068016921F4904101612068416921F09B
:1028C0002A0141612068C16841F40051C16025645A
:1028D000202084F83D0084F83E00002070BD0000F8
:1028E00070B586B0044614216846FDF735FD284EC4
:1028F000226800212748022303240725B2421DD164
:10290000244A1432166846F010061660126802F067
:1029100010020592026842F001020260006802AAF9
:1029200000F00100059082E832006002CDE900036A
:1029300069461948FEF7BEFC06B070BD174EB2429C
:10294000FAD1144A1032166846F4802616601268CE
:1029500002F480220592026842F0040202600068DC
:1029600002AA00F00400059082E832004FF44060B3
:10297000CDE9000369460A48FEF79CFC00220521C8
:102980002720FEF7BDFF2720FEF7ACFFD4E70000AD
:102990000010014030380240000002400048004072
:1029A0000008024090F83E30202B0ED159B152B1B0
:1029B00090F83C30012B08D0012380F83C300023F4
:1029C000036300F0F1BD0120704702207047000052
:1029D00070B500684A4988427ED14A4C00254FF6BE
:1029E000FF762078FF280BD3257064214648FDF739
:1029F000B3FC33460A2245A1474800F0ADF877E022
:102A000046490A7840490A54401CC0B2014420702B
:102A100011F8022C0D2A6BD111F8011C0A2967D17B
:102A2000022865D03E490978002961D0401E82B253
:102A300033463549384800F08FF83748FFF7E5FD51
:102A40002128FAD037A13048FDF7AAFC18B12E484A
:102A5000FDF79FFC40B964212B48FDF77DFC012266
:102A600029493148FFF79EFF30A12748FDF77FFC39
:102A7000012650B12E48642106702348FDF76CFCF6
:102A8000012221492848FFF78DFF2AA11E48FDF7A2
:102A90006EFC50B12948642106701B48FDF75CFCB0
:102AA000012219492048FFF77DFF25A11648FDF7AF
:102AB0005EFC50B12448642106701348FDF74CFCBD
:102AC000012211491848FFF76DFF20A10E48FDF7BC
:102AD0004EFC60B11F4800E011E0067064210A4816
:102AE000FDF73AFC012208490F48FFF75BFF25700C
:102AF000BDE87040012209490B48FFF753BF70BD84
:102B00000048004000000010A40100106F766572BC
:102B1000666C6F770000000088030010040000104E
:102B20000100001020000000CC03001052445900A6
:102B3000000000204F50454E000000000300001030
:102B4000434F4E4E00000000020000205055424509
:102B500058000000010000202DE9F843044690F8D9
:102B60003D001F4616460D4620284CD1C5B1BEB1CA
:102B700094F83C00012846D0012084F83C004FF036
:102B80000008C4F84080212084F83D00FEF7B2FC24
:102B9000A6848146E684A068B0F5805F03D004E097
:102BA0000120BDE8F883206928B12E465FF00005BA
:102BB00084F83C800EE00026FAE78021204600F0F1
:102BC00010FDA0B9AEB116F8010B21684860E08C89
:102BD000401EE084E08C4B464FF000020097002836
:102BE000EBD14FF04001204600F0FBFC30B1032058
:102BF000D7E735F8020BC0F30800E6E7202084F899
:102C00003D000020CDE70220CBE77047FEE7F0B59E
:102C100003688C88DD68C5F30B452C4425048824A3
:102C200004EBC2141E5906F470461E5103680F6867
:102C3000DE68C6F30B46761C3E442E431E510468E4
:102C40008B89E568C5F30A052B441D048C2303EB2F
:102C5000C213E65806F47046E65004688F68E668CA
:102C6000C6F30A06761C3E442E43E65094230468BD
:102C700003EBC213E55825F00705E55005680C691C
:102C8000EC5091F831300C7E1F0226069C2405681A
:102C900004EBC21491F8323055F804C04FF0000C28
:102CA00045F804C091F8305046EA03433D431D43C4
:102CB00003681D519823046803EBC213E55825F0FF
:102CC000FF05E55005684C69EC50A023046803EB50
:102CD000C213E55840F20776B543E550D1E9074500
:102CE0002C430568EC50AC23046803EBC213E55891
:102CF00044F803C005684C6AEC500B698BB3012B98
:102D000032D0042B32D0022B30D0032B2ED0072B05
:102D10002CD00123B024056804EBC2142E5906F010
:102D2000E0262E51D1E90065AD1B0E8D5D435E435B
:102D3000ED1C45EA064305682B51B423046803EBF8
:102D4000C213E5586FF30A05E5500468C96AE150FB
:102D50000068842101EBC211425842F00102425046
:102D6000F0BDFFE70423D5E70323D3E70223D1E730
:102D700010B50A490446022008702046FDF709FBF9
:102D8000014607A000F072FC0A201EF01DFF21463C
:102D9000BDE810400AA000F069BC0000030000205C
:102DA00041542B514D5450554245583D302C302CF8
:102DB000302C302C226D717474222C25640D0A0085
:102DC000257300000F4810B50D49016024214160B2
:102DD00000214FF480328160C0E903121201426188
:102DE000017641768176C17601774177FEF72BF83F
:102DF000002803D0BDE81040FDF762BD10BD000003
:102E000000680040200200100A4810B5084901601F
:102E10004FF440314160022181600021C160FEF722
:102E20003AF9002803D0BDE81040FDF749BD10BDB8
:102E300000B002404802001000B587B01C2168466F
:102E4000FDF78AFA16481549012201600021C0E900
:102E5000011208221023C0E90323402343614FF4E9
:102E6000C073C0E906311302C0E9083191028162E2
:102E7000022006210090CDE90121072103910521BF
:102E8000CDE90410069069460548FFF78DF9002842
:102E900001D0FDF715FD07B000BD0000400100A006
:102EA000DC01002010B510481EF065FF0F4C0E4AE3
:102EB00000212061903A0E481EF0B2FF0A4A2060BD
:102EC0006C3A00210B481EF0ABFF074A6060483A9D
:102ED000002109481EF0A4FFA060034810301EF036
:102EE00080FE606110BD00003487020808000010F9
:102EF000BDDE000839DF000805DF00082DE9F041DC
:102F000086B014216846FDF727FA38480024016886
:102F100041F020010160016801F020010591016884
:102F200041F080010160016801F0800105910168B4
:102F300041F004010160016801F00401059101689C
:102F400041F001010160016801F001010591016892
:102F500041F002010160016801F002010591016880
:102F600041F040010160016801F0400105910168F4
:102F700041F010010160016801F010010591016844
:102F800041F0080101600068194F00F008004FF49B
:102F900000650590002229463846FEF7A5FADFF8BD
:102FA0005480EE10002231464046FEF79DFA00950F
:102FB0000125CDE90154694638460394FEF77AF9B4
:102FC000280300904FF48810CDE901046946384683
:102FD000FEF770F90096CDE9015469464046039426
:102FE000FEF768F906B0BDE8F08100003038024015
:102FF000000C02400008024010B58EB03421684633
:10300000FDF7AAF9264825490024C0E90014846088
:103010000321C460C0E9044181610B21C1610162E7
:1030200040F22B31416240F2EB11816240F23331C8
:10303000C16240F2F311016380F8344080F83540FA
:1030400080F83640FEF7EEFA08B1FDF739FC4FF490
:103050004870CDE900404FF4F07102220294CDE9AE
:103060000312FF22CDE905244FF480620792052266
:1030700008924A06CDE90A018DF8304009928DF890
:1030800031408DF83240002269460548FEF7A0FA2B
:10309000002801D0FDF714FC0EB010BD00680140FF
:1030A000880200100F4810B50D4901604FF482717D
:1030B000416000218160C1604FF400720161C0E98C
:1030C0000512C1610162416281620A21C162FFF79A
:1030D000C3F8002803D0BDE81040FDF7F1BB10BDD8
:1030E00000300140300300100C4810B50A4901605F
:1030F0004FF4E1214160002181600C22C160C0E9F0
:1031000004128161C161FFF7B9FB002803D0BDE85B
:103110001040FDF7D5BB10BD001001408803001022
:103120000C4810B50A4901604FF4E12141600021CB
:1031300081600C22C160C0E904128161C161FFF7A6
:103140009DFB002803D0BDE81040FDF7B9BB10BDC2
:1031500000480040CC030010FEE7FEE7012210B556
:1031600000231146104600F01FF80120FEF730F84A
:10317000012200231146022000F016F80023082245
:103180000121032000F010F801224FF40C731146C6
:10319000042000F009F8BDE8104040F2AB210148DE
:1031A000FFF725B8DC0100201FB5012902D0022954
:1031B00002D002E0102400E00824CDE90004CDE9AB
:1031C00002234FF4805269460448FFF727F800288D
:1031D00001D04FF0FF3004B010BD0000DC01002032
:1031E00010B54FF0E020006925F03AF8012803D02F
:1031F000BDE8104024F030BC10BD000030B593B0E5
:1032000030216846FDF7A8F814210CA8FDF7A4F8B2
:103210001F480025016841F080510160006800F0FE
:10322000805011901B48016841F4404101600068E2
:10323000022400F44040119001200090000401900D
:103240008001CDE9064008AA0420B42182E81300D9
:103250000B906846FEF7F2FD08B172B6FEE7FEF786
:1032600081FB08B172B6FEE70CA90F2081E831009E
:103270004FF4A0500F904FF48050109005210CA8EF
:10328000FEF7D2FC002801D072B6FEE713B030BDC5
:1032900040380240007000400248016841F470016B
:1032A0000160704788ED00E00148FFF7ECB80000CE
:1032B00010040010F0B50268254C264D264E274F0D
:1032C000274B4FF0804CA04209D0604507D0A84260
:1032D00005D0B04203D0B84201D0984204D122F0C8
:1032E000700E4A6842EA0E02A0421BD0604519D017
:1032F000A84217D0B04215D0B84213D0984211D08E
:10330000184DA8420ED0184DA8420BD0174DA84218
:1033100008D0174DA84205D0164DA84202D0164D30
:10332000A84203D122F44075CA682A434D6922F0AD
:1033300080022A4302608A68C2620A688262A042EE
:1033400001D0984201D10969016301214161F0BDB9
:10335000000001400004004000080040000C004054
:103360000004014000400140004401400048014089
:1033700000180040001C00400020004010B5806B89
:103380000021C185C184FFF73FF910BD01680C31F0
:1033900051E8002F22F4907241E80023002BF5D170
:1033A0000168143151E8002F22F0010241E80023A6
:1033B000002BF5D1016B012909D101680C3151E8CD
:1033C000002F22F0100241E80023002BF5D120212C
:1033D00080F83E1000210163704708B590F83E1058
:1033E000222901D0022008BD82684FF480539A42FE
:1033F00001D1016921B1816A9A421BD04AB10AE028
:103400000268816A5268C2F308020A80816A891CD4
:1034100008E0026972B10268526802F07F020A7025
:10342000816A491C8162C18D491E0904090CC1854C
:1034300003D019E002685268F1E70168CA6822F017
:103440002002CA600168CA6822F48072CA600168FA
:103450004A6922F001024A61202180F83E10016B86
:10346000012903D0FFF7B4FA002008BD0021016351
:1034700001680C3151E8002F22F0100241E80023CE
:10348000002BF5D101680A68D20602D50A6849689E
:103490000091818DFFF7B7F8E6E7000070B50446AC
:1034A00000680169E26821F440511143016121691A
:1034B000A068E26908436169114308432168CA684A
:1034C00049F20C639A430243CA6020684169A269C9
:1034D00021F440711143416131492068884202D092
:1034E0003049884202D1FEF769FC01E0FEF756FC44
:1034F000E2690023192164253226B2F5004F626883
:1035000028D0A0FB0101930F9200FCF7CDFE0146ED
:10351000B0FBF5F06FF01802504301EB800006EBB2
:103520000010B0FBF5F000F0F002B1FBF5F002EB9B
:103530000012B1FBF5F06FF01803584301EB800067
:1035400006EB0010B0FBF5F000F00F00216810440E
:10355000886070BDA0FB010192185B41FCF7A4FEDE
:103560000146B0FBF5F00201B1FBF5F06FF0180376
:10357000584301EB800006EBC000B0FBF5F000F013
:10358000F80002EB4002B1FBF5F0584301EB80007C
:1035900006EBC000B0FBF5F000F00700D6E7000036
:1035A000001001400014014081628285C285002123
:1035B0000164222280F83E2080F83C10016921B18C
:1035C0000168CA6842F48072CA6001684A6942F0C0
:1035D00001024A610068C16841F02001C160002019
:1035E00070472DE9F041984617460E460446069D61
:1035F00027E0681C25D02DB1FDF77CFFA0EB08006B
:10360000A8421ED920680C3050E8001F21F4D07168
:1036100040E80012002AF5D12068143050E8001F5D
:1036200021F0010140E80012002AF5D1202084F8A1
:103630003D0084F83E00002084F83C000320BDE8F3
:10364000F0812068006836EA000004D00020B8420B
:10365000CFD00020F3E70120F9E700000148FEF792
:10366000D9BF0000CC030010FEE700000FB4054BEB
:1036700010B503A9044A029801F0E2FC10BC5DF801
:1036800014FB0000D9ED0008A00100100FB4084B96
:1036900010B504A902AA039801F0D2FC044602A9BD
:1036A000002001F0F8FE204610BC5DF814FB00007D
:1036B000975400080907090E002804DB00F1E020F8
:1036C00080F80014704700F00F0000F1E02080F84F
:1036D000141D704702E008C8121F08C1002AFAD161
:1036E00070477047002001E001C1121F002AFBD182
:1036F000704770B5044600256FF02F0608E020687B
:10370000411C2160007805EB850106EB410145185D
:103710002068007800F004F80028F0D1284670BD39
:103720003038092801D80120704700207047000078
:1037300010B54021074800F0B1FF00221E210648C5
:103740001DF0E8F8054CA06002F07CFA0020207023
:1037500010BD00001C4E0010ED5C000800010010C0
:1037600070B5B1F90030B2F90040A34200DC234645
:103770000380B1F90250B2F90240A54200DD2C46A7
:103780004480B1F90460B2F90450AE4200DA354623
:103790008580B1F90610B2F90620914200DB11468E
:1037A000C1800120AB4201DC8C4200DD002070BDF5
:1037B000F8B50D460446B0F90000B1F90010164600
:1037C000884247DBB4F90210B5F90220914241DB8F
:1037D000B4F90410B5F9042091423BDCB4F90610A9
:1037E000B5F90620914235DC96B3ADF8000060884B
:1037F000ADF8020032466946284600F099F80028E4
:1038000027D0A088ADF800006088ADF802003246ED
:103810006946284600F08CF800281AD02088ADF8B8
:103820000000E088ADF8020032466946284600F004
:103830007FF800280DD0A088ADF80000E088ADF832
:10384000020032466946284600F072F8002800D08F
:103850000120F8BD0020F8BDB0F90020B1F9043016
:103860009A4213DCB0F90420B1F900309A420DDB22
:10387000B0F90220B1F906309A4207DCB0F906002F
:10388000B1F90210884201DB012070470020704727
:10389000F8B50D460446B0F90400B1F9001016461B
:1038A000884243DBB4F90600B5F9021088423DDBDB
:1038B000B4F90000B5F90410884237DCB4F90210FD
:1038C000B5F90620914231DC76B3ADF8000060888E
:1038D000ADF8020032466946284600F029F818BBC8
:1038E000A088ADF800006088ADF802003246694655
:1038F000284600F01DF8B8B92088ADF80000E0882F
:10390000ADF8020032466946284600F011F858B971
:10391000A088ADF80000E088ADF8020032466946A4
:10392000284600F005F808B10020F8BD0120F8BDD8
:103930002DE9FC4114460E46B1F90020B0F9001003
:1039400005468A423ADBB5F90400824236DCB6F914
:103950000270B5F90220974230DBB5F906309F427C
:103960002CDC002C75DD401A9A1A401C521C00B247
:1039700012B200EBD07002EBD272401052109042A3
:1039800000DB1046844200DD0446ADF800102888B4
:1039900000222044ADF804006888ADF80200688871
:1039A00031462044ADF806006846FFF7C1FF40B13C
:1039B000BDF804002044ADF804003FE00020BDE85D
:1039C000FC81E8880022001BADF80200E888ADF811
:1039D000060031466846FFF7ABFF28B1BDF804008A
:1039E0002044ADF8040011E0A8880022001BADF8C7
:1039F0000000A888ADF8040031466846FFF798FF3C
:103A000050B1BDF80000001BADF80000BDF8020089
:103A1000001BADF8020016E06888ADF80200688867
:103A200000222044ADF8060031466846FFF780FFCB
:103A300070B1BDF80000001BADF80000BDF8060035
:103A40002044ADF80600314668461AF0D3F9B6E7CF
:103A5000FFE70120B3E710B5B1F90040B2F900303B
:103A60009C4200DA23460380B1F90240B2F90230E9
:103A70009C4200DA23464380B1F90440B2F9043095
:103A80009C4200DD23468380B1F90610B2F906207E
:103A9000914200DC1146C18010BD00002DE9F041CB
:103AA0008AB005461CF0E4FE0026A04C07460096AE
:103AB0000DB1E86801E00FF0D1FF606000691AF015
:103AC00035F96068406908B11AF030F96068C0697A
:103AD0001AF02CF96068006A1AF028F96068016928
:103AE000F1B31AF0B3FB1AF02FFB6068B0F8501175
:103AF00099B30168097C890715D510F00DF8401EAF
:103B000005B260680FF0C2FF401E03B200221146EA
:103B100001A800950DF015FE606801A90268926B7E
:103B2000516004F0D7FB60684FF48071303015F0BD
:103B3000F7FE6068202100F5987015F0F1FE6068CE
:103B4000A0F8506138461CF08DFE00906068006857
:103B5000436A13B122680099984715F023FD00E0ED
:103B600007E000F02FF900F001F9714D6F692FB1F6
:103B70003FE0A0F850610AB0BDE8F08115F0F1FA1D
:103B800014F006FC074600227F2119F0DAFF0FF03F
:103B90003FF901460022384619F0B0FF0FF0D7FB7D
:103BA0000146002238461AF04CF80022032138461C
:103BB0001AF036F80022032138461AF01FF80022C6
:103BC000032138461AF020F80022032138461AF063
:103BD00021F80022032138461AF02DF855A1384665
:103BE00015F040FA00231A460621384616F060FA0E
:103BF0006F6128681CF036FE4FF4967840450CD271
:103C0000206841F28831884231D9686800990844B7
:103C10006860A868401CA86029E01CF029FE2860A4
:103C200060684FF47A7140680068B1FBF0F0696831
:103C300009B901216960A968F1B14FF47A72514361
:103C40006A68B1FBF2F46E60AE60844200D904464B
:103C5000286920442861E868401CE8601CF08CFE5C
:103C6000C0F16403224634A1384615F032FA2F4DD4
:103C700008356C6814B137E00446E4E715F071FAD2
:103C800014F086FB044600227F2119F05AFF0FF042
:103C9000BFF801460022204619F030FF0FF057FB15
:103CA00001460022204619F0CCFF002203212046C5
:103CB00019F0B6FF00220321204619F09FFF0022D1
:103CC0000321204619F0A0FF00220321204619F00D
:103CD000A1FF18A1204615F0C5F900231A460421BA
:103CE000204616F0E5F96C6028681CF0BBFD4045E5
:103CF0007FF641AF1CF0BCFD286002A815F0E2FC85
:103D000004990298401A820A514200EB81206621F0
:103D1000B0FBF1F39DF821109DF82000CDE90001E2
:103D200009A1204615F0D5F925E700005C00002028
:103D3000B87901203F0000002575204650530A2520
:103D4000752525204350550025752E2575206B427D
:103D5000207573656420282564202525290A25649B
:103D6000252520667261672E0000000070B50A4D9F
:103D7000002400BFC4EBC40655F8260008B115F0B6
:103D800085FC05EB86001C2115F0CAFD641CE4B21D
:103D9000042CEFD370BD0000F84E001008494968AC
:103DA0000AE04A68824202D00A68824203D10A7E4F
:103DB00042F001020A7649690029F2D170470000F9
:103DC0003C000020704700000421014800F066BC60
:103DD000104E00101C21014800F060BC284E00105D
:103DE0002DE9FF5F0446DDE90E0613B9B0F5807FCB
:103DF0007ED0B6F900504FF0FF376D42454307EBD8
:103E000025252DB22580B6F902C0CCF1000C0CFBA3
:103E100000FC07EB2C273FB26780B6F900C0A1EB8E
:103E20000C0141434FF0020C0CEB212109B2A1809F
:103E3000B6F90280A2EB080242430CEB222000B24A
:103E4000E080002B7ED04FF00A0A93FBFAF568421F
:103E500000EB800003EB400705F1010928B21CF0DC
:103E60006DFF00900FFA89F01CF068FF83465A3509
:103E700028B21CF063FF804609F15A0000B21CF022
:103E80005DFF0146009AC7F10A0000FB02F300FB48
:103E900008F00BFB073301FB070193FBFAF291FBE0
:103EA000FAF04FEA601AB4F90010B4F902000AFB04
:103EB00001FCCDF80CC05511378805FB10C207EB8B
:103EC000A2220FFA82F905FB01F2BB460292778823
:103ED0000AFB002107EBA1210BB2B4F90410BE4686
:103EE0000AFB01FC05FB10C20BEBA22216B200E09C
:103EF0002FE005FB01F7CDE9007CB4F90680DDF881
:103F00000CC00AFB007005FB18C1DDF804C0009F5F
:103F100005FB18C5029A0AFB087C0AFB08220BEB7A
:103F2000A1210EEBAC270EEBA02009B20EEBA222D2
:103F30000BEBA5250FFA87FC00B212B22DB24F464B
:103F4000494500E00EE000DA0F46B54216DAA84611
:103F500015E000202080491E6080A180521EE28072
:103F6000BDE8FF9F32882A44228072883A446280EA
:103F700032881144A180718808444FE0B04647451B
:103F800004DA4F46494506DA0F4604E0B54201DA45
:103F90002F4600E0374627804F46494500DD0F4653
:103FA000B54201DDA84600E0B046474503DD4D4679
:103FB000494505DC01E0B54201DD294600E0314616
:103FC000A1809A4201DA154600E01D46844501DAD7
:103FD000614600E001468D4205DA9A4201DA114657
:103FE00006E0194604E0844501DA614600E0014636
:103FF00061809A4201DD114600E01946844501DDE9
:10400000654600E00546A94205DD9A4201DD1046FD
:1040100004E0184602E0844500DD6046E0809FE74A
:104020002DE9FE4F0446D0F800B0B0F90800E5894C
:10403000081AB4F90A10511AD4E90932B5F5807F8B
:1040400038D0A589ADB3A66B704345114E437011AE
:10405000266BE16A06FB05F701FB1077694306FB57
:10406000001003EBA72902EBA02080460612B4F94A
:1040700004004FEA2927B8424EDD002F4CDBB4F98B
:104080000610B14248DD002E46DB94F834104A0792
:1040900045D58A0704F1140322D400FB06704500BD
:1040A0004FF0020A0BEB05015246184615F0EEFBE5
:1040B00027E00DE0256BE66A05FB00F706FB1177AC
:1040C000464305FB016003EBA70902EBA000CCE728
:1040D000A56B68434D4303EB601902EB6510C4E721
:1040E00000FB067000EB40054FF0030A0BEB0501E7
:1040F0000222184615F0CAFBE81C584410F8010CBF
:10410000A07594F83400C0071FD04FF4FC60ADF8E0
:104110000000A18A814218D10020BDE8FE8F32B292
:1041200004F118002369CDE90102002539B2AA463D
:104130008B4612F0D3FF0090BDF80000A082DDE9AD
:104140000102594612F062FFDAE7E07C78B1A4F888
:104150003C90A4F83E80A4F84070A4F842606564E6
:1041600084F848A02046BDE8FE4F00F002B80120C8
:10417000D3E72DE9F04F044690F83C10D0F80090BA
:1041800090F83E0087B04FF0FF36702907DAB4F997
:1041900040203546012A00D5002580310DE09029C8
:1041A00016DDB4F94020B4F904300125521C9A42BE
:1041B00000DB0025A1F27F114942C9B28846702870
:1041C00009DAB4F94210012900D50026803010E048
:1041D0000025FF21F2E790280DDDB4F94210B4F973
:1041E00006200126491C914200DB0026A0F27F1028
:1041F0004042C7B201E00026FF2760690090A07D21
:104200000590002083468246049094F834004007CD
:1042100044D594F84810606C11FB05014944022212
:1042200001A815F033FBA08894F8481010FB01F0AA
:10423000616C022206FB0011494403A815F026FB1D
:10424000A18894F8480011FB00F1626C06FB012282
:1042500010FB05901118022202A815F017FB94F824
:104260003400800761D594F84800626C10FB052388
:1042700000EB09010B4413F8013C0493A38813FBE2
:1042800000F306FB0322114411F801BC10FB0500EA
:10429000111801EB090010F8010C45E0B4F84000DA
:1042A000B4F94220284401B204F118008146236980
:1042B00012F014FF0190B4F84200B4F940103044F9
:1042C00002B254F8103F484612F008FF0390608E87
:1042D0002368304402B2208E284401B2484612F0CE
:1042E000FDFE029094F82400103C80071DD5B4F91F
:1042F000422034F8400F284401B2484612F086FEAE
:1043000004906088B4F90010304402B2484612F0BC
:104310007DFE83466088304402B234F84009284468
:1043200001B2484612F072FE824694F834004246CA
:104330004546800735D5059810FB08F30499C8F168
:10434000FF0011FB0031C1F307211BFB08F61AFB2C
:104350000060C0F3072011FB07F3C7F1FF0610FB55
:1043600006331B0AA375022907D8022803D80020A8
:1043700007B0BDE8F08F002702E0022800D8FF2731
:104380000598022800D800220498022800D8FF22AD
:10439000BBF1020F00D80025BAF1020F03D8FF25A8
:1043A00001E0FF20A075EAB1FF2A04D0DDE9000199
:1043B0000EF042FF0090BDB1FF2D17D0DDE90210D5
:1043C0002A460EF039FF049097B1FF2F05D0014621
:1043D0003A4600980EF030FF0090BDF80000A08231
:1043E0000120C5E70198E5E70298ECE70398EAE7C2
:1043F000BDF81000F3E700002DE9F0470446B0F9DE
:1044000008000A2700026062B4F90A000002A062F4
:10441000B4F90C1091FBF7F5684200EB800001EB5A
:104420004006684205F1010800B21CF087FC824694
:10443000E84300B21CF082FC8146C5F15A0000B28C
:104440001CF07CFC0546C8F15A0000B21CF076FC5A
:10445000C6F10A0101FB0AF3024609FB0630694373
:1044600090FBF7F002FB061191FBF7F14011E062BF
:1044700048112063A07C12F0DEFE94F8341060F343
:10448000000184F83410A07C12F0C5FE94F83410BA
:1044900060F3410184F83410A07C042824D005285E
:1044A00022D0062820D021F0040100BF84F8341067
:1044B00021682162A16921F0E00160F30401A08874
:1044C00060F39421E08860F35F51A161E0894FF4CB
:1044D000001101EB5001B1FBF0F0A063FF20A075CB
:1044E000208AA082BDE8F08741F00401DEE70000E9
:1044F0002DE9F04115460E460746114C1CF0B8F95F
:1045000080462B4632463946204613F015FA20B134
:104510000020A062E06950B110E02C21204615F087
:10452000FFF94FF00040A0620020BDE8F081404656
:104530001CF098F9E06108B90120E0612046F4E739
:104540004C4E001010B51421074800F0A7F813F0E6
:10455000B9F940B1054901600549416005498160EB
:104560000549C16010BDFEE7344E0010F17201082C
:104570006D760108E5770108BD7201087FB50E462A
:10458000040003D10FF06AFA040023D00025FEB125
:10459000ADF80050ADF802500FF078FA401EADF8BB
:1045A000040020460FF0B8FA401EADF806006A4637
:1045B000314602A8FFF7D4F800280BD02068017C10
:1045C000890708D5DDE90001C4E90C0101202AE0D2
:1045D000A0F850517FBD82690AB102A99047002618
:1045E0000BE000BF04EBC601002202A83031FFF748
:1045F000DFF80028EED1761CB6B2B4F85001B04214
:10460000F0D880B2202804D204EBC00002A93030D8
:1046100004E0A4F8505104F1300069460CF0E8FFC2
:10462000B4F85001401CA4F8500160680028D1D0B3
:104630001CF050FA7FBD70B5054600F012F8044634
:104640000CE02146284600F01EF806462146284682
:1046500000F071F8204615F019F83446002CF0D11E
:1046600070BD002800D04068704700B503460022A6
:10467000FFF7F7FF03E01846521C00F004F80100B2
:10468000F9D1104600BD0068091D40587047006808
:1046900040587047002800D0806870470022426070
:1046A000C91C21F0030182600160704770B50446A7
:1046B0000068083014F060FF050013D001460022A6
:1046C00020461DF0EBF92946204662681DF0E0F90E
:1046D000616819B12A4620461DF0E0F96560A068BE
:1046E00000B9A560284670BD70B504460068083062
:1046F00014F042FF050013D00146002220461DF0B1
:10470000C7F929462046A2681DF0C8F9A16819B169
:104710002A4620461DF0BCF9A560606800B96560B6
:10472000284670BD28B1416809B9806808B10020E9
:1047300070470120704770B504000DD0FFF791FF5E
:1047400000228842204608D1FFF79DFF6060011ECD
:1047500001D000221EE0A26070BDFFF79BFF8842DF
:10476000206808440AD10168A16029B12046BDE84B
:10477000704000221DF08CB9626070BD0568204653
:10478000FFF781FF06460246294620461DF080F9C4
:104790002A4631462046BDE870401DF07FB910B56D
:1047A0000446006882680AB1214690472068006884
:1047B000002801D02060F5E710BD8068002801D0F6
:1047C000B0F91600704700002DE9F047074690B099
:1047D000408C189E40F00400788490463A849946B4
:1047E0008A463289384617F01DFC0546A7F8209006
:1047F00032895146384617F015FC0446788CA5429C
:1048000020F00400788403D12904B1EB044F68D070
:10481000A7F8208032895146384617F003FC054638
:104820008046A7F82090514638460BF031F931897F
:1048300000682A461AF092FF3089602823D147F693
:10484000FF794D4501D04C451DD1384617F035FD57
:1048500000EBD0704510384617F02FFD00EBD070FC
:104860004010C84506D1691C431C994200DA00E09B
:10487000194688464C4506D1691C421C914201DA12
:104880006C1C00E014461948FFF710FF05002BD000
:104890002F60C5E903843089A8806846C5F808A060
:1048A0000CF098F91248FF21CDE900501148029010
:1048B0001148039000200790CDE9080130880A9044
:1048C00070889DF83E1040420B90F06806900020E2
:1048D00060F300018DF83E103069059068460CF0D9
:1048E000EDF910B0BDE8F087FEE70000404E001083
:1048F000C95C0208B55E0208115E02081421014875
:10490000FFF7CCBE404E00102DE9FC5F002592461B
:104910008B4606462C46042743F60F0843F60E093D
:1049200001E100BFF06807EBC401405881017CD46D
:1049300080B230EA0B0113D05FF0000130EA0A00C8
:1049400010D00020814270D0F06801AA41F6100119
:1049500050F8340000901AF0E7FC002866D103E01C
:104960000121EBE70120EDE701AA41F611010098D2
:104970001AF0DAFC002873D101AA41F6120100985E
:104980001AF0D2FC00286BD101AA41F6130100985D
:104990001AF0CAFC002863D101AA41F6150100985B
:1049A0001AF0C2FC00285BD101AA41F6140100985C
:1049B0001AF0BAFCD0BB01AA41F2690100981AF0C2
:1049C000B3FC98BB01AA43F20C0100981AF0ACFCAE
:1049D00060BB01AA43F20D0100981AF0A5FC28BBA8
:1049E00001AA41F2010100981AF09EFCF0B901AA57
:1049F00041F2040100981AF097FCB8B901AA41F2FB
:104A0000020100981AF090FC80B901AA41F203015A
:104A100000981AF089FC48B901AA41F205010098F2
:104A20001AF082FC10B901AA01E07BE018E041F223
:104A3000060100981AF078FC90B901AA41F23201FF
:104A400000981AF071FC58B901AA414600981AF072
:104A50006BFC28B901AA494600981AF065FC10B110
:104A60000320BDE8FC9F01AA40F60A0100981AF055
:104A70005BFCE8BB01AA40F60B0100981AF054FC5D
:104A8000B0BB01AA414600981AF04EFC80BB01AAB7
:104A9000494600981AF048FC50BB01AA40F63C0178
:104AA00000981AF041FC18BB01AA40F63D0100989D
:104AB0001AF03AFCE0B901AA40F63A0100981AF05F
:104AC00033FCA8B901AA4FF4046100981AF02CFC39
:104AD00070B901AA40F6450100981AF025FC38B9D2
:104AE00001AA40F6410100981AF01EFC00B900E04E
:104AF00014E001AA40F6420100981AF015FC68B9CA
:104B000001AA40F6430100981AF00EFC30B901AA40
:104B100040F6490100981AF007FC08B1022501E0AF
:104B200005B90125641C708CC0F3C500A0423FF696
:104B3000F9AE284695E7000001484068704700003C
:104B40005C0000200549002048600861C86088605A
:104B5000086048610249086048607047B8790120E0
:104B600064000020C0F30410072800D90720704714
:104B700010B518210348FFF791FD03490120087083
:104B800010BD0000EC4D00100C0100102DE9F041AB
:104B900090460C46050015D0FBF7FBFB0A4F064676
:104BA0002146BA68284690470446BA682819414603
:104BB00090470146701A03E06218AA5C2A55641CEB
:104BC000A042F9D2BDE8F081540100202DE9F04166
:104BD000094D90460E466A681C460746194690479E
:104BE000306020B120686A68384400219047C8F8D6
:104BF0000000BDE8F0810000540100202DE9F04FD5
:104C000087B08A46DDE910581F46934604460021C6
:104C100005B129805CB12078002809D0BAF1000FD5
:104C200005D0002618F0060F15D0002004E0002063
:104C300007B0BDE8F08F401C215C0A2904D00D2983
:104C400002D00029F7D100E0401C002DF0D04FF039
:104C5000FF312980ECE75FEA887001D541F6FF77E4
:104C6000894608468DF81410049127E00498CDF881
:104C7000189068B34FF0000C05AA06ABCDF80CC035
:104C8000CDF80080CDE9013220443B465A465146DA
:104C90001CF07EF806997A1A314417B20EB288B128
:104CA00004990144049120780A280BD00D2809D0DA
:104CB000605C0A280FD00D280DD00846205C08B192
:104CC000002FD3DC049848B105B12E800498AFE7DB
:104CD0004FF0010CD0E7481C0490F3E7064A04A902
:104CE000204652689047002DF0D0014600225046E1
:104CF00011F0FDFD06B2E8E7540100202DE9F04176
:104D00001746884606001ED0002F1CD0FBF741FB3B
:104D100004463846FBF73DFB050014D00B4A2C44F3
:104D20004146926830469047411903E0621BB25CED
:104D30003255641EA142F9D930442A463946BDE8AD
:104D4000F04114F0AFBDBDE8F08100005401002037
:104D500000230278232902D0012A0DD00FE02AB1C6
:104D60000021012A04D0022A04D008E0012101E038
:104D7000017004E0017001E0202902D001231846EF
:104D800070470221F6E72DE9F0410E4680460246C3
:104D90000021334608461CF037FA04460027401C21
:104DA00014F0EAFB050008D02F5533464246611C3B
:104DB0001CF02AFA2846BDE8F081FEE72DE9F0470D
:104DC0001E4614460D468246DDF8209015E000BFD1
:104DD0004FEA540808FB0657394650464A46904762
:104DE000002808DD44F30000C0EB540407EB06057F
:104DF000A4F1010401E005DA4446002CE8D1204684
:104E0000BDE8F0873846FBE72DE9FC5F9B460CAB1D
:104E10008A468146DDE9116093E81210DDE90F57FB
:104E20005FEA80784FF030031AD45EB15FEAC07851
:104E300008D000F00C0858EA0C0803D0761E01E0F8
:104E40000B55641CBC4204D2202CF9D301E00B5555
:104E5000641C5FEAC07803D0B44201D2202CF6D3A0
:104E60005FEAC06825D55FEA40580AD44CB1BC421D
:104E700001D0B44205D1641E03D0102D03D1641EAD
:104E800004E0102D02D0022D0AD00EE0850603D4D6
:104E9000202C1ED2782506E0202C1AD2582502E0BC
:104EA000202C16D262250D55641C202C11D20B55D6
:104EB000641C202C0DD2BCF1000F01D02D2306E084
:104EC000430701D52B2302E0030702D520230B550E
:104ED000641CCDE900BAC846154681468B46AA46F1
:104EE000800714D1274607E02A46DDE900316D1C12
:104EF0002020C446E0477F1CB742F5D307E02A468E
:104F00006D1C641EDDE900311BF80400C047002C55
:104F1000F5D15FEA897006D409E02A46DDE900315F
:104F20006D1C2020C047A5EB0A00B042F5D32846EF
:104F3000BDE8FC9F2DE9F04F8FB099468B46DDE927
:104F40001818DDE91C63DDE91A47924686460022FF
:104F500009B923F01003580507AD00D5C9B1B1FB5D
:104F6000F4F004FB1010C0B20A2801D2303009E07E
:104F70005FEA836C02D54FF0410C01E04FF0610C09
:104F800060440A38B1FBF4F1A854521C09B1202A3C
:104F9000E5D3CDF80880CDE90563CDE90052CDE930
:104FA00003474B46524659467046FFF72DFF0FB058
:104FB000BDE8F08F2DE9FF4F8FB01CACDDE92395E4
:104FC00094E8030820AC94E8C004002450EA0102ED
:104FD00001D125F010056A050DF11C0802D550EA33
:104FE000010217D032463B46FBF75EF9D2B20A2ADD
:104FF00001D2303206E0AB0601D5412300E0612347
:105000001A440A3A08F80420641C50EA010201D04C
:10501000202CE7D3CDE90084CDF808B0CDE9059583
:10502000CDE9036A0FAF97E80F00FFF7EDFE13B06D
:10503000BDE8F08F9A4200D2885470477047000054
:105040002DE9FF4F8DB00F460546002606E02528C6
:105050000BD0DDE90F1290476D1C761C28780028D4
:10506000F5D111B03046BDE8F08F0024A246A1462C
:105070000122E94900E0044315F8013F203B02FA10
:1050800003F00842F7D128782A2810D06FF02F02B9
:105090002878A0F13001092914D80AEB8A0102EB23
:1050A000410144F0020400EB010A6D1CF0E701CF5E
:1050B0005FEA000A03D544F40054CAF1000A44F040
:1050C00002046D1C28782E2817D115F8010F44F022
:1050D00004042A280ED06FF02F022878A0F13001A6
:1050E00009290AD809EB890102EB410100EB01090A
:1050F0006D1CF2E757F8049B6D1C28786C280FD0C4
:1051000006DC4C2817D068280DD06A2814D104E09A
:10511000742810D07A280FD10DE044F400140AE06E
:1051200044F4801401E044F440146978814202D1CF
:1051300004F580146D1C6D1C28786E281ED00CDCC4
:10514000632830D004DC00288BD0582811D19FE090
:10515000642867D069280CD164E073282DD004DC62
:105160006F2872D0702804D194E075286ED078280A
:105170006DD0DDE90F129047761C4BE1C4F302506D
:10518000022806D0032809D0042801CF09D00660E0
:1051900040E101CFF117C0E900613BE101CF06809A
:1051A00038E1067036E117F8040B8DF80000002096
:1051B0008DF80100EB46012003E057F804BB4FF0E7
:1051C000FF3061074FF0000102D40DE008F101014A
:1051D000884649450FDA8045F8DB1BF8081000299E
:1051E000F4D108E008F1010188468142FADB1BF89E
:1051F00008100029F6D1DDE90F23AAEB080081464B
:10520000214600F031F9304400EB080604E0DDE906
:105210000F121BF8010B9047B8F10108F7D2214695
:105220004846F2E00A21C4F302524FF0000B089105
:10523000022A04D001CFC117032A09D00AE0FF1DBA
:1052400027F00707F7E8020108E02CE01EE01FE066
:1052500000B2C117042A01D140B2C117021E71F178
:10526000000206DA0023D0EB030063EB01012D22DC
:1052700002E0220504D52B228DF82420012203E030
:10528000E20701D02022F7E7904653E00A210BE025
:10529000102109E010214FF0000B44F004044FF0FE
:1052A0000809089103E008214FF0000B0891C4F3AE
:1052B0000252022A04D001CF0021032A06D006E0C0
:1052C000FF1D27F00707F7E8020103E080B2042A78
:1052D00000D1C0B24FF0000822072BD52A78702ADF
:1052E00007D0DDF820C08CF0100C5CEA0B0C05D068
:1052F0000EE040228DF82420012208E050EA01034C
:1053000006D030238DF824308DF8252002229046D7
:10531000089B83F0080353EA0B030BD150EA010208
:1053200001D1620706D530228DF824204FF0010804
:10533000A9F101092A78582A04D038A20B9208AAA8
:105340000A920BE03AA2F9E75B46089AFAF7ACFF3B
:105350000B9B9B5C0A9A521E0A92137050EA010240
:10536000F2D10A98ADEB000000F1200B600702D5E6
:1053700024F4803401E04FF00109D94502DDA9EBA6
:105380000B0000E0002000EB0B0141440890AAEB69
:10539000010AE00306D4DDE90F232146504600F060
:1053A00063F806444FF0000908E009A911F8090064
:1053B000DDE90F12904709F10109761CC145F4DBC4
:1053C000E0030CD5DDE90F232146504600F04CF8F0
:1053D000064404E0DDE90F1230209047761C08995E
:1053E000481E08900029F5DC08E00A980A99007820
:1053F000491C0A91DDE90F129047761CBBF10001B0
:10540000ABF1010BF1DC21465046DDE90F2300F042
:1054100019F806446D1C21E60928010030313233A9
:1054200034353637383961626364656600000000E0
:1054300030313233343536373839414243444546CA
:10544000000000002DE9F041044600251E461746E5
:10545000880404D405E039462020B0476D1C641E42
:10546000F9D52846BDE8F0812DE9F0410446002534
:105470001E469046C80301D5302700E02027880447
:1054800004D505E041463846B0476D1C641EF9D589
:105490002846BDE8F0810A68531C0B601070704705
:1054A00070B506468AB01C46154608460BF067FFE5
:1054B000CDE900042B4605A2202102A819F020FD09
:1054C00002A9304613F0CEFD0AB070BD25732564E5
:1054D00025730000F8B504460F46069821681D465E
:1054E000164601B98047002000902B4632463946C7
:1054F000206819F06FF9F8BD70B506468AB01C46F1
:10550000154608460CF042FACDE900042B4605A2E8
:10551000202102A819F0F4FC02A9304613F0A2FDE4
:105520000AB070BD25732564257300002DE9FF4F77
:1055300089B005460A9800249246002800D1FE4D05
:105540008FE1252804D02246641C53460A990BE2B9
:10555000491C4FF0000808460C9101782B2919D0FE
:1055600004DC202919D0232904D119E02D290ED0DB
:10557000302909D00026C8B2FEF7D2F8B0B10CA885
:10558000FEF7B7F806461FE048F001010AE048F0D0
:10559000020107E048F0040104E048F0080101E0DE
:1055A00048F01001401C88460C90D6E70C9908780A
:1055B0002A2809D1169840C81690002E02DA48F021
:1055C00002087642491C0C910C984FF0000B0178B0
:1055D0002E2919D1401C0C9048F480680078FEF701
:1055E0009FF820B10CA8FEF784F883460CE00C9AD3
:1055F00010782A2808D1169802C81690002900DCD5
:105600000021521C8B460C920C9801786C290AD010
:1056100004DC68290FD06A2919D128E0742929D01F
:105620007A2914D126E0401C0C90017848F4807847
:105630006C291CD00BE0401C0C90017848F08008CD
:10564000682904D148F04001401C88460C9002466D
:105650000078692822D015DC62281FD00DDC2528AF
:1056600071D050281AD058287FF46DAF16E048F456
:105670000071E9E748F48071E6E7632878D0642890
:10568000F2D10BE0732874D004DC6F2806D07028A8
:10569000EAD103E0752801D07828E5D178280DD02B
:1056A00058280BD070280BD0502809D06F2816D05E
:1056B000622816D00A2128F0100016E0102107E019
:1056C0005078102148F48878562804D1521C0C9246
:1056D0001078582807D01078502804D006E0082108
:1056E00009E0022107E048F0200080461078692890
:1056F00003D0642801D028F00C085FEA485001D597
:1057000028F00108107869281ED064281CD056287B
:1057100064D05FEA885072D5169804ABC01D002291
:1057200083E806080292CDE9076820F00700534697
:10573000F0E80212CDE900121690224628460A9996
:10574000FFF738FC89E00AE15FEA885024D5169813
:1057500004AFC01D20F00703F3E8020216930023F4
:1057600087E80A08CDE90768002A03DA012102E088
:1057700080E0A6E000210023029119461B1A914106
:1057800001DA114603E00021404261EB0201534679
:105790002246CDE90001D1E75FEAC85004D516984A
:1057A00004C80FE0524215E05FEA486003D516983E
:1057B00010F8042B06E05FEA0860F0D5169830F880
:1057C000042B12B21690CDE9021BCDE90468D00F6C
:1057D000002AE7DDCDE9002053461EE01698AAEB2B
:1057E000040202C816904868006800900A980B6886
:1057F00001192846FFF79AFE04442FE0FFE75FEA0D
:10580000C8500CD5CDE9021BCDE9046816980021DB
:10581000534604C8CDE900211690224619E05FEAFC
:10582000486003D5169810F8042B08E05FEA08607A
:10583000169803D530F8042B92B200E004C81690F5
:105840000020CDE90020CDE9021BCDE904685346D4
:10585000224628460A99FFF76DFB04460C98401C27
:105860000C900C99087800287FF46BAE54457DD2DB
:1058700022467DE001275FEA887006D509E02246CE
:10588000641C534620200A99A84738467F1CB04222
:10589000F5D316992246641C11F8040B1691534651
:1058A0000A99A8475FEA887006D4D7E72246641CA5
:1058B000534620200A99A84738467F1CB042F5D3AA
:1058C000CCE7169850F8049B16904B46BBF10000AD
:1058D00001D0014601E04FF0FF31484600E0401C96
:1058E00002780AB1491EFAD2C71A5FEA485003D5B6
:1058F00058465F4500D307465FEA887006D512E038
:105900002246641C534620200A99A84738467F1C2B
:10591000B042F5D307E000BF224609F10109641C3B
:1059200053460A99A84799F8000040B15FEA4851E8
:10593000F2D5BBF1010B01E03D500008ECD25FEA6B
:10594000887006D48AE72246641C534620200A99B0
:10595000A84738467F1CB042F5D37FE706E02246D1
:10596000641C534625200A99A84777E7AAF101024B
:10597000534600200A99A8470DB02046BDE8F08F95
:1059800010B502004FF000000CD04B1E194200D0A1
:10599000FEE70A44521E9A43B2F5803F02D20C2A17
:1059A00001D9104610BD0C2010BD08444A1E401EEF
:1059B0009043114200D0FEE7704700002DE9F0410E
:1059C0000F4601210025044641862E460BE01B4967
:1059D000FAF7E6FC10B16D1CADB202E0608E401C1F
:1059E0006086761CB6B257F8260010B101780029FF
:1059F000EDD1208EA8421ED0A06A002610B113F06F
:105A000045FEA662E06A10B113F040FEE662E800CF
:105A100013F0B2FDA06238B1680013F0ADFDE06292
:105A200018B1A16A11B102E0FEE7FEE700256900A6
:105A300013F076FF2586BDE8F0810000B01F010855
:105A40002DE9F84F8146407A0F4600F00700022802
:105A500019D010468046974200DD3A46164603208C
:105A60002A4C2B4A00EB460020F00305A068116881
:105A70001035411A636805EB010C9C4505D241685D
:105A800021F0004124E00846E4E79D4219D89246FF
:105A90004FF0FF3B48196168884210D900226946DF
:105AA0001C48CDF800B00AF015FD002269461A48DE
:105AB0000AF010FDA168DAF80000091AEAE7A06808
:105AC000DDE7284613F058FDC0B1416841F00041C0
:105AD00088EA6702416089EA02010160416801F0D9
